:020000040800F2
:1000000088050020D5000008D1270008D725000862
:1000100000000000000000000000000000000000E0
:10002000000000000000000000000000612B00083C
:10003000000000000000000019280008B92B00088B
:10004000E7000008E700000899290008E700000819
:10005000E7000008E7000008E7000008E7000008E4
:1000600000000000E7000008E7000008E7000008C3
:10007000E7000008E700000800000000E7000008B3
:100080000000000000000000000000000000000070
:10009000E700000800000000E7000008E700000893
:1000A00000000000E7000008000000000000000061
:1000B000E7000008E7000008000000000000000062
:1000C0000348854600F0DAFB00480047913A0008F3
:1000D000880500200448804704480047FEE7FEE703
:1000E000FEE7FEE7FEE7FEE7812C0008C1000008FE
:1000F00030B50B46014600202022012409E00D46C0
:10010000D5409D4205D31D469540491B2546954047
:1001100040191546521E002DF1DC30BD70B500248B
:100120002546002801DA01244042002901DA012590
:100130004942FFF7DDFFAC4200D04042002C00D026
:10014000494270BDF0B51FB40646002082B0054696
:100150004024019100901BE0019922460F46304651
:1001600000F052F9049A059B801A994110D3104669
:100170001946224600F038F9361A8F410197224677
:1001800001200021009F00F02FF938184D41009008
:100190002046641E0028DFDC019B00982946324679
:1001A00007B0F0BD38B50446C0681821401E48436A
:1001B000A16840183C214843616840183C214843ED
:1001C0002168451860690C2148432169401869215C
:1001D000C900401A3021FFF7A1FF114A50434219CC
:1001E000084600921A2902DB0E49511800910C2191
:1001F000FFF794FF0C4A5043009A801800900B4878
:1002000006E0491E425C074B5A43009BD2180092FD
:100210000029F6DC2146684600F008F9009838BD50
:10022000801F8607805101008033E101A93B00084F
:10023000D2B201E00270401C491EFBD2704700227E
:10024000F6E710B513460A4604461946FFF7F0FFD5
:10025000204610BD0321001D401E037812021A43E0
:10026000491EF9D510467047034603220870000A5C
:10027000491C521EFAD5184670470000F0B50C46CE
:100280005C4085B0E40FE40703944C00002664084A
:1002900059009446490802460296224321D06246FC
:1002A0000A431ED06200570D4A000E032303550D6A
:1002B000012402462C492405781B1B0B360B4018E1
:1002C00023432643614600901C46501AB44103D391
:1002D0000098401C009002E0921800985B410028B2
:1002E00003DA0020014605B0F0BD00200121090518
:1002F0000746864611E064461D46141BB54106D3E9
:100300006546521BB341744607430C43A646CD07CE
:1003100040084908284392185B4105460D43EAD13D
:100320001046184313D060461946504071400843A8
:1003300006D06046101AB34106D20122002306E01F
:1003400000220123DB0702E00122D2435310009870
:1003500074460105381C6141029C039D00196941E6
:1003600000F0DFF8BFE70000FD0300000EB505490F
:100370000291002100910A460B46019100F0DEF83F
:1003800003B000BD33040000C20FD2074000400894
:100390000BD0C10D0723DB01C91840020905400A33
:1003A0001143C208400711437047002001467047BF
:1003B000CB0FDB07490010B5490802460A4307D0B6
:1003C0000A0D07240903E401090B121B002A01DCB2
:1003D000002010BDC900440F0C43C100E018D20535
:1003E000801800F05DF810BD10B5202A04DB01462E
:1003F000203A9140002010BD914020239C1A0346D2
:10040000E3401943904010BD10B5202A04DB084694
:10041000203AD040002110BD0B46D340D0402024CC
:10042000A21A91400843194610BD000070B50C4651
:1004300000683C21FFF75CFE21603C21FFF758FE7D
:1004400061601821FFF754FE0546A1600721001DD9
:10045000FFF74EFEA1610F48A90008180E49FFF7EB
:1004600047FE0246443288086261E0613B2802D3BD
:10047000910700D0401C0021084B0A462161995C7D
:10048000814203D8401A521C2261F8E7401CE06008
:10049000204670BD6C0B0000B5050000B53B0008A0
:1004A000002904DA401C490001D14008400070478F
:1004B00070B40024050C05D11024000402D10029D9
:1004C00021D01124050E01D100020834050F01D1FD
:1004D0000001241D850F01D18000A41C002801DB30
:1004E0004000641C002908D020252E1B0D46F54035
:1004F000A14000D001212943084301061B1B000A2B
:10050000DB1D02D5002070BC7047DB051818801871
:100510000029F8DA401C4900F5D170BC40084000C1
:10052000704710B5002B08DA0024401C6141921876
:100530005B411A4301D14008400010BDF0B51FB423
:1005400082B005460C0003D0084602F09DFD02E093
:1005500002F09AFD20300246009021462846FFF71F
:1005600043FF049B059A04460F4618431143084372
:1005700014D0184610431BD0009840210A1A184680
:100580000599FFF741FF05460E46009A0599049824
:10059000FFF72AFF084305D0012004E02046394632
:1005A00007B0F0BD0020C11705430E432C4337436D
:1005B00000990E986305401A7905E40A00220C435D
:1005C000FD0A0A3002D500200146E9E701051019AD
:1005D00069410C9C0D9D00196941FFF7A2FFDFE7FF
:1005E000F0B507460846584087B0C00F0490480051
:1005F0000E46590040084908BC1A884105D23846C1
:1006000031461E4617460B46024658004008104326
:100610004CD0300D039040055900400D490D059018
:10062000401A0290402872DA18030121000B0905D4
:100630000843019004980092002805D00199524285
:100640000020884100920190029840210A1A0199E5
:100650000098FFF7C9FE05460C466B4607CB00F035
:100660001FF9C0197141039A0E0D0023D717564088
:100670001A467A40164344D0049A002A2DD0029A92
:10068000012A039A15DC1205C01A9141012636058C
:10069000001C7141D20F059ED20700930192029671
:1006A0002A462346FFF74AFF07B0F0BD38463146D9
:1006B000FAE71605224A0F46B218C01AB7410121BF
:1006C0000905001C4F4100187F4111461818794157
:1006D000E20F10436D19644113E0E2076D08154302
:1006E0006408C2071443039A01261205C01A9141F7
:1006F0003605001C7141CE07400830434908C01838
:1007000051412A462346FFF70CFFCDE7FFE7049847
:1007100001224000C117121A00238B410498314670
:10072000C417381AA141EEE730B40124E40763404E
:1007300030BC55E730B40124E407614030BC4FE7DA
:100740000000E0FFF0B51FB488B00B9909980024B1
:1007500048400999C00F490049080991C0070B9901
:100760000090490049080B9109990898A64608434A
:100770001CD00B990A98084318D00998012440000E
:10078000420D4800410D099824050003000B204349
:1007900009900B980003000B20430B9050181C4944
:1007A0004018002201901446104605E00020014642
:1007B0000DB0F0BD032801DA034600E003239C4698
:1007C000C11A0AAE0AE05F0008ADED5B4F00F75BAF
:1007D0007D430027AA187C41491C5B1E6145F2DD60
:1007E000410004AB5A522104120C0A43240C401C51
:1007F0000828DFDB01980290009970460191009073
:10080000059B049A07990698FFF798FED0E7000029
:100810000DFCFFFF4A0009030123090B1B051943C7
:100820000A4B10B5520D9A4202DA0020014610BD63
:10083000064B34339A4203DC9A1AFFF7E5FD10BDEC
:10084000034BD218FFF7D0FD10BD0000FF030000DE
:10085000CDFBFFFF10B5002904DB0124E407404273
:100860008C412146002B04DB1C460123DB0752424E
:10087000A341994200D1904210BD0000064C0125D1
:10088000064E05E0E36807CC2B430C3C9847103438
:10089000B442F7D3FFF718FCC43B0008E43B000860
:1008A00010B5202A06DBCB170846203A1041C117A5
:1008B0000B4306E00B461341D0402024A21A91407E
:1008C0000843194610BD70B50446006881684907A1
:1008D00020D5816810264907002905DA8168890733
:1008E00002D481683143816000F0BAFC05460DE016
:1008F00000F0B6FC401B0A2808D9606D30436065E3
:10090000A06D01210843A065084670BD206880687D
:100910004007EDD4002070BD38B5044606480549AF
:100920000068FFF7E5FB604300E0401E00900028F0
:10093000FBD138BD40420F0018000020F8B5044636
:10094000006881688907890F012925D10168C907D5
:1009500022D08168052211401025012601290FD1DE
:10096000816802221143816021680320086000F041
:1009700077FC07460CE000F073FCC01B0A2807D97F
:10098000606D28436065A06D3043A0650120F8BD0F
:1009900020688068C007EED10020F8BDF8B5044695
:1009A000006881688907890F012902D10168C90798
:1009B00022D18168114A10261140012500290ED14B
:1009C0008168294381600120FFF7A6FF00F048FC01
:1009D00007460CE000F044FCC01B0A2807D9606DF4
:1009E00030436065A06D2843A0650120F8BD2068F4
:1009F0000068C043C007EDD10020F8BD170000809B
:100A0000F8B5002501210846009502F047F802E0FC
:100A10000A2000F058FB00F023FC1428F8D3002132
:100A2000012002F03BF89F2000F09CF8A52000F088
:100A300099F8694608700746A52000F093F86946C2
:100A4000487006460121084602F028F800F078F8C0
:100A500069468870044601462FA002F005FB1F2F4F
:100A600001D00020F8BDF206D20EFF26D21E0A21C8
:100A7000013609272E48130002F01DFB06040C2046
:100A800029353C4B0221017049021AE0FF21877190
:100A900009313DE00421044601704802A08025A0F0
:100AA00002F0E2FA68468078C00702D0A57166803D
:100AB0002FE0FF20A771093060802AE00821017033
:100AC00049028180E107E1D08571468021E0102252
:100AD000027012020AE001218571490218E0817159
:100AE0002121090114E02022027012028280E20713
:100AF000F5D0F0E740210170C9018180E10703D002
:100B000001218571890203E00B21817121214901B5
:100B100041800120F8BD0000415434354442205347
:100B200074617475733A307825780D0A00000000FE
:100B3000100000204154343544423034310D0A0055
:100B400010B50021012001F0A9FFD72000F00AF81C
:100B5000002000F007F804460121084601F09EFF3E
:100B6000204610BD01B582B00021684601716420A5
:100B70000090012301AA02A9024801F051FB684636
:100B800000790EBDB000002010B502F029F801F088
:100B90005FFD01F0FDFD01F01FFD01F0B1FD01F071
:100BA000CBFD01F0DFFF10BD064BC01803E003785A
:100BB0000B70401C491C1346521E92B2002BF6D1FA
:100BC00070470000000008087047F8B50546044665
:100BD0004035287C0026012808D001202874206890
:100BE00081688907890F01290ED101E00220F8BD33
:100BF0000168C90708D0606D20210843606501269F
:100C0000002028743046F8BD616DFF220132914307
:100C1000022211436165C1688907890F0091C1688B
:100C200089088900C160206881689207114381604A
:100C300000F016FB07460EE000F012FBC01B0A286E
:100C400009D9606D022188431021084360650020A6
:100C500028740120F8BD206880680028ECDB20683B
:100C6000C168009A1143C160606D80088000401C1B
:100C70006065C5E70248016A8215914301627047C9
:100C80000000014070B50A4D286AA9150843286282
:100C900000F0E6FA044606E000F0E2FA001B032842
:100CA00001D9012070BD286A4000F5D5002070BD33
:100CB00000000140F8B506460D464036317C01295A
:100CC0000DD00121317401688A68520709D5416D40
:100CD000202211434165002030740120F8BD02201C
:100CE000F8BD174B6A68D80547109A42154C8A6AB6
:100CF0002B6812D05B035B0B1A438A622968490395
:100D000005D5A1680143A1600A20FFF705FE286808
:100D1000800312D5A06838430EE05B035B0B9A4357
:100D20008A622968490302D5A1688143A1602868C5
:100D3000800302D5A068B843A06000203074F8BDDD
:100D40000110000000270140406D70470068006CF2
:100D50007047000070B5040006D0606D264600257F
:100D60004036002802D006E0012070BDA56535742C
:100D7000204600F0D3F8606DC00603D4216888686F
:100D8000400705D5606D1021084360653574EBE7B9
:100D9000606DFF2201329043022210436065886833
:100DA0008207920F5B48012A02D10A68D2072BD131
:100DB000032362689B079A4205D05B429A4202D0A5
:100DC0005B009A4209D10A69920092080A6121687F
:100DD0000A6963681A430A610CE00A699200920882
:100DE0000A6181680F229204914381608168626880
:100DF000114381602168CA6818239A43CA60216838
:100E0000CA68A3681A43CA608168012252069143E6
:100E100081608168A28E52061143816020688168DA
:100E2000C90004D48168012212071143816020683F
:100E3000C168394A1140C1602069E168022825D0A3
:100E400000200143204620300278037B52035B00E0
:100E50001A431143226B1143A26992031143E269C1
:100E6000D20311432268D3681943D160616A0A46EC
:100E7000FF3AC23A05D0A26A11432268D3681943E7
:100E8000D16042780121012A02D00BE00420D8E78A
:100E90000078002823D0606D202210436065A06D8B
:100EA0000843A065E06B012820681FD00169C907CD
:100EB00003D0016949084900016120684169C908F6
:100EC000C900416120684169A26B11434161A56578
:100ED000606D80088000401C6065002070BD206847
:100EE000C26801231B041A43C260DBE70269FF23C7
:100EF0009B009A43026120680269236CA66C1A4326
:100F0000636C33431A430261206802690A43026139
:100F1000D3E70000002701401902FEFF10B586B09C
:100F2000044614216846FFF78AF90E492068884272
:100F300016D10D48416B421511434163C16A01222C
:100F40001143C162C06A69461040059002200090BA
:100F500003200190002002900520000700F0C2F855
:100F600006B010BD0024014000100240F8B5044650
:100F70004069254640350E4608280BD02068C068D9
:100F8000C00709D0606D20210843606500202874E7
:100F90000120F8BD082700E00C2700F061F900905F
:100FA00011E0701C0FD0002E05D000F059F9009907
:100FB000401AB04207D9606D0421084360650020E3
:100FC00028740320F8BD206800683842E9D0606DBD
:100FD00001214902084360652068C16809058A0F3C
:100FE0000C21002A1BD12022125D002A17D1026891
:100FF000120714D5826853070122002B08DB4368CF
:101000008B434360606D130298431043606506E0B4
:10101000606D202318436065A06D1043A065A06932
:10102000002801D1206801600020F8BD70B5044699
:10103000216800208968490721D425464035297C4C
:1010400001291CD001212974E169012904D020461D
:10105000FFF7A4FC002811D1616D0A4A1140FF225C
:101060000132114361650021A165297422681C21A8
:10107000116021688A6804231A438A6070BD0220C7
:1010800070BD0000FEF1FFFF70B505460446403517
:10109000287C012807D001262E742046FFF713FC78
:1010A000002802D00CE0022070BD2046FFF746FC6D
:1010B000002805D1616DFF22013291433143616502
:1010C0000021297470BD70B5044600F0C9F80546CA
:1010D000601C00D0641C00F0C3F8401BA042FAD38F
:1010E00070BD0000F8B5002301249DE027469F4015
:1010F0003A4070D04D68022D01D0122D14D1DD0878
:10110000AD002D1800952D6A5E07AC46F50E0F2632
:10111000AE46AE406546B543AC460E697546AE4038
:1011200065462E43009D2E624D68012D05D0022D8F
:1011300003D0112D01D0122D16D185680326AC469F
:101140005D00AE46AE406546B543AC46CE687546DA
:10115000AE4065462E43866046680D79BE43ED0677
:10116000ED0F9D403543456006685F000325BD4097
:10117000AE46AE430D79B446AE07B60FBE406546E7
:101180002E430660C6687546AE438D68BD40354344
:10119000C5604D68ED0046D5264D6E6B26436E63E7
:1011A0009E08254DB6007519AC46AD689E07360FF2
:1011B0000F27B740BD4305273F07B84201D100279D
:1011C00010E01E4FB84201D101270BE01C4FB8427E
:1011D00002D1022706E026E01A4FB84201D10527C6
:1011E00000E00627B7402F436546AF60164D2E68D6
:1011F0004F689643FF0300D516432E606E684F6814
:101200009643BF0300D516436E60AE684F689643A1
:10121000FF0200D51643AE60EE684F689643BF02EA
:1012200000D51643EE605B1C0A681546DD4000D011
:101230005CE7F8BD001002400000014000040050CF
:1012400000080050001C00500004014042694A4060
:1012500042617047002A01D0816170478162704706
:1012600001480068704700001C00002010B500F025
:1012700015FAFFF77BF80C4C00222346FEF7FEFF21
:1012800002460B4609A001F0EFFE00F0E1F9FFF77E
:101290006DF800222346FEF7F1FF02460B460BA035
:1012A00001F0E2FE10BD000080842E4148414C5FF9
:1012B0005243435F537973436C6F636B467265713E
:1012C0003A25664D487A0D0A0000000048414C5FFF
:1012D0005243435F48434C4B467265713A25664D15
:1012E000487A0D0A0000000002480168491C0160AC
:1012F000704700001C00002010B508480024016859
:10130000402211430160204600F00AF8002801D075
:10131000012401E000F01CF8204610BD002002402E
:1013200070B5054609487D210024C9000068FEF714
:10133000DFFE01F06DF8002801D0012404E0002256
:101340002946501E00F01AF8204670BD18000020F3
:101350000448416B012211434163816B0204114334
:101360008163704700100240C106C90E0120884009
:10137000014908607047000000E100E010B501F08D
:1013800029FA10BD024801688215114301607047B7
:1013900000700040F8B5044600784F4D800672D5C5
:1013A0004D4E0027403EB06BC00004D4B06BA90581
:1013B0000843B063012749480168C90511D4016891
:1013C000821511430160FFF74BFF009005E0FFF726
:1013D00047FF0099401A642837D840480068C00584
:1013E000F5D532680321090560680A400140914241
:1013F00008D08103890F032904D13168890301D5FD
:101400000120F8BD2A69032109040A4022D00840BE
:1014100090421FD0207880061CD528692A6988430D
:101420000121C9040A432A612A698A432A61286181
:10143000C0050FD5FFF714FF009008E0FFF710FF7D
:101440000099411A2648814201D90320F8BD286934
:101450008005F3D561688803800F032805D13268C1
:101460000005824301400A43326028690322616813
:101470001204114008432861002F04D0B16B0120F1
:1014800000078143B1632078800705D5E8680C2107
:101490008843A1680843E8602078400706D5E868DB
:1014A000032189028843E1680843E8602078000747
:1014B00006D5E86803210903884321690843E860E9
:1014C0002078000606D5E86803218904884361690D
:1014D0000843E8600020F8BD401002400070004062
:1014E00088130000F8B50E4605007DD0534800680B
:1014F000C007C00FB0420AD25048016849084900ED
:10150000314301600068C007C00FB04271D1287834
:101510004B4C800705D5E068F0218843A968084353
:10152000E0602878C00752D06868022817D00328E6
:1015300018D02168012818D08905002959DAE168F6
:10154000890889000143E160FFF78AFE6968074660
:10155000022912D003291CD0012926D033E02168AA
:101560008903EAE721688901E7E74907E5E7FFF72B
:1015700077FEC11B3348814223D8E0680007800F03
:101580000228F4D123E0FFF76BFEC11B2D488142F6
:1015900017D8E0680007800F0328F4D117E0FFF7A1
:1015A0005FFEC11B274881420BD8E0680007800F0F
:1015B0000128F4D10BE0FFF753FEC11B2148814203
:1015C00001D90320F8BDE0680007800FF3D11B4864
:1015D0000168C907C90FB1420DD90168490849001E
:1015E00031430160006800E003E0C007C00FB04273
:1015F00001D00120F8BD2878400706D5E068072112
:1016000009028843E9680843E0602878000707D5A5
:10161000E0680721C90288432969C9000843E060DE
:1016200000F03CF8E168084A0906090F515CC8401F
:10163000064908600020FFF773FEF8BD0020024055
:101640000010024088130000883B000818000020AA
:101650000148006870470000180000200448054950
:101660000068C968044A4905490F515CC840704781
:101670001800002000100240A13B00080448054962
:101680000068C968044A8904490F515CC840704722
:101690001800002000100240A13B000810B5184AB5
:1016A000D1680C20084004280BD0082810D00C2842
:1016B00010D050680004410F0120C003491C88402D
:1016C00010BD1068C00601D50E4810BD0E4810BDF3
:1016D0000E4810BD88020E4B000F185C0902D3683B
:1016E000890F491CDB0301D5084A05E01268D206C0
:1016F00001D5044A00E0044A5043FEF7F9FC10BD4E
:101700000010024000093D000024F40000127A009D
:10171000983B0008FEB505007ED0FE4CE7680C2023
:10172000E66807400120000406402878C00747D03B
:10173000082F05D00C2F0AD101200004864206D1C3
:10174000206880033CD568680028E5D038E0012097
:1017500069680004814203D121680143216011E0DE
:10176000052301221B0492049942216802D11143EE
:101770002160F1E7814321602168014000912068E8
:1017800090432060686800280DD0FFF769FD009045
:1017900005E0FFF765FD0099401A64287ED82068AF
:1017A0008003F6D50CE0FFF75BFD009005E0FFF746
:1017B00057FD0099401A6428F0D820688003F6D4B9
:1017C000287880075CD5E868810604D52268202146
:1017D0000A43226088430923042F0DD00C2F01D126
:1017E000002E09D000283BD0216899430143216095
:1017F000FFF736FD064627E02168490701D5002896
:101800008AD061681F22120291432A691202114391
:1018100061602168994300E08EE101432160FFF798
:101820003DFFE16809060A0FBB49895CC840BB4916
:1018300008600020FFF774FD002873D120E0FFF757
:101840000FFD801B0228A9D820684007F7D56068E3
:101850001F210902884329690902084360600FE0DB
:101860002068400840002060FFF7FAFC064604E0CC
:10187000FFF7F6FC801B022890D820684007F7D4B9
:101880002878C00660D5002F0DD0A86900284AD05E
:101890002068FF2101310843206000E0C4E0FFF729
:1018A000DFFC06462CE02068800502D5A8690028E8
:1018B000A6D06068072149038843296A084360600D
:1018C0006068297F0002000A090608436060286AF0
:1018D000410B0120C003491C8840E16809060A0F3A
:1018E0008D49895CC8408D4908600020FFF718FDCC
:1018F000002817D128E0FFF7B3FC801B0228A2D8EC
:1019000020688005F7D56068072149038843296A64
:10191000084360606068297F0002000A09060843E6
:10192000606011E0E1E02168FF2001308143216027
:10193000FFF796FC064604E0FFF792FC801B0228A6
:1019400072D820688005F7D42878754E000724D512
:1019500068690028306910D0012108433061FFF721
:101960007FFC009005E0FFF77BFC0099401A0228FD
:101970005AD830698007F6D50FE040084000306142
:10198000FFF76EFC009005E0FFF76AFC0099401A33
:10199000022849D830698007F6D42878400765D5F1
:1019A00000200290A06BC00006D4A06B01210907A3
:1019B0000843A063012002905A480168C90511D468
:1019C0000168821511430160FFF74AFC009005E0B1
:1019D000FFF746FC0099401A642825D85148006852
:1019E000C005F5D5FF20AA680130824203D13169D4
:1019F0000143316111E001218902002A07D005234A
:101A00001B029A4203D132690A433261EFE732691D
:101A100082433261306988433061A86800280FD062
:101A2000FFF71EFC009007E05EE0FFF719FC00994D
:101A3000411A3D48814257D830698005F5D50DE0FF
:101A4000FFF70EFC009006E0FFF70AFC0099411A30
:101A50003548814248D830698005F5D4029800287D
:101A600004D0A16B012000078143A163686A0028AC
:101A700064D00C2F3ED0012636060228206805D0FF
:101A8000B0432060FFF7ECFB05462FE0B043206039
:101A9000FFF7E6FB074604E0FFF7E2FBC01B022866
:101AA00022D820688001F7D4E96AA86AE26808436E
:101AB000296BFD231B049A4311430843E06020680F
:101AC00030432060FFF7CCFB054604E0FFF7C8FB7E
:101AD000401B022808D820688001F7D52EE0FFF7C8
:101AE000BFFB401B022801D90320FEBD20688001F6
:101AF000F5D423E00128F8D0E06801210904AA6A9E
:101B00000140914218D10F218904EA6A01409142B3
:101B100012D10BE000100240883B000818000020A2
:101B20004010024000700040881300000321890526
:101B30000840296B884201D00120FEBD0020FEBD77
:101B400070470068890050300818006870470068C6
:101B500089005030081802607047000010B502A0DC
:101B600001F082FA10BD000048414C5F52544345D9
:101B7000785F57616B65557054696D657245766520
:101B80006E7443616C6C6261636B0D0A000000004F
:101B900010B504460068C068400509D52046FFF727
:101BA000DDFF2068C16880221140054A8918C160A4
:101BB000012004490005486101202034607010BDF7
:101BC0007FFBFFFF0004014010B502A001F04CFABA
:101BD00010BD000048414C5F5254435F416C61723C
:101BE0006D414576656E7443616C6C6261636B0D2B
:101BF0000A00000070B50446006881688025C904A9
:101C000000290BDAC068C00508D52046FFF7DCFFC5
:101C10002168C8682840FF388238C8602068816819
:101C200089040BD5C068800508D52046FFF788FFDA
:101C30002068C168054A29408918C160012004490B
:101C40004004486101202034607070BD7FFDFFFFBB
:101C50000004014010B500680B464068C021C9432C
:101C600001400002000ECC04D870E40E5C708C06BB
:101C7000A40E0904490F9C701970002A0AD100F0C3
:101C8000CCFDD870587800F0C8FD5870987800F0F6
:101C9000C4FD9870002010BD30B50B460168896AFC
:101CA0005960016809694904490C99600068046831
:101CB0000F482146014088024D04800E18706D0EB9
:101CC00049065D70490E99706102490E4024214019
:101CD000D970002A0AD100F0A0FD1870587800F0E1
:101CE0009CFD5870987800F098FD9870002030BDE9
:101CF0007F7F7F00F8B5040050D0254620356878F6
:101D0000002803D12870204600F052F802206870A5
:101D10002168CA204862216853204862204600F0AA
:101D2000E9FDFF2604270028206802D046626F7074
:101D300034E081681D4A11408160216888686268CA
:101D4000A369104322691A43104388602168E06840
:101D50000861206801692289120411430161206829
:101D6000C16880229143C1602068C16C89088900E4
:101D7000C164E169606901432068C26C1143C164B8
:101D80002068806880060BD4204600F0C7F9002840
:101D900006D0206846626F70002028700120F8BDD0
:101DA00020684662012068700020F8BDBFFF8FFFE9
:101DB00010B50068084988420DD108480169012220
:101DC000920411430161002211460220FFF7D6FA66
:101DD0000220FFF7C9FA10BD002800404010024061
:101DE000FEB506460446203630780B4601283ED024
:101DF000012030700220707018462030009020685A
:101E000000278068002A34D0400600D4DF7019789B
:101E10009D7809040D435978DA78090212041143B8
:101E20000D430099D869097809060D43054358699F
:101E3000996905435868084300902168CA204862A0
:101E4000216853204862FF205A6A01308021824273
:101E500045D122689368834393602068C2680A4032
:101E6000FF3A823AC260FFF7FBF9019024E00220BA
:101E7000FEBD400600D4DF70187800F0D6FC0504E3
:101E8000587800F0D2FC00020543987800F0CDFCB1
:101E90000543D878000405430098007800F0C5FC9D
:101EA00000060543D869C1E7FFF7DAF90199411A3D
:101EB0007D20C00081422AD82068C068C007F3D0C6
:101EC0002068C56121680098486420688168FF2205
:101ED00001321143816020688168120130E020687E
:101EE000826801235B029A4382602068C2680A40CC
:101EF0001D495118C160FFF7B3F901900EE0FFF7DB
:101F0000AFF90199411A7D20C000814206D92168AC
:101F1000FF204862032070703770FEBD2068C068E3
:101F20008007ECD5206805622168009888642068E5
:101F30008168012252021143816020688168120188
:101F40001143816009480268012149040A43026083
:101F500082680A4382602168FF2048620120707015
:101F600037700020FEBD00007FFDFFFF0004014030
:101F7000F8B505460446203528780B4601280FD0D1
:101F80000120287002206870002A0BD0D8789E7833
:101F9000000406435878097800024903084317E013
:101FA0000220F8BD5878C10603D5EF2108400A3059
:101FB0005870D87800F039FC0604587800F035FCE9
:101FC00000020643987800F030FC0643187840037E
:101FD00006432168CA20486221685320486220468F
:101FE00000F088FC0027002811D111480640206825
:101FF00046602068C16880229143C1602068806883
:1020000080060CD4204600F089F8002807D021680B
:10201000FF204862042068702F700120F8BD2168FD
:10202000FF204862012068702F700020F8BD00007A
:102030003FFFFF00F8B506460446203630780D46CF
:10204000012822D001203070022070702068002703
:102050008068002A1BD0400600D4EF702978A87849
:10206000090408436978EA78090212041143084315
:1020700000902168CA2048622168532048622046A7
:1020800000F038FC002837D116E00220F8BD4006E9
:1020900000D4EF70287800F0C8FB0304687800F0E3
:1020A000C4FB00020343A87800F0BFFB0343E878B9
:1020B000000403430093DCE71749009808402168B7
:1020C0000860206881680122920491438160296937
:1020D000E868084321688A68104388602068C168FE
:1020E00080229143C1602068806880060CD420461D
:1020F00000F014F8002807D02168FF20486204206F
:10210000707037700120F8BD2168FF2048620120FF
:10211000707037700020F8BD7F7F7F0070B5044677
:102120000068C168A0229143C160FFF799F87D263D
:102130000546F60006E0FFF793F8401BB04201D9D0
:10214000032070BD2068C0688006F4D5002070BDF3
:1021500070B5040007D0002625464035A662687C8D
:10216000002802D005E0012070BD2E74204600F04A
:102170002BF80220687420680168402291430160B6
:10218000A168606822690843E168114308436169F6
:1021900001220843A169520211400843E169084342
:1021A000216A0843A16A084321680860A0690421E4
:1021B000000C0840616A0843216848606665012098
:1021C0006874002070BD000010B586B0044614216C
:1021D0006846FEF734F810492068884219D10F4844
:1021E000416B821411434163C16A01221143C162F0
:1021F000C06A002110400590E0200090022001906C
:102200000320039002910491052069460007FEF720
:1022100069FF06B010BD0000003001400010024010
:10222000FFB5044683B001200190002026464036C9
:102230000090307C0C9F1D4601280FD00120307487
:10224000FFF70EF80290707C616801280DD0CA1F5C
:10225000FD3A08D1A168002905D102E0022007B0AB
:10226000F0BD042801D00220C3E00498002828D043
:102270000598002825D0002D23D0707C042801D09B
:1022800005207074002060650599A163E587A58726
:1022900004992163E586A58620646064206801684E
:1022A000490603D401684022114301600121E0681E
:1022B000C9028842606848D1002804D0012D02D0AC
:1022C0003CE0012095E0206B21680088C860206B0D
:1022D000801C2063E08E401EE0862FE0206881682D
:1022E000890710D5E18E00290DD0019901290AD165
:1022F000216B0988C160206B801C2063E08E401E2A
:10230000E0860020019020688168C9070DD0E18F28
:1023100000290AD0C068A16B0880A06B801CA06354
:10232000E08F401EE08701200190FEF799FF0146F3
:102330000298081AB84201D3781C59D1E08E0028BF
:10234000CCD1E08F0028C9D146E0002801D0012D72
:102350003CD1206B216800780873206B401C2063FF
:10236000E08E401EE08631E020688168890710D544
:10237000E18E00290DD0019901290AD1216B09783C
:102380000173206B401C2063E08E401EE08600201D
:10239000019020688168C9070DD0E18F00290AD01B
:1023A000C068A16B0870A06B401CA063E08F401E4A
:1023B000E08701200190FEF753FF0299401AB842CE
:1023C00002D3781C02D013E0002F11D0E08E002839
:1023D000CAD1E08F0028C7D139462046029A00F0C2
:1023E0003BFB002807D0012000902020606509E019
:1023F0000320009006E0A068002803D12068C1688F
:10240000806801900120707400203074009826E7E5
:10241000094910B5401E884201D9012010BD074C62
:1024200060610321081F00F0D5F90020A06107209A
:102430002061002010BD0000FFFFFF0000E000E071
:1024400010B5040003D0606F002802D007E001201F
:1024500010BD002170200155204600F027F82420EF
:10246000606720680168490849000160204600F063
:10247000C7FC0128ECD0606A002802D0204600F09A
:1024800029FC206841680922D202914341602068FA
:1024900081682A22914381602068016801221143EA
:1024A0000160204600F07CFC10BD000010B586B035
:1024B000044614216846FDF7C2FE1149206888428F
:1024C0001BD11048816B0122920411438163C16AC0
:1024D00001221143C162C06A6946104005900C2078
:1024E000009002200190002002900320039006201B
:1024F000049005200007FEF7F5FD06B010BD0000B2
:102500000048004000100240FFB50446406F83B011
:1025100017460D4620285CD1002D0AD0002F08D088
:10252000A168C001814207D12069002804D1E807D1
:1025300002D0012007B0F0BD204660300290007C40
:10254000012846D00298012101740020E067212073
:102550006067FEF785FE2646403601903782778217
:102560000120A1680003814202D12069002802D025
:102570002F46002511E000270FE000228021204691
:1025800000F040FD002815D1002F15D021683878C3
:1025900088627F1C708A401E7082708A019B0028AE
:1025A00006980090E9D100224021204600F02AFD43
:1025B000002808D00320BDE728882168C005C00D89
:1025C0008862AD1CE6E7202060670299002008744D
:1025D000B0E70220AEE7FEE71CB500211A480091E3
:1025E000184A01910260C1631205426081600322B2
:1025F0008263012202610246C16020321170FF2312
:102600005170C2334362816211730163816104229C
:1026100041634261C161FEF79DFB002801D0FEF7D6
:10262000D3FA00210848FEF7D0FA0848009080133A
:10263000019069460448FEF73DFB002801D0FEF7F3
:10264000C3FA1CBD00240140300000200200000439
:10265000F0B587B014216846FDF7F1FD2548C26A40
:1026600004210A43C262C26A0A400592C16A012576
:102670002943C162C16A29400591C26A02210A4305
:10268000C262C06A6124084005262401360705900D
:10269000002221463046FEF7DDFD174F00220B21B8
:1026A0003846FEF7D7FD0094002401950294694650
:1026B00030460394FEF716FD0B2000900294694605
:1026C000019503943846FEF70DFD280200900B4853
:1026D0000190694602943046FEF704FD8020009088
:1026E00003200190694602943846FEF7FBFC07B0D0
:1026F000F0BD000000100240000400500000111066
:1027000010B50C480A4901604B21C9014160002104
:102710008160C1600161816101620C22416242619C
:102720004167FFF78DFE002801D0FEF74DFA10BD7E
:1027300000480040080100201CB511491148002440
:1027400012C07F2101608460C4600461FF21446184
:1027500041600838FFF7CEFA002801D0FEF734FABE
:1027600001210848FFF7EDF90749884207D0012207
:102770000094002311460548019400F017F91CBD90
:10278000002800408C000020F2320000E407000026
:1027900010B50E480C490160FF2105314160002150
:1027A0008160C16001614161C16101220162520227
:1027B0004162826181620721C162FFF7C9FC002882
:1027C00001D0FEF701FA10BD00300140B00000203A
:1027D000704700008307FF22DB0E9A408907090E2D
:1027E000994000280BDA0007000F083883080848D2
:1027F0009B001818C36993430B43C3617047830858
:1028000004489B001B1818689043084318607047E1
:1028100000ED00E000E400E0704701090A22000733
:102820005143000F4018C0B270470022014602E039
:102830000A39C9B2521C0A29FAD21007000E0843FD
:102840007047000070B588B0002202A91348FFF756
:1028500023FA002207A91148FFF7FCF96C46A17A78
:10286000607A01910090E07F7D263601237AA27F75
:10287000617F801900F028F80546E07FA37F811969
:10288000627F07A000F0F0FB0095A37A627A217ABC
:1028900007A000F0E9FB08B070BD00008C0000202C
:1028A000646174653A25642D25642D25642000003B
:1028B00025643A25643A25642074696D65737461F2
:1028C0006D703A25640D0A0070B58CB0084E119CED
:1028D00080190094109D491E083B059001950293B4
:1028E000039204916846FDF75DFC0CB070BD0000DA
:1028F00094F8FFFF70B504460068C168490613D418
:102900000021C943C160FEF7ABFC7D260546F600F9
:1029100006E0FEF7A5FC401BB04201D9032070BDC4
:102920002068C0684006F4D5002070BDF8B5174691
:102930000C460646012901D0022C04D1461E0C4645
:102940000C34B6B2E4B264213046FDF7D1FB054643
:1029500064206843361A0D20641C60430521FDF78E
:10296000C7FBE917890F491989106A00891AF217FC
:10297000920F92199210921989184018C019401E8E
:1029800000E0C01D0028FCDB0721FDF7C7FB002984
:1029900000D10721C8B2F8BD10B50348FFF72AF9E6
:1029A0000148FFF7F5F810BD8C000020FFB587B097
:1029B0000F46044614216846FDF741FC00250595A5
:1029C00039462046099AFFF7B1FF064664212046A2
:1029D000FDF78EFB0846FFF728FF04463846FFF751
:1029E00024FF08900998FFF720FF09900A98FFF745
:1029F0001CFF07461098FFF718FF10901198FFF77B
:102A000014FF6A4617701099517090700395012257
:102A100069460F480495FFF70DFB002801D0FEF72B
:102A2000D3F8684606750899417509998175C4758A
:102A3000012205A90648FFF79BFA002801D0FEF7FE
:102A4000C3F8044A01210248FFF781F80BB0F0BD3A
:102A50008C000020F232000038B504464068FF23A5
:102A600005332025984204D100920B460022802194
:102A700007E05120005D05280DD100920B46002291
:102A80000121204600F026F8002804D0606D28437C
:102A90006065032038BD002038BD000010B5012856
:102AA00007D002280FD10A4800290FD001220221A5
:102AB00007E0012305209B020007002904D0012222
:102AC0001946FEF7C7FB10BD0022F9E70022EEE72A
:102AD00000040050F8B51D4617460E46044609E0AE
:102AE000681C07D0FEF7BCFB0699401AA8420BD21F
:102AF000002D09D020688168304688432ED0002000
:102B0000B842EDD10020F8BD20684168E022914331
:102B100041606068C11FFD390CD10121A068C90363
:102B2000884202D04911884204D1206801684022BD
:102B3000914301600120A16A4003814207D12168CD
:102B40000A6882430A6021680A6802430A60012019
:102B500040346074002020740320F8BD0120CFE7CA
:102B60007047000000B58BB0212069460870352001
:102B700048703020887000200190C8700C49059181
:102B80000F2109060390049006910790012008A9DF
:102B9000087000020990012269460648FFF720F9F3
:102BA000002801D0FEF710F800200BB000BD000097
:102BB000008080808C00002010B5FEF795FB064C4D
:102BC0002068401C2060C82805D908210348FEF76A
:102BD0003DFB0020206010BD0000002000040050DC
:102BE00010B598B034216846FDF729FB14210DA8D3
:102BF000FDF725FB182112A8FDF721FB1E480168EF
:102C00000324E402A143C21489180160FEF7BAFB51
:102C10001A480169A143016114200090FF2001308E
:102C20000290012006900024C003089007940994A4
:102C30006846FEF76FFD002801D0FDF7C5FF0F20A5
:102C40000D900E940F941094002111940DA8FEF78E
:102C500049FC002801D0FDF7B7FF24201290012085
:102C600000041390159412A8FEF794FB002801D0DD
:102C7000FDF7AAFF18B010BD0070004040100240E0
:102C800010480168821511430160C1680E4A114065
:102C9000C16001680D4A114001608168490849001E
:102CA000816001680122920491430160C168FD22A4
:102CB00012049143C160002101610549C00388608D
:102CC00070470000001002400C40FF88F6FFF6FE3F
:102CD00000ED00E010B5818CC90707D001684A6893
:102CE00001235B049A43836A1A434A60818C8907F3
:102CF00007D501684A6801231B049A43C36A1A4333
:102D00004A60818C490707D501684A6801239B0402
:102D10009A43036B1A434A60818C090707D50168FF
:102D20004A680123DB039A43436B1A434A60818C50
:102D3000C90607D50268916801231B039943836B79
:102D400019439160818C890607D501688A6801233F
:102D50005B039A43C36B1A438A60818C490612D580
:102D600003685A6801210905046C8A4322435A60AA
:102D7000026C8A4207D10268516803235B059943BC
:102D8000436C19435160818C090607D501684A6874
:102D90000123DB04806C9A4302434A6010BD0000AB
:102DA000F8B500260446C667FEF75AFA05462068BD
:102DB0000068124F000709D501212B460022490562
:102DC0002046009700F01EF900280DD12068006809
:102DD00040070BD501212B4600228905204600978C
:102DE00000F010F9002801D00320F8BD2020606712
:102DF000A067603426740020F8BD0000FFFFFF01CB
:102E0000F8B504462669A268E7693243666910206E
:102E100000253E432368324370491E68704F3E4090
:102E200016431E602268536803263603B343E668E0
:102E3000334353602368A2698B4201D0266A324330
:102E40009E680B273F02BE4316439E60654E236873
:102E5000654AB3420AD1D2680C26324026D0042AF1
:102E600028D0082A24D00C2A10D10EE08B420DD194
:102E7000D66803229202164018D001229202B61A96
:102E800018D0B61A14D0964200D10820564A01260E
:102E9000403A564FF6038B4236D100280CD0022818
:102EA0000DD0042812D008281FD11CE00020EDE727
:102EB0000220EBE70420E9E7FEF7D0FB08E010680A
:102EC000C00601D5384605E0494803E0FEF7E6FBB9
:102ED000002873D0626851005118814205D811034F
:102EE000814202D303E03046F4E7012566E0010E9B
:102EF00006025008002330185941FDF723F9032139
:102F00000902411A3B4A55E0E169B14232D103005E
:102F100000F0D1F809070A0D06250606062B060063
:102F2000E3E7FEF79BFB1CE0FEF7A8FB19E0106847
:102F30006168C00602D548082F4A01E02F4A4808B8
:102F40008018FDF7D5F880B201462D4A103991421C
:102F5000CBD8511C01400007400F08432CE0FEF77E
:102F60009DFB616840004A08EAE761680122480861
:102F70001204E5E7030000F09EF809070A0D062693
:102F80000606062C0600B0E7FEF768FB1DE0FEF71C
:102F900075FB1AE010686168C00602D54808C019C0
:102FA00002E013484A081018FDF7A2F880B2014663
:102FB000134A1039914298D82168C86000202066D1
:102FC00060662846F8BDFEF769FB61684A0880180C
:102FD000EAE7616848088019E6E700000048004019
:102FE000F369FFEF004400404010024000093D003B
:102FF0000024F400FFFC0F0000127A000048E801F2
:10300000EFFF0000FFB581B017460E4604460A9D4B
:1030100009E0681C07D0FEF723F90499401AA8427A
:103020000CD8002D0AD02068C1693046884318D0DA
:103030000020B842EDD0002005B0F0BD2068016846
:10304000FF22A1329143016020688168490849004C
:10305000816020206067A067002060342074032016
:10306000EAE70120E5E700000FB410B503A9044B1F
:10307000044A029800F0F6F810BC08BC04B01847E7
:103080009D390008200000202021020C01D01021D1
:103090001046020A01D010460839020901D0104634
:1030A000091F820801D01046891E420801D0881EDF
:1030B0007047081A704730B47446641E2578641C43
:1030C000AB4200D21D46635D5B00E31830BC18477D
:1030D00002E008C8121F08C1002AFAD170477047E1
:1030E000002001E001C1121F002AFBD1704700003F
:1030F000F0B51FB486B00998089A030D0021024369
:1031000014D05148514A18185043051411980128F9
:1031100010981AD0281A401C00264D4F4D49009691
:1031200001910490002812DA444211E01198012420
:1031300049A3012801D11098C1430698119A8460CF
:103140000360C26041600BB0F0BD4042E4E704465A
:10315000210500203F4A001C51410391029012E0DA
:10316000E00707D032463B4601990098FDF7EAFA9E
:103170000191009032463B4610461946FDF7E2FAAF
:1031800006460F466410002CEAD10498039B0028E1
:10319000029A0999089806DAFDF7D4FA019B009A79
:1031A000FDF7D0FA05E0FDF769F8019B009AFDF7FD
:1031B00065F804460E460022284BFDF74BFB03D86A
:1031C0000020C043014607E00022254B204631463F
:1031D000FDF706FAFDF71EFB102409E0002C0ADBC0
:1031E0000A220023FCF7AEFF079B30321A55641EFB
:1031F00002460A43F2D11122641C079B121B1C19C0
:10320000119B012B03D0012308430ED10AE0084390
:1032100004D0112010900020119077E71098151A13
:103220006D1E0BE01098824202DD00236D1C03E04E
:10323000824201DA00236D1E002BEED00698119910
:103240008260C16030C07EE701FCFFFF104D0000CE
:10325000000014400000F03F300000000000F04388
:103260000000E03FFFB597B00646002518E225288C
:1032700077D100242746FD49049400E00443761CDE
:1032800032780120203A90400842F7D130782A283D
:103290000ED00222307801463039092916D8049917
:1032A0000A235943303940181443761C0490F1E73F
:1032B000189802C804911890002904DA01204003EC
:1032C00004434842049002200443761C30782E28A0
:1032D00014D1042004437078761C2A2809D1189848
:1032E000761C80C8189009E00A214F43303FC71967
:1032F000761C3078014630390929F5D930786C28A8
:1033000010D006DC4C281AD068280ED06A2817D1B5
:1033100004E0742813D07A2812D110E0012040056F
:1033200004430CE00121090501E0032109050C43D8
:103330007178814203D1012000052418761C761C87
:103340003078119066280BD013DC58287DD009DC2A
:1033500000287BD04528F6D04628F4D047281AD13B
:10336000A5E118E0632835D0642870D0652812D113
:103370009DE170286CD008DC6728F1D069287BD0EB
:103380006E280DD06F2806D1BAE073282ED075288C
:1033900071D0782859D01A9A199990476D1C7EE1FE
:1033A0006002400F022809D003280DD00428189885
:1033B00001680DD00D60001D189070E11898EA1793
:1033C00001680D604A60F6E7189801680D80F2E721
:1033D0000D70F0E718986A4601781172001D189078
:1033E0000020507202A80090012005E0189802C841
:1033F000189000200091C04361070DD5002101E025
:103400000199491C0191B94212DA8142F8DB009A14
:10341000515C0029F4D10BE0002101E00199491C25
:1034200001918142FADB019A0099895C0029F5D16A
:10343000019904981A9B471A21463846199A00F0B8
:1034400097FA0199401945180BE04FE02CE113E081
:103450004EE0009800990078491C00911A9A199939
:1034600090470198401E0190401CF2D121463846F9
:103470001A9B199A10E137E00A200021009001916F
:103480006002410F022907D0189A01CA1892C21788
:103490009446032908D00AE01898C01DC108C90045
:1034A00005C91891944607E000B2C2179446042952
:1034B00002D140B2C1178C4600226146944506DA1B
:1034C0000A460021404291418C462D2102E021050F
:1034D00004D52B216A461173012103E0E10701D0D5
:1034E0002021F7E7029155E00A200AE0102008E0C9
:1034F000102000900021042004430191082703E0DC
:1035000008200021019100906002410F022907D09C
:10351000189A01CA189200229446032908D008E09C
:103520001898C01DC108C90005C91891944603E048
:1035300080B2042900D1C0B200210291210729D50F
:103540001199702906D0009A1021019B4A401A4314
:1035500005D00EE040216A461173012108E0614662
:10356000014306D030216A4611731199517302212B
:103570000291009A0821019B4A401A430AD16146F0
:10358000014301D1610705D530216A46117301213C
:103590007F1E02911199582904D035A10E910DA9D1
:1035A0000D910DE037A1F9E76146019B009AFCF708
:1035B000C9FD0E9B8C469B5C0D9A521E0D9213709A
:1035C00061460143F0D10D9805A9081A20300190F9
:1035D000600703D501200004844300E0012701981F
:1035E000874201DD381A00E000200199009041185F
:1035F000029809180498401A0490E00306D4214662
:103600001A9B199A049800F0B3F94519002706E0AF
:1036100003A81A9AC05D199990476D1C7F1C0298E7
:103620008742F5DBE0030CD521461A9B199A0498D2
:1036300000F09EF9451904E01A9A30201999904734
:103640006D1C0099481E00900029F5DC08E00D98DB
:103650000D990078491C0D911A9A199990476D1C83
:103660000199481E01900029F1DC63E1092801005D
:1036700030313233343536373839616263646566E8
:1036800000000000303132333435363738394142AA
:10369000434445460000000000F05AF94519761CE5
:1036A0003078002800D0E2E528461BB0F0BD600766
:1036B00000D406271898C01DC108C90048680A68C8
:1036C0000831C30FDB071891190001D09CA108E055
:1036D000210501D59BA104E0E10701D09AA100E0FA
:1036E0009AA1430011985B08109165280CD006DC64
:1036F000452809D046281DD0472841D141E06628F9
:1037000018D067283CD13CE00021112F01DB1120AB
:1037100000E0781C0191009008A911A8FFF7E8FCCF
:10372000139905910021119A15927F1C1298019707
:10373000009150E00120C00703900120019008A9EA
:10374000009711A8FFF7D4FC139A14990592002250
:10375000119B009212981593059A0192002901D0AD
:10376000104602E0791C40180190381A01D50198E2
:1037700004E04042401E0090781C0190C01B029063
:1037800043E0012F00DA01270021112F01DD112074
:1037900000E038460191009008A911A8FFF7A8FCA5
:1037A00013990591119A0021129815920091019791
:1037B00021070CD40599B94201DB019900E0019180
:1037C000012904DD159A491E515C302906D0B84202
:1037D00001DA011D05DA0121029115E00199491E66
:1037E000EDE7002805DC0099411800910199091ABC
:1037F00003E0019A411C914200DD01910099401AB9
:10380000401C02900120C0070390200706D40299B3
:103810000198814202DB0020C043029000206946EB
:10382000C87707AF012103980337C907884224D01E
:10383000022011902B201290039800280CDA4042AD
:1038400003902D20129007E00A210398FCF750FC0A
:1038500030317F1E039039701199481E1190002954
:10386000F2DC03980028EFD1791E129808703078A6
:10387000202108404530BF1E387006A8C01BC01D5F
:10388000039010980078002800D001200199411879
:103890000298C0170918039809180498401A401E86
:1038A0000490E00306D421461A9B199A049800F06C
:1038B0005FF8451910980078002803D01A9A1999D2
:1038C00090476D1CE00324D521461A9B199A049851
:1038D00000F04EF845191CE00098002807DB00991D
:1038E0000598884203DD1598405C199901E0199903
:1038F00030201A9A904700986D1C401C0090029846
:10390000401E0290002804D11A9A2E20199990473F
:103910006D1C0199481E01900029DDDC05E0387816
:103920001A9A7F1C199990476D1C0399481E0390A1
:103930000029F4DC21461A9B199A0498ACE6000091
:103940002D0000002B0000002000000000000000FF
:10395000F8B5044600251E461746880404D405E041
:1039600039462020B0476D1C641EF9D52846F8BDA5
:10397000FFB50446002581B01E46C80301D5302797
:1039800000E02027880404D505E038460399B047B5
:103990006D1C641EF9D5284605B0F0BD13B5044B67
:1039A000012269460348FEF7AFFD00981CBD0000E8
:1039B000FFFF000008010020F8B50024FDF762F9C0
:1039C0002948FDF761FB284E002530688562284FA5
:1039D0002648386039463046FDF76CF93046FDF729
:1039E00025FB0A213046FDF7C1FA3046FDF7ACF958
:1039F000800503D53046FDF7A9F904462046FCF7BB
:103A0000B5FC02460B461B481B49FCF737FCFCF78C
:103A1000CFFC0090FDF72EF91348FDF735FB306819
:103A200085621648386012490F48FDF743F90E4881
:103A3000FDF7FCFA0A210C48FDF798FA0A48FDF751
:103A400083F9800503D50848FDF780F90446064848
:103A5000FDF71AFB0098FCF797FC02460B4608A0FE
:103A6000FFF702FB2046F8BD3000002000000244B2
:103A700008000020E17A14AE4794B340020000042D
:103A80007664645F76616C75653A25660D0A0000A0
:103A900008B5FDF731FCFDF777F820A0FFF7E4FA51
:103AA000082123A0FFF7E0FAFDF7E0FBFCF7A8FFF1
:103AB0007D252D012846FDF706FB234C00202070B4
:103AC0006070A070E070211DFCF7CEFB214608312C
:103AD0000E460020FCF7C8FB0C2221460020FDF713
:103AE00063F83046FCF7B6FB0646201DFCF7B2FB38
:103AF0000096E178A3780A021A43617823780902D4
:103B00001943034611A0FFF7AFFAFEF79BFEFFF73C
:103B100053FF2846FDF7D7FAF7E7000048617264C3
:103B20007761726520696E6974204F4B210D0A0020
:103B3000466C61736873746F726167652053697A4C
:103B4000653A25640D0A00002400002069643A30BB
:103B50007825782C73763A307825782C64617461F6
:103B6000616D6F756E743A307825782C737461725C
:103B7000745F776F726B5F74696D657374616D707C
:103B80003A307825780D0A0000000000000000009F
:103B90000102030406070809030406080C10182094
:103BA0003000000000010203041F1C1F1E1F1E1F07
:103BB0001F1E1F1E1F1F1D1F1E1F1E1F1F1E1F1E1D
:103BC0001F000000E43B000800000020240000006B
:103BD000D0300008083C00082400002064050000E4
:103BE000E0300008000000000000000000000000BD
:103BF00000000000000000000000000000002000A5
:083C00000000000000000000BC
:04000005080000C12E
:00000001FF
