:020000040800F2
:1000000058060020D5000008C13500085731000807
:1000100000000000000000000000000000000000E0
:10002000000000000000000000000000E53E0008A5
:10003000000000000000000009360008093F000829
:10004000E7000008E7000008D1370008E7000008D3
:10005000E7000008E7000008E7000008E7000008E4
:1000600000000000E7000008E7000008E7000008C3
:10007000E7000008E700000800000000E7000008B3
:100080000000000000000000000000000000000070
:10009000E700000800000000E7000008E700000893
:1000A00000000000E7000008000000000000000061
:1000B000E7000008E7000008000000000000000062
:1000C0000348854600F006FD00480047ED5D000846
:1000D000580600200448804704480047FEE7FEE732
:1000E000FEE7FEE7FEE7FEE7F53F0008C100000877
:1000F00030B50B46014600202022012409E00D46C0
:10010000D5409D4205D31D469540491B2546954047
:1001100040191546521E002DF1DC30BD70B500248B
:100120002546002801DA01244042002901DA012590
:100130004942FFF7DDFFAC4200D04042002C00D026
:10014000494270BDF0B51FB40646002082B0054696
:100150004024019100901BE0019922460F46304651
:1001600000F054FB049A059B801A994110D3104665
:100170001946224600F03AFB361A8F410197224673
:1001800001200021009F00F031FB38184D41009004
:100190002046641E0028DFDC019B00982946324679
:1001A00007B0F0BD38B50446C0681821401E48436A
:1001B000A16840183C214843616840183C214843ED
:1001C0002168451860690C2148432169401869215C
:1001D000C900401A3021FFF7A1FF114A50434219CC
:1001E000084600921A2902DB0E49511800910C2191
:1001F000FFF794FF0C4A5043009A801800900B4878
:1002000006E0491E425C074B5A43009BD2180092FD
:100210000029F6DC2146684600F024FB009838BD32
:10022000801F8607805101008033E101206C0008A7
:1002300003460B439B0703D009E008C9121F08C0FF
:10024000042AFAD203E00B780370401C491C521EAA
:10025000F9D27047D2B201E00270401C491EFBD2B5
:1002600070470022F6E710B513460A4604461946C1
:10027000FFF7F0FF204610BD0321001D401E03784C
:1002800012021A43491EF9D510467047034603224D
:100290000870000A491C521EFAD5184670470246DB
:1002A00070B54A40D30FDB0740002DD04A002AD05A
:1002B000010E140E000212020919400A520A841893
:1002C000E50104465443000A120A2E045043A419BF
:1002D0004219200CC543AA18120C0125AD03521C6B
:1002E000521912047F39240400D0521C104301D447
:1002F0004000491EC2B20C06C0092018401C40082C
:10030000802A02D003E0002070BD40084000002990
:1003100000DA0020184370BD70B502464A40D50F80
:1003200040004A00ED0740085208002814D0002A77
:1003300012D0C40DD30D41020120C0055202490A5A
:10034000520AE41A091812187D34914201D3641C30
:1003500000E04900002C01DA002070BD002391422A
:1003600001D3891A0343400849000028F7D1002926
:100370000AD0914202D10121C90705E0914201D280
:10038000012101E00121C943E005C018401900F036
:10039000A3FA70BDF0B507460846584087B0C00FB5
:1003A000049048000E46590040084908BC1A88418C
:1003B00005D2384631461E4617460B4602465800BF
:1003C000400810434CD0300D039040055900400DBB
:1003D000490D0590401A0290402872DA1803012155
:1003E000000B09050843019004980092002805D0ED
:1003F00001995242002088410092019002984021C8
:100400000A1A0199009800F0F1F905460C466B466E
:1004100007CB00F00CFAC0197141039A0E0D0023AE
:10042000D71756401A467A40164344D0049A002AF9
:100430002DD0029A012A039A15DC1205C01A9141A7
:1004400001263605001C7141D20F059ED20700938C
:10045000019202962A46234600F08CFA07B0F0BDBE
:1004600038463146FAE71605224A0F46B218C01A36
:10047000B74101210905001C4F4100187F41114679
:1004800018187941E20F10436D19644113E0E20737
:100490006D0815436408C2071443039A0126120528
:1004A000C01A91413605001C7141CE074008304307
:1004B0004908C01851412A46234600F04EFACDE7BC
:1004C000FFE7049801224000C117121A00238B4154
:1004D00004983146C417381AA141EEE730B401241C
:1004E000E407634030BC55E730B40124E4076140C1
:1004F00030BC4FE70000E0FFF0B51FB488B00B99A7
:100500000998002448400999C00F490049080991F9
:10051000C0070B990090490049080B910999089868
:10052000A64608431CD00B990A98084318D009988E
:1005300001244000420D4800410D099824050003A4
:10054000000B204309900B980003000B20430B90F5
:1005500050181C494018002201901446104605E02E
:10056000002001460DB0F0BD032801DA034600E08B
:1005700003239C46C11A0AAE0AE05F0008ADED5B9A
:100580004F00F75B7D430027AA187C41491C5B1E86
:100590006145F2DD410004AB5A522104120C0A43BA
:1005A000240C401C0828DFDB01980290009970465B
:1005B00001910090059B049A0799069800F0DAF9DA
:1005C000D0E700000DFCFFFFF0B50C465C4085B0A5
:1005D000E40FE40703944C00002664085900944695
:1005E000490802460296224321D062460A431ED0A1
:1005F0006200570D4A000E032303550D01240246E5
:100600002C492405781B1B0B360B4018234326432B
:10061000614600901C46501AB44103D30098401C18
:10062000009002E0921800985B41002803DA002055
:10063000014605B0F0BD00200121090507468646A8
:1006400011E064461D46141BB54106D36546521B96
:10065000B341744607430C43A646CD0740084908FA
:10066000284392185B4105460D43EAD110461843D2
:1006700013D06046194650407140084306D060468A
:10068000101AB34106D20122002306E00022012302
:10069000DB0702E00122D2435310009874460105A3
:1006A000381C6141029C039D0019694100F055F915
:1006B000BFE70000FD0300000EB5054902910021CF
:1006C00000910A460B46019100F054F903B000BDB9
:1006D00033040000C20F410040020123400ADB0541
:1006E000D207090EC0187F2901DA00207047962929
:1006F00003DC9623591AC84001E096398840002A45
:10070000F4D040427047000070B5CD0F4A00090395
:100710000123090B1B0519430B4BED070024520D58
:100720009A4201DA002070BD074B34339A4203DC51
:100730009A1A00F06BF802E00449511888402C43E3
:10074000F1D0404270BD0000FF030000CDFBFFFF71
:100750004A0009030123090B1B051943094B10B576
:10076000520D9A4201DA002010BD064B34339A42F2
:1007700003DC9A1A00F04AF810BD0349511888406A
:1007800010BD0000FF030000CDFBFFFFC20FD2072A
:10079000400040080BD0C10D0723DB01C9184002FF
:1007A0000905400A1143C208400711437047002061
:1007B00001467047CB0FDB07490010B549080246D8
:1007C0000A4307D00A0D07240903E401090B121B91
:1007D000002A01DC002010BDC900440F0C43C100F9
:1007E000E018D205801800F077F810BD10B5202A67
:1007F00004DB0146203A9140002010BD91402023A7
:100800009C1A0346E3401943904010BD10B5202ABE
:1008100004DB0846203AD040002110BD0B46D340EF
:10082000D0402024A21A91400843194610BD10B5AB
:10083000202A06DBCB170846203A1041C1170B438C
:1008400006E00B461341D0402024A21A91400843F1
:10085000194610BD10B5024900F004F810BD0000A3
:100860002C02002070B50C4600683C21FFF740FCCC
:1008700021603C21FFF73CFC61601821FFF738FC48
:100880000546A1600721001DFFF732FCA1610F485A
:10089000A90008180E49FFF72BFC024644328808CD
:1008A0006261E0613B2802D3910700D0401C002127
:1008B000084B0A462161995C814203D8401A521CB8
:1008C0002261F8E7401CE060204670BD6C0B000020
:1008D000B5050000386C0008002904DA401C490006
:1008E00001D140084000704770B40024050C05D1C8
:1008F0001024000402D1002921D01124050E01D1B9
:1009000000020834050F01D10001241D850F01D11B
:100910008000A41C002801DB4000641C002908D0D2
:1009200020252E1B0D46F540A14000D00121294372
:10093000084301061B1B000ADB1D02D5002070BC0A
:100940007047DB05181880180029F8DA401C4900A8
:10095000F5D170BC40084000704710B5002B08DA94
:100960000024401C614192185B411A4301D14008A8
:10097000400010BDF0B51FB482B005460C0003D096
:10098000084603F03BFD02E003F038FD203002464C
:10099000009021462846FFF729FF049B059A04464C
:1009A0000F4618431143084314D0184610431BD078
:1009B000009840210A1A18460599FFF727FF0546B7
:1009C0000E46009A05990498FFF710FF084305D0DA
:1009D000012004E02046394607B0F0BD0020C117D1
:1009E00005430E432C43374300990E986305401A84
:1009F0007905E40A00220C43FD0A0A3002D50020E2
:100A00000146E9E70105101969410C9C0D9D00198B
:100A10006941FFF7A2FFDFE770B54B005B080343B6
:100A20000BD04B005C0D002633466542B341D41712
:100A3000AD1AA34102DB0020014670BD120530183B
:100A4000514170BD0EB5C217C10F5040CA074018C2
:100A50000021054B0293019200910A460B46FFF7D5
:100A600089FF03B000BD0000330400004A00090301
:100A70000123090B1B0519430A4B10B5520D9A426D
:100A800002DA0020014610BD064B34339A4203DCE3
:100A90009A1AFFF7BBFE10BD034BD218FFF7A6FE54
:100AA00010BD0000FF030000CDFBFFFF10B50029C3
:100AB00004DB0124E40740428C412146002B04DB87
:100AC0001C460123DB075242A341994200D19042C8
:100AD00010BD0000064C0125064E05E0E36807CC7A
:100AE0002B430C3C98471034B442F7D3FFF7ECFA91
:100AF000F06C0008106D0008FEB500231A461B1AA2
:100B00008A4103DB0020014603B0F0BD4A000D031B
:100B100001212D0B0905520D0D43D10702D10018FB
:100B20006D41521E5110FF31FF3101310027044643
:100B30003E463846009701910246012100200905F2
:100B4000FFF764FEC3197141F818324684468E4699
:100B50004A4161462846611A904104D36046241AEE
:100B6000954176461F46241900986D41401C00901F
:100B70003428E1DDF91930467041091BA84103D240
:100B80000022D243134601E00022134601980105DA
:100B9000381C7141FFF7E1FEB6E770B50446006806
:100BA0008168490720D5816810264907002905DAA0
:100BB0008168890702D481683143816000F07AFF3F
:100BC00005460DE000F076FF401B0A2808D9606D4D
:100BD00030436065A06D01210843A065084670BDE3
:100BE000206880684007EDD4002070BD38B5044609
:100BF000064805490068FFF77BFA604300E0401EA5
:100C000000900028FBD138BD40420F003800002082
:100C1000F8B50446006881688907890F012925D144
:100C20000168C90722D081680522114010250126DC
:100C300001290FD1816802221143816021680320BC
:100C4000086000F037FF07460CE000F033FFC01BE0
:100C50000A2807D9606D28436065A06D3043A06500
:100C60000120F8BD20688068C007EED10020F8BDE3
:100C7000F8B50446006881688907890F012902D107
:100C80000168C90722D18168114A10261140012547
:100C900000290ED18168294381600120FFF7A6FF5A
:100CA00000F008FF07460CE000F004FFC01B0A2814
:100CB00007D9606D30436065A06D2843A0650120B1
:100CC000F8BD20680068C043C007EDD10020F8BD22
:100CD00017000080F8B5002501210846009503F0B3
:100CE0009FF802E00A2000F064FD00F0E3FE142803
:100CF000F8D30021012003F093F89F2000F0DCF8E6
:100D0000A52000F0D9F8694608700746A52000F034
:100D1000D3F86946487006460121084603F080F87A
:100D200000F0AAF869468870044601462FA003F037
:100D300055FB1F2F01D00020F8BDF206D20EFF2672
:100D4000D21E0A21013609272E48130003F06DFB3D
:100D500006040C2029353C4B0221017049021AE09F
:100D6000FF21877109313DE00421044601704802EA
:100D7000A08025A003F032FB68468078C00702D02F
:100D8000A57166802FE0FF20A771093060802AE0FE
:100D90000821017049028180E107E1D08571468018
:100DA00021E01022027012020AE00121857149023D
:100DB00018E081712121090114E020220270120241
:100DC0008280E207F5D0F0E740210170C9018180FF
:100DD000E10703D001218571890203E00B218171B4
:100DE0002121490141800120F8BD000041543435E2
:100DF0004442205374617475733A307825780D0A33
:100E000000000000300000204154343544423034AA
:100E1000310D0A0070B50C461549064688798240A6
:100E2000488895B2A04200D2044600F037F800F09E
:100E300055F80021012002F0F3FF0B2000F03CF8F0
:100E4000002000F039F8280A00F036F8E8B200F087
:100E500033F8002000F030F864232246314605487C
:100E600001F044FE0121084602F0DAFF70BD0000E7
:100E7000300000203C01002010B50021012002F0CC
:100E8000CFFFD72000F018F8002000F015F8044636
:100E90000121084602F0C4FF204610BD10B5002114
:100EA000012002F0BDFFAB2000F006F8012108464A
:100EB00002F0B6FF10BD000001B582B00021684607
:100EC000017164200090012301AA02A9024801F0E7
:100ED0005EFF684600790EBD3C01002010B5002180
:100EE000012002F09DFFD720FFF7E6FF0020FFF76B
:100EF000E3FF04460121084602F092FF200603D4D6
:100F0000012000F056FCEAE710BD000070B506466F
:100F100012480D468079824094B2FFF7BFFFFFF779
:100F2000DDFF0021012002F07BFF8220FFF7C4FFDC
:100F30000020FFF7C1FF200AFFF7BEFFE0B2FFF776
:100F4000BBFF64232A463146054801F072FE0121A9
:100F5000084602F065FFFFF7C1FF70BD30000020BA
:100F60003C01002010B503460022104605E01C7825
:100F7000521C201880B2D2B25B1C8A42F7D310BD3B
:100F800010B502F0E5FF02F0A1FA02F051FA02F00A
:100F9000F7FA02F0B3F902F0ABFA02F0C5FA02F088
:100FA000A3FFFFF797FE024800F00EFE10BD000001
:100FB0004800002038B500250222694628460095E1
:100FC00000F0B2F8324800F0FFFD68464278017840
:100FD00030A003F003FA684600783A4C12283ED05D
:100FE0006846407834283AD037A003F0F7F9214614
:100FF0000020FFF74BF9211D0220FFF747F93B487E
:101000002072000A607201208002A072000AE07261
:101010002573280A6073012004F0BEFDA073000A46
:10102000E073002004F0B8FD2074000A60742146CB
:1010300012310120FFF72AF96420A0750020E07525
:1010400018222146102000F07FF812216846017016
:101050003421417002226946002000F075F8182200
:101060001849102000F060F81648FFF705F905460A
:10107000201DFFF701F9E17AA37A0A021A4301461B
:101080002B461BA003F0AAF9014800F09DFD38BDD6
:10109000480000205B4465765F706172616D657425
:1010A00065725F696E69745D66697273745F72758B
:1010B0006E5F666C61673A307825782C30782578D9
:1010C0000D0A0000580000205B4465765F70617275
:1010D000616D657465725F696E69745D435055201A
:1010E00046697273742072756E0D0A003A02000030
:1010F0005B4465765F706172616D657465725F698E
:101100006E69745D69643A307825782C73763A306C
:101110007825782C53616D706C655F636F756E74A4
:101120003A25640D0A000000064BC01803E003785E
:101130000B70401C491C1346521E92B2002BF6D174
:10114000704700000000080870B50E460A491446B2
:10115000451800F071FB06E0327829466D1C00202E
:10116000761C00F03FFB2046641EA4B20028F3D199
:1011700000F02EFB70BD0000000008087047000062
:1011800010B5214A00219069C305204804D5416962
:10119000022319434161911593699B0505D5436964
:1011A0000124234343616302194393695B0505D519
:1011B0004369082423434361E301194393691B05F1
:1011C00005D54369042423434361630219439369AA
:1011D0009B0405D5436910242343436163021943EB
:1011E00093699B0304D5446920231C43446119433C
:1011F0009369DB0305D54369402423434361A0027F
:101200000143916110BD0000002002401402002043
:1012100070B5054600F04EFC0646184C0AE0681C06
:1012200008D0002D04D000F045FC801BA84201D955
:10123000032070BDA069C007F1D1A069800701D566
:101240000220A061A069C00511D4A06980050ED458
:10125000A06940050BD4A069000508D4A0698004EA
:1012600005D4A069800302D4A069C00303D5FFF7A9
:1012700087FF012070BD002070BD000000200240EB
:10128000F8B5054604464035287C0026012808D0DC
:1012900001202874206881688907890F01290ED1EF
:1012A00001E00220F8BD0168C90708D0606D202167
:1012B000084360650126002028743046F8BD616D42
:1012C000FF2201329143022211436165C1688907FF
:1012D000890F0091C16889088900C1602068816810
:1012E00092071143816000F0E5FB07460EE000F035
:1012F000E1FBC01B0A2809D9606D02218843102137
:1013000008436065002028740120F8BD20688068CB
:101310000028ECDB2068C168009A1143C160606D51
:1013200080088000401C6065C5E700000248016A33
:1013300082159143016270470000014070B50A4D6B
:10134000286AA9150843286200F0B4FB044606E0A9
:1013500000F0B0FB001B032801D9012070BD286AF2
:101360004000F5D5002070BD00000140F8B50646EC
:101370000D464036317C01290DD0012131740168C0
:101380008A68520709D5416D20221143416500202A
:1013900030740120F8BD0220F8BD174B6A68D805EB
:1013A00047109A42154C8A6A2B6812D05B035B0B7C
:1013B0001A438A622968490305D5A1680143A160DF
:1013C0000A20FFF713FC2868800312D5A068384371
:1013D0000EE05B035B0B9A438A622968490302D5DE
:1013E000A1688143A1602868800302D5A068B84342
:1013F000A06000203074F8BD0110000000270140FB
:10140000406D70470068006C7047000070B50400C4
:1014100006D0606D264600254036002802D006E042
:10142000012070BDA5653574204600F0EDF8606DB3
:10143000C00603D421688868400705D5606D102177
:10144000084360653574EBE7606DFF22013290431D
:1014500002221043606588688207920F5B48012A68
:1014600002D10A68D2072BD1032362689B079A42F4
:1014700005D05B429A4202D05B009A4209D10A69C8
:10148000920092080A6121680A6963681A430A6136
:101490000CE00A69920092080A6181680F229204A6
:1014A0009143816081686268114381602168CA68E4
:1014B00018239A43CA602168CA68A3681A43CA609D
:1014C000816801225206914381608168A28E520692
:1014D0001143816020688168C90004D481680122B9
:1014E0001207114381602068C168394A1140C16008
:1014F0002069E168022825D00020014320462030E1
:101500000278037B52035B001A431143226B1143A1
:10151000A26992031143E269D20311432268D3689E
:101520001943D160616A0A46FF3AC23A05D0A26AFD
:1015300011432268D3681943D16042780121012AFE
:1015400002D00BE00420D8E70078002823D0606D9B
:10155000202210436065A06D0843A065E06B012860
:1015600020681FD00169C90703D0016949084900F3
:10157000016120684169C908C90041612068416969
:10158000A26B11434161A565606D80088000401C1D
:101590006065002070BD2068C26801231B041A43E7
:1015A000C260DBE70269FF239B009A430261206867
:1015B0000269236CA66C1A43636C33431A430261BD
:1015C000206802690A430261D3E700000027014056
:1015D0001902FEFF10B50068094988420FD1094879
:1015E000426A41150A434262426A8A434262426B3E
:1015F0008A43426305200621000700F037F910BD39
:10160000002401400010024010B586B004461421A9
:101610006846FEF726FE0E492068884216D10D481E
:10162000416B421511434163C16A01221143C162FA
:10163000C06A694610400590022000900320019086
:10164000002002900520000700F07AF906B010BDD6
:101650000024014000100240F8B5044640692546C8
:1016600040350E4608280BD02068C068C00709D056
:10167000606D202108436065002028740120F8BDBA
:10168000082700E00C2700F015FA009011E0701C0C
:101690000FD0002E05D000F00DFA0099401AB0428C
:1016A00007D9606D04210843606500202874032079
:1016B000F8BD206800683842E9D0606D0121490218
:1016C000084360652068C16809058A0F0C21002A5B
:1016D0001BD12022125D002A17D10268120714D5EF
:1016E000826853070122002B08DB43688B43436069
:1016F000606D130298431043606506E0606D20231F
:1017000018436065A06D1043A065A069002801D151
:10171000206801600020F8BD70B5044621680020F3
:101720008968490721D425464035297C01291CD0E8
:1017300001212974E169012904D02046FFF798FAB4
:10174000002811D1616D0A4A1140FF220132114374
:1017500061650021A165297422681C21116021683E
:101760008A6804231A438A6070BD022070BD00009D
:10177000FEF1FFFF70B5054604464035287C012880
:1017800007D001262E742046FFF707FA002802D062
:101790000CE0022070BD2046FFF73AFA002805D180
:1017A000616DFF220132914331436165002129744B
:1017B00070BD70B5044600F07DF90546601C00D090
:1017C000641C00F077F9401BA042FAD370BD000002
:1017D0000348416801221143416000207047000026
:1017E00000200240F8B5124D0746287C14460E46EC
:1017F000012807D0012028740E48FFF709FD0028B2
:1018000002D00CE00220F8BD00216961022F09D04E
:10181000012F09D0002F09D00648FFF7F9FC00215D
:101820002974F8BD3460FAE73480F8E73470F6E7DD
:101830001402002050C3000009494868C0070DD0B9
:10184000EFF3108072B6074ACA60074ACA6080F395
:1018500010884868C00701D00120704700207047F9
:1018600000200240EFCDAB8905040302F0B5002350
:1018700058E001249C4022460A4052D006685F008E
:101880000325BD402E43AC460660DD08AD002D1893
:101890002E6AAE465D07EF0E0F25BD40AE4375467E
:1018A0002E6286686546AE4386604568A5434560FE
:1018B000C4686546AC43C4609D081C4CAD002D193E
:1018C000AF689C07260F0F24B440A4463C40052770
:1018D0003F07B84201D100270FE0154FB84201D1B0
:1018E00001270AE0134FB84201D1022705E0124F49
:1018F000B84201D1052700E00627B740A74210D122
:10190000AE686446A643AE600C4C256895432560DE
:10191000656895436560A5689543A560E56895434E
:10192000E5605B1C0A46DA40A3D1F0BD000001402F
:101930000004005000080050001C0050000401404A
:10194000F8B5002301249DE027469F403A4070D01F
:101950004D68022D01D0122D14D1DD08AD002D18D7
:1019600000952D6A5E07AC46F50E0F26AE46AE40DA
:101970006546B543AC460E697546AE4065462E4396
:10198000009D2E624D68012D05D0022D03D0112D32
:1019900001D0122D16D185680326AC465D00AE46F7
:1019A000AE406546B543AC46CE687546AE4065462A
:1019B0002E43866046680D79BE43ED06ED0F9D40CF
:1019C0003543456006685F000325BD40AE46AE4323
:1019D0000D79B446AE07B60FBE4065462E4306608D
:1019E000C6687546AE438D68BD403543C5604D68D9
:1019F000ED0046D5264D6E6B26436E639E08254D41
:101A0000B6007519AC46AD689E07360F0F27B74074
:101A1000BD4305273F07B84201D1002710E01E4F04
:101A2000B84201D101270BE01C4FB84202D1022776
:101A300006E026E01A4FB84201D1052700E006274C
:101A4000B7402F436546AF60164D2E684F689643EA
:101A5000FF0300D516432E606E684F689643BF03A0
:101A600000D516436E60AE684F689643FF0200D5FE
:101A70001643AE60EE684F689643BF0200D516432A
:101A8000EE605B1C0A681546DD4000D05CE7F8BDDF
:101A90000010024000000140000400500008005007
:101AA000001C005000040140002A01D081617047F1
:101AB0008162704701480068704700003C000020C8
:101AC00010B500F08DFAFEF7F7FD0C4C002223460E
:101AD000FEF77AFD02460B4609A002F07FFC00F0FB
:101AE00059FAFEF7E9FD00222346FEF76DFD024696
:101AF0000B4610A002F072FC10BD000080842E4145
:101B00005B48414C5F4765745F4350555F524343A8
:101B10005F436C6F636B5D48414C5F5243435F535F
:101B20007973436C6F636B467265713A25664D48F5
:101B30007A0D0A005B48414C5F4765745F4350551E
:101B40005F5243435F436C6F636B5D48414C5F5230
:101B500043435F48434C4B467265713A25664D4896
:101B60007A0D0A0070B504000FD021681348086090
:101B700021681348086003CC41602068083C216854
:101B80008860FFF797FF054608E0012070BDFFF76A
:101B900091FF401B302801D9032070BD2068C06828
:101BA0000028F4D120680269E1688A4201D001610D
:101BB00001E004490160002070BD0000CCCC0000B1
:101BC00055550000AAAA00000068024901600020E3
:101BD00070470000AAAA000002480168491C016081
:101BE000704700003C00002010B508480024016840
:101BF000402211430160204600F00AF8002801D07D
:101C0000012401E000F01CF8204610BD0020024035
:101C100070B5054609487D210024C9000068FEF71B
:101C200067FA01F0ADF9002801D0012404E0002298
:101C30002946501E00F01AF8204670BD38000020DA
:101C40000448416B012211434163816B020411433B
:101C50008163704700100240C106C90E0120884010
:101C6000014908607047000000E100E010B501F094
:101C7000A9FC10BD024801680215114301607047BC
:101C8000007000400248016842151143016070472E
:101C900000700040024801688215114301607047DE
:101CA000007000400A4B1A689208920002431A60C2
:101CB00008480369042213430361012906D040BF89
:101CC00020BF20BF016991430161704730BFF9E730
:101CD0000070004000ED00E0F8B5044600784F4D7C
:101CE000800672D54D4E0027403EB06BC00004D434
:101CF000B06BA9050843B063012749480168C905CD
:101D000011D40168821511430160FFF7D3FE0090E2
:101D100005E0FFF7CFFE0099401A642837D8404805
:101D20000068C005F5D532680321090560680A40DE
:101D30000140914208D08103890F032904D1316801
:101D4000890301D50120F8BD2A69032109040A404D
:101D500022D0084090421FD0207880061CD52869E8
:101D60002A6988430121C9040A432A612A698A43EE
:101D70002A612861C0050FD5FFF79CFE009008E09E
:101D8000FFF798FE0099411A2648814201D90320A5
:101D9000F8BD28698005F3D561688803800F0328A2
:101DA00005D132680005824301400A433260286948
:101DB000032261681204114008432861002F04D0F7
:101DC000B16B012000078143B1632078800705D5FE
:101DD000E8680C218843A1680843E8602078400740
:101DE00006D5E868032189028843E1680843E86072
:101DF0002078000706D5E868032109038843216994
:101E00000843E8602078000606D5E86803218904C5
:101E1000884361690843E8600020F8BD4010024033
:101E20000070004088130000F8B50E4605007DD014
:101E300053480068C007C00FB0420AD2504801683A
:101E400049084900314301600068C007C00FB04233
:101E500071D128784B4C800705D5E068F021884384
:101E6000A9680843E0602878C00752D06868022853
:101E700017D0032818D02168012818D08905002917
:101E800059DAE168890889000143E160FFF712FE31
:101E900069680746022912D003291CD0012926D0DF
:101EA00033E021688903EAE721688901E7E7490708
:101EB000E5E7FFF7FFFDC11B3348814223D8E06807
:101EC0000007800F0228F4D123E0FFF7F3FDC11BC8
:101ED0002D48814217D8E0680007800F0328F4D10D
:101EE00017E0FFF7E7FDC11B274881420BD8E068E8
:101EF0000007800F0128F4D10BE0FFF7DBFDC11BC9
:101F00002148814201D90320F8BDE0680007800F15
:101F1000F3D11B480168C907C90FB1420DD9016847
:101F20004908490031430160006800E003E0C00750
:101F3000C00FB04201D00120F8BD2878400706D577
:101F4000E068072109028843E9680843E0602878CF
:101F5000000707D5E0680721C90288432969C9003D
:101F60000843E06000F03CF8E168084A0906090F00
:101F7000515CC840064908600020FFF749FEF8BDE3
:101F8000002002400010024088130000736B00081C
:101F90003800002001480068704700003800002029
:101FA000044805490068C968044A4905490F515C5D
:101FB000C840704738000020001002408C6B0008B9
:101FC000044805490068C968044A8904490F515CFE
:101FD000C840704738000020001002408C6B000899
:101FE00010B5184AD1680C20084004280BD00828E6
:101FF00010D00C2810D050680004410F0120C003FD
:10200000491C884010BD1068C00601D50E4810BD9F
:102010000E4810BD0E4810BD88020E4B000F185C14
:102020000902D368890F491CDB0301D5084A05E082
:102030001268D20601D5044A00E0044A5043FEF774
:1020400057F810BD0010024000093D000024F400C4
:1020500000127A00836B0008FEB505007ED0FE4CAE
:10206000E7680C20E6680740012000040640287855
:10207000C00747D0082F05D00C2F0AD1012000043B
:10208000864206D1206880033CD568680028E5D0E8
:1020900038E0012069680004814203D121680143CE
:1020A000216011E0052301221B049204994221685A
:1020B00002D111432160F1E7814321602168014091
:1020C0000091206890432060686800280DD0FFF7D9
:1020D000F1FC009005E0FFF7EDFC0099401A642840
:1020E0007ED820688003F6D50CE0FFF7E3FC009073
:1020F00005E0FFF7DFFC0099401A6428F0D820685B
:102100008003F6D4287880075CD5E868810604D57A
:10211000226820210A43226088430923042F0DD01E
:102120000C2F01D1002E09D000283BD02168994303
:1021300001432160FFF7BEFC064627E021684907FE
:1021400001D500288AD061681F22120291432A69B2
:102150001202114361602168994300E08EE101435E
:102160002160FFF73DFFE16809060A0FBB49895C62
:10217000C840BB4908600020FFF74AFD002873D122
:1021800020E0FFF797FC801B0228A9D820684007B1
:10219000F7D560681F2109028843296909020843AD
:1021A00060600FE02068400840002060FFF782FC7C
:1021B000064604E0FFF77EFC801B022890D82068CA
:1021C0004007F7D42878C00660D5002F0DD0A86945
:1021D00000284AD02068FF2101310843206000E038
:1021E000C4E0FFF767FC06462CE02068800502D5B6
:1021F000A8690028A6D06068072149038843296A96
:10220000084360606068297F0002000A09060843ED
:102210006060286A410B0120C003491C8840E168C6
:1022200009060A0F8D49895CC8408D490860002065
:10223000FFF7EEFC002817D128E0FFF73BFC801BDE
:102240000228A2D820688005F7D5606807214903D5
:102250008843296A084360606068297F0002000A99
:1022600009060843606011E0E1E02168FF200130C9
:1022700081432160FFF71EFC064604E0FFF71AFCCD
:10228000801B022872D820688005F7D42878754E04
:10229000000724D568690028306910D0012108435F
:1022A0003061FFF707FC009005E0FFF703FC0099A1
:1022B000401A02285AD830698007F6D50FE0400846
:1022C00040003061FFF7F6FB009005E0FFF7F2FBFE
:1022D0000099401A022849D830698007F6D4287836
:1022E000400765D500200290A06BC00006D4A06B0B
:1022F000012109070843A063012002905A480168A0
:10230000C90511D40168821511430160FFF7D2FBA2
:10231000009005E0FFF7CEFB0099401A642825D80D
:1023200051480068C005F5D5FF20AA6801308242F7
:1023300003D131690143316111E001218902002A91
:1023400007D005231B029A4203D132690A43326146
:10235000EFE7326982433261306988433061A868AF
:1023600000280FD0FFF7A6FB009007E05EE0FFF724
:10237000A1FB0099411A3D48814257D83069800538
:10238000F5D50DE0FFF796FB009006E0FFF792FB16
:102390000099411A3548814248D830698005F5D402
:1023A0000298002804D0A16B012000078143A1639B
:1023B000686A002864D00C2F3ED001263606022819
:1023C000206805D0B0432060FFF774FB05462FE07E
:1023D000B0432060FFF76EFB074604E0FFF76AFB9F
:1023E000C01B022822D820688001F7D4E96AA86AB5
:1023F000E2680843296BFD231B049A4311430843F9
:10240000E060206830432060FFF754FB054604E09D
:10241000FFF750FB401B022808D820688001F7D541
:102420002EE0FFF747FB401B022801D90320FEBD29
:1024300020688001F5D423E00128F8D0E06801216C
:102440000904AA6A0140914218D10F218904EA6A5D
:102450000140914212D10BE000100240736B000862
:102460003800002040100240007000408813000037
:10247000032189050840296B884201D00120FEBD57
:102480000020FEBD704700688900503008180068C1
:1024900070470068890050300818026070470000DB
:1024A000F7B5054604462035287882B0012814D0B7
:1024B00001202870022068702168CA2048622168C3
:1024C000532048622068806800264005FF270028C6
:1024D00012DAFFF7EFFA00900AE0022005B0F0BD33
:1024E000FFF7E8FA0099411A7D20C00081421CD80C
:1024F0002068C0684007F3D42068816801229202F6
:10250000914381602068C16880221140204A891867
:10251000C160FFF7CFFA00900DE0FFF7CBFA00990A
:10252000411A7D20C000814205D9206847620320FE
:1025300068702E70D2E72068C0684007EDD521682A
:102540000398486120688168C908C90081602068D3
:102550008168049A114381600E48026801210905CF
:102560000A43026082680A4382602068816801220F
:1025700092031143816020688168121111438160C8
:1025800020684762012068702E700020A6E70000D6
:102590007FFBFFFF000401400149012008707047E4
:1025A0000400002010B504460068C068400509D545
:1025B0002046FFF7F1FF2068C16880221140054ADC
:1025C0008918C160012004490005486101202034B8
:1025D000607010BD7FFBFFFF000401400149012036
:1025E000087070470000002070B5044600688168DC
:1025F0008025C90400290BDAC068C00508D520462B
:10260000FFF7ECFF2168C8682840FF388238C860AF
:102610002068816889040BD5C068800508D52046EC
:10262000FFF730FF2068C168054A29408918C1605A
:10263000012004494004486101202034607070BDCD
:102640007FFDFFFF0004014010B500680B464068A5
:10265000C021C94301400002000ECC04D870E40E32
:102660005C708C06A40E0904490F9C701970002A36
:102670000AD100F0CAFFD870587800F0C6FF587031
:10268000987800F0C2FF9870002010BD30B50B465E
:102690000168896A5960016809694904490C9960AF
:1026A000006804680F482146014088024D04800EEE
:1026B00018706D0E49065D70490E99706102490EE1
:1026C00040242140D970002A0AD100F09EFF1870E2
:1026D000587800F09AFF5870987800F096FF98703C
:1026E000002030BD7F7F7F00F8B5040050D0254624
:1026F00020356878002803D12870204600F052F871
:10270000022068702168CA2048622168532048620C
:10271000204601F00BF8FF2604270028206802D08D
:1027200046626F7034E081681D4A11408160216803
:1027300088686268A369104322691A43104388605D
:102740002168E06808612068016922891204114348
:1027500001612068C16880229143C1602068C16C1A
:1027600089088900C164E169606901432068C26C1D
:102770001143C1642068806880060BD4204600F0B5
:10278000FFF8002806D0206846626F70002028708D
:102790000120F8BD20684662012068700020F8BD65
:1027A000BFFF8FFF10B50068084988420DD1084867
:1027B00001690122920411430161002211460220A5
:1027C000FFF754FA0220FFF747FA10BD0028004037
:1027D00040100240F8B505460446203528780B46DF
:1027E00001280FD00120287002206870002A0BD029
:1027F000D8789E7800040643587809780002490387
:10280000084317E00220F8BD5878C10603D5EF2130
:1028100008400A305870D87800F0FFFE0604587857
:1028200000F0FBFE00020643987800F0F6FE064337
:102830001878400306432168CA2048622168532063
:102840004862204600F072FF0027002811D111488D
:102850000640206846602068C16880229143C160BC
:102860002068806880060CD4204600F089F8002893
:1028700007D02168FF204862042068702F70012073
:10288000F8BD2168FF204862012068702F70002089
:10289000F8BD00003FFFFF00F8B5064604462036AD
:1028A00030780D46012822D001203070022070704F
:1028B000206800278068002A1BD0400600D4EF70F3
:1028C0002978A878090408436978EA78090212048B
:1028D0001143084300902168CA20486221685320B0
:1028E0004862204600F022FF002837D116E002207F
:1028F000F8BD400600D4EF70287800F08EFE030487
:10290000687800F08AFE00020343A87800F085FE94
:102910000343E878000403430093DCE71749009879
:102920000840216808602068816801229204914370
:1029300081602969E868084321688A6810438860D3
:102940002068C16880229143C16020688068800649
:102950000CD4204600F014F8002807D02168FF208E
:1029600048620420707037700120F8BD2168FF2094
:1029700048620120707037700020F8BD7F7F7F00B3
:1029800070B504460068C168A0229143C160FFF79A
:1029900091F87D260546F60006E0FFF78BF8401B10
:1029A000B04201D9032070BD2068C0688006F4D50C
:1029B000002070BD02480169022211430161704785
:1029C00000E000E070B5040012D002212046403043
:1029D0000546417420680168402291430160204609
:1029E00000F044F80021616569742974084670BDDF
:1029F000012070BD70B5040007D000262546403583
:102A0000A662687C002802D005E0012070BD2E740B
:102A1000204600F03FF802206874206801684022D8
:102A200091430160A168606822690843E16811432D
:102A30000843616901220843A16952021140084319
:102A4000E1690843216A0843A16A084321680860D4
:102A5000A0690421000C0840616A084321684860AD
:102A6000666501206874002070BD000010B5006824
:102A70000649884209D10648416B8214914341635B
:102A80000520E0210007FEF7F1FE10BD00300140F7
:102A90000010024010B586B0044614216846FDF7C8
:102AA000E0FB10492068884219D10F48416B82141D
:102AB00011434163C16A01221143C162C06A00210E
:102AC00010400590E0200090022001900320039028
:102AD00002910491052069460007FEF731FF06B018
:102AE00010BD00000030014000100240FFB5044658
:102AF0004068FF21254600260531403581B0174644
:102B0000884202D1A06800280CD0287C012815D06A
:102B100001202874FEF7CEFF0090687C01280FD0BA
:102B200002267EE00420687413460498029A0090FE
:102B30001146204600F02BF905B0F0BD0220FBE75E
:102B4000029800286CD0002F6AD0042068740020FE
:102B500060650299A163A787E7872063A086E08666
:102B6000206460640121A068C903884205D12068FF
:102B700001680122920391430160206801684906BF
:102B800003D40168402211430160E06800281AD094
:102B900037E020688168C90709D0007BA16B087005
:102BA000A06B401CA063E08F401EE0870BE0FEF7A7
:102BB00081FF0099411A0498814202D3401C02D03F
:102BC00035E0002833D0E08F0028E2D11CE02068F7
:102BD0008168C90709D0C068A16B0880A06B801C00
:102BE000A063E08F401EE0870BE0FEF763FF0099D3
:102BF000411A0498814202D3401C02D017E00028F9
:102C000015D0E08F0028E2D12046009A049901F007
:102C1000B7F8002801D020206065606D002800D042
:102C200001260120687400202874304684E70326BA
:102C3000F7E7FFB5054604464035287C002781B0FC
:102C40001646012809D001202874FEF733FF0090B2
:102C5000687C012804D0022793E0022005B0F0BD73
:102C60000298002870D0002E6ED0032068740020D7
:102C7000606502992163A686E686A063A087E08747
:102C8000606420640121A068C903884205D12068DE
:102C9000016801229203114301602068016849061E
:102CA00003D401684022114301600121E068C90298
:102CB0008842606826D1002801D0012E1ED1206BE9
:102CC00021680088C86006E020688168890709D506
:102CD000216B0988C160206B801C2063E08E401E40
:102CE000E0860BE0FEF7E6FE0099411A0498814267
:102CF00002D3401C02D03AE0002838D0E08E0028F1
:102D0000E2D127E0002801D0012E20D1206B2168DC
:102D10000078087306E020688168890709D5216B6F
:102D200009780173206B401C2063E08E401EE08612
:102D30000DE0FEF7BFFE01460098091A0498814293
:102D400003D3401C03D012E01AE000280FD0E08E1D
:102D50000028E0D12046009A049901F03FF80028AD
:102D600001D020206065A068002802D005E003277C
:102D700007E02068C16880680090606D002800D07E
:102D800001270120687400202874384666E7FFB5E3
:102D9000044683B001200190002026464036009072
:102DA000307C0C9F1D4601280FD001203074FEF7A7
:102DB00081FE0290707C616801280DD0CA1FFD3A27
:102DC00008D1A168002905D102E0022007B0F0BDBA
:102DD000042801D00220C3E00498002828D00598D8
:102DE000002825D0002D23D0707C042801D0052098
:102DF0007074002060650599A163E587A587049933
:102E00002163E586A5862064606420680168490620
:102E100003D401684022114301600121E068C90226
:102E20008842606848D1002804D0012D02D03CE0DF
:102E3000012095E0206B21680088C860206B801C11
:102E40002063E08E401EE0862FE0206881688907BD
:102E500010D5E18E00290DD0019901290AD1216BED
:102E60000988C160206B801C2063E08E401EE086D4
:102E70000020019020688168C9070DD0E18F0029EA
:102E80000AD0C068A16B0880A06B801CA063E08F93
:102E9000401EE08701200190FEF70CFE01460298DB
:102EA000081AB84201D3781C59D1E08E0028CCD141
:102EB000E08F0028C9D146E0002801D0012D3CD187
:102EC000206B216800780873206B401C2063E08E23
:102ED000401EE08631E020688168890710D5E18EC8
:102EE00000290DD0019901290AD1216B09780173BC
:102EF000206B401C2063E08E401EE0860020019085
:102F000020688168C9070DD0E18F00290AD0C06808
:102F1000A16B0870A06B401CA063E08F401EE0878F
:102F200001200190FEF7C6FD0299401AB84202D373
:102F3000781C02D013E0002F11D0E08E0028CAD1F7
:102F4000E08F0028C7D139462046029A00F046FF9C
:102F5000002807D0012000902020606509E00320B0
:102F6000009006E0A068002803D12068C16880684E
:102F700001900120707400203074009826E7000052
:102F8000094910B5401E884201D9012010BD074CE7
:102F900060610321081F00F015FB0020A0610720DD
:102FA0002061002010BD0000FFFFFF0000E000E0F6
:102FB00002480169022291430161704700E000E08C
:102FC00010B5040003D0606F002802D007E0012094
:102FD00010BD002170200155204600F027F8242064
:102FE000606720680168490849000160204601F0D7
:102FF000C1F80128ECD0606A002802D0204601F018
:1030000023F8206841680922D20291434160206878
:1030100081682A229143816020680168012211435E
:103020000160204601F076F810BD000010B586B0B2
:10303000044614216846FDF714F9114920688842B6
:103040001BD11048816B0122920411438163C16A34
:1030500001221143C162C06A6946104005900C20EC
:10306000009002200190002002900320039006208F
:10307000049005200007FEF763FC06B010BD0000B9
:103080000048004000100240FFB50446406F83B086
:1030900017460D4620285CD1002D0AD0002F08D0FD
:1030A000A168C001814207D12069002804D1E80746
:1030B00002D0012007B0F0BD204660300290007CB5
:1030C000012846D00298012101740020E0672120E8
:1030D0006067FEF7EFFC2646403601903782778224
:1030E0000120A1680003814202D12069002802D09A
:1030F0002F46002511E000270FE000228021204606
:1031000001F03AF9002815D1002F15D02168387840
:1031100088627F1C708A401E7082708A019B002822
:1031200006980090E9D100224021204601F024F9C0
:10313000002808D00320BDE728882168C005C00DFD
:103140008862AD1CE6E720206067029900200874C1
:10315000B0E70220AEE7FEE7F0B59BB000242646BC
:10316000402103A8FDF77DF84C4F40227D784C4963
:1031700003A8FDF75DF800203870787040214848BA
:10318000FDF76FF803AF05E0B95D46A001F026F941
:10319000761CF6B2AE42F7D343A001F01FF96846A1
:1031A000808940BA17906846807B189005A8023045
:1031B000FDF762F800BA010A6846407E0902014341
:1031C000199179190091E91FC9B2781DFDF7CAFE5E
:1031D00007466846467C35491798884201D0022048
:1031E00004431898202801D0042004433048FDF7F8
:1031F00043F801461998814201D008200443701E0B
:10320000042801D3202004430120012E04D0022EE3
:1032100005D0032E06D008E0182D05D105E0162DA7
:1032200002D102E0102D00D0044300982038C27F64
:10323000817F20A001F0D2F800970196029517A98E
:103240000EC9294801F0CAF8002C06D0214627A053
:1032500001F0C4F801201BB0F0BD2748FEF7B4FC14
:103260006846407C01280AD002280DD0032810D0DF
:103270000428F0D1294603A801F0CEFFEBE7294648
:1032800003A801F015FFE6E7294603A801F0A0FE18
:10329000E1E7294603A802F055FBDCE72000002007
:1032A00079000020257820000D0A0000AA550000B2
:1032B0005C000020646174615F6275665B72785FB8
:1032C0006C656E2D325D3A307825782C64617461BE
:1032D0005F6275665B72785F6C656E2D315D3A304A
:1032E0007825782C0D0A0000906C00086572723AFF
:1032F00025640D0A00000000480000201CB50021D4
:103300001A480091184A01910260C1631205426097
:10331000816003228263012202610246C160203281
:103320001170FF235170C2334362816211730163D4
:103330008161042241634261C161FEF767F80028A0
:1033400001D0FDF71BFF00210848FDF799FF084851
:1033500000908013019069460448FEF707F80028A2
:1033600001D0FDF70BFF1CBD00240140BC00002074
:1033700002000004F0B52B4C87B0E16A0120014344
:10338000E162E16A01400591E16A02263143E162AE
:10339000E16A31400591E16A04273943E162E16A5B
:1033A0000190394005918102002500910520029588
:1033B00069460007FEF7C4FA2D2000010090112095
:1033C00001900520694602950007FEF7B9FA05202D
:1033D000012210210007FEF767FB012205205102A0
:1033E0000007FEF761FB10480090032001900520C4
:1033F000694602950007FEF7A3FAC9200090032052
:103400000190694602950948FEF79AFAE06A400879
:103410004000E062E06AB043E062E06AB843E06224
:1034200007B0F0BD001002402F81000000040050E2
:10343000F0B587B014216846FCF713FF2148C26A33
:1034400004210A43C262C26A0A400592C16A012588
:103450002943C162C16A29400591C26A02210A4317
:10346000C262C06A05260840612136070590002225
:1034700009013046FEF718FB134F00220B21384696
:10348000FEF712FB412000010024009002946946DF
:10349000019503943046FEF753FA6802009011201C
:1034A00001900294694603943046FEF749FA83205E
:1034B000009002946946019503943846FEF740FA5D
:1034C00007B0F0BD001002400004005010B50648DF
:1034D00004490160052141600449C1608160FEF733
:1034E00041FB10BD0030004048000020FF0F0000ED
:1034F00010B50C480A4901604B21C9014160002107
:103500008160C1600161816101620C22416242619E
:103510004167FFF755FD002801D0FDF72FFE10BDD4
:1035200000480040940100201CB5114911480024B6
:1035300012C07F2101608460C4600461FF21446186
:1035400041600838FFF7D0F8002801D0FDF716FEDB
:1035500001210848FEF797FF0749884207D001225A
:103560000094002311460548019400F03BF91CBD6E
:103570000028004018010020F2320000E40700009B
:1035800010B50E480C490160FF2105314160002152
:103590008160C16001614161C16101220162520229
:1035A0004162826181620721C162FFF723FA00282C
:1035B00001D0FDF7E3FD10BD003001403C010020CB
:1035C000704700008307FF22DB0E9A408907090E2F
:1035D000994000280BDA0007000F083883080848D4
:1035E0009B001818C36993430B43C361704783085A
:1035F00004489B001B1818689043084318607047E4
:1036000000ED00E000E400E0704701090A22000735
:103610005143000F4018C0B270470022014602E03B
:103620000A39C9B2521C0A29FAD21007000E0843FF
:1036300070470000F0B589B00646002202A9144880
:10364000FFF724F8002207A91148FEF7FDFF6C469A
:10365000A17A607A01910090E07F7D273F01237A73
:10366000A27F617FC01900F033F830600546E07F2B
:10367000A37FC119627F07A000F0B0FE0095A37A76
:10368000627A217A0CA000F0A9FE09B0F0BD00001A
:10369000180100205B5254435F43616C656E6461A6
:1036A0007253686F775D646174653A25642D256493
:1036B0002D2564200000000025643A25643A256425
:1036C0002074696D657374616D703A25640D0A002C
:1036D00070B58CB00B4E119C80190094109D491E42
:1036E000059001950293039204916846FCF75AFDF8
:1036F000E121C901441A214603A000F06FFE2046D3
:103700000CB070BD94F8FFFF5B5254435F4461748A
:103710006554696D655F546F5F54696D657374615D
:103720006D705D3A25640D0A0000000070B5044616
:103730000068C168490613D40021C943C160FEF77F
:10374000B9F97D260546F60006E0FEF7B3F9401B01
:10375000B04201D9032070BD2068C0684006F4D58E
:10376000002070BDF8B517460C460646012901D069
:10377000022C04D1461E0C460C34B6B2E4B26421CD
:103780003046FCF7B5FC054664206843361A0D2028
:10379000641C60430521FCF7ABFCE917890F49194C
:1037A00089106A00891AF217920F921992109219D1
:1037B00089184018C019401E00E0C01D0028FCDB1D
:1037C0000721FCF7ABFC002900D10721C8B2F8BDE6
:1037D00010B50348FEF708FF0148FEF7E3FE10BDF1
:1037E00018010020FFB587B00F4604461421684633
:1037F000FCF737FD0025059539462046099AFFF765
:10380000B1FF064664212046FCF772FC0846FFF72C
:1038100004FF04463846FFF700FF08900998FFF7B9
:10382000FCFE09900A98FFF7F8FE07461098FFF78C
:10383000F4FE10901198FFF7F0FE6A461770109989
:10384000517090700395012269460F480495FFF767
:1038500023F8002801D0FDF791FC68460675089909
:10386000417509998175C475012205A90648FEF7BD
:10387000B1FF002801D0FDF781FC044A0121024874
:10388000FEF707FE0BB0F0BD18010020F232000079
:1038900073B584B00C46E1210498C9014018049026
:1038A00004A8FCF7D7FF0C4A41698A1862610369D2
:1038B0005B1C2361C168E1608568A560466866603D
:1038C000006820600390684662C004A0049900F07C
:1038D00085FD06B070BD00006C07000054696D6581
:1038E0007374616D705F546F5F4461746554696D8A
:1038F000652D74696D657374616D703A25642C640F
:103900006174653A25642D25642D25642025643A6B
:1039100025643A25640D0A0008B50021009134227F
:1039200069460A7048700221684600F011FA08BD25
:10393000FEB50024009401940294099E089D13276B
:103940006C4627706070A170E27023716571A6717A
:103950000A98E0710821684600F0FAF908216846E3
:1039600000F0DAF8FEBD0000FEB500202B4E07E0A7
:10397000401C85B27019214600F0EAF9281980B27E
:10398000345C002CF4D10021254800F057F90920BF
:103990000021400200F052F921480121C01C00F032
:1039A0004DF91F482A21801C00F048F91C480021CD
:1039B000001D00F043F91A480021C01D00F03EF937
:1039C00017480121083000F039F915480021093065
:1039D00000F034F9124800210A3000F02FF91048A5
:1039E00000210B3000F02AF90D4820210C3000F0A6
:1039F00025F90B4800210D3000F020F9084800217E
:103A00000E3000F01BF9002000900190602361222D
:103A100001460290FFF78CFFFEBD0000086A000817
:103A20000612000008B5002000903321684601709E
:103A3000012100F08DF90321684600F06DF8684619
:103A400040780007000F08BD1CB500F081F80C4855
:103A500000F02BF8FFF788FF7F2000F0E7F8062042
:103A6000FFF75AFFFFF7DEFF0628FBD100200321F6
:103A70000191034602460090014600F0F1F81CBD9A
:103A800080C3C90138B50446002120206A46009150
:103A9000107051709170D1700421684600F058F98F
:103AA0000921204600F038F838BD1CB500220092EC
:103AB0000223694601920B7001234B708A70020E3B
:103AC000CA70020C0A71020A4A718871072168469D
:103AD00000F03EF91CBD70B5054600F01BF9002151
:103AE000022000F09DF9772001F0E4FFFF2001F0B3
:103AF000E1FF0446264604E0FF2001F0DBFF2870CA
:103B00006D1C2046641EE4B20028F5D1012102207C
:103B100000F086F9304670BD70B50D46044600F0E1
:103B2000F9F80021022000F07BF9442001F0C2FFE7
:103B300004E0FF2001F0BEFF2070641C28466D1ECB
:103B4000EDB20028F5D10121022000F069F970BD25
:103B500010B5094C012211462046FDF7A5FF0120B2
:103B6000FDF727FE002201212046FDF79DFF0121E0
:103B7000022000F055F910BD0004005008B50020E7
:103B800000901521684601700221417000F0E0F8B4
:103B900008BD08B50020009015216846017002217B
:103BA000417000F0D5F808BDFFB587B000260C467F
:103BB000054603960496FFF7ECFF0021022000F073
:103BC0002FF9662001F076FF601CC7B2204601E0A5
:103BD00028786D1C01F06EFF2046641EE4B20028B8
:103BE000F6D10121022000F01BF931216846017352
:103BF000099941730A998173C6730774052103A853
:103C000000F0A6F8009601964024029605E068466A
:103C1000FFF738FF0220FDF7CCFD684600798006EB
:103C200001D4641EF3D20BB0F0BD000010B5014604
:103C3000014800F003F810BD012200001CB500226D
:103C40000092019211236A461370030A53700123F4
:103C50009370D07011710521684600F079F81CBD91
:103C6000FEB5074600201D4614460E460090019002
:103C7000FFF784FFFFF78DFF322168460170477020
:103C80008670210AC1700471457108998171099982
:103C9000C171082100F05CF8FEBD00007CB514463F
:103CA0000D46002802D001280ED02DE0601E4028CD
:103CB00001D301207CBD00231A4621462846FFF788
:103CC00073FFFFF7C1FE1FE01048FFF7DBFE0F4850
:103CD000C078C00618D52846FFF7FDFE002803D09F
:103CE0000B4901220A7048700620FFF715FEFFF706
:103CF00099FE0628FBD100200321019103460246CC
:103D000000900146FFF7ACFF00207CBD7000002052
:103D10002000002070B500247D26F600002102203E
:103D200000F07EF8442001F0C5FEFF2001F0C2FE45
:103D300005460121022000F073F82046641CA4B25D
:103D4000B04202D1FFF780FE70BDFF2DE6D170BDFD
:103D500070B50D460446FFF7DDFF0021022000F09C
:103D60005FF803E0207801F0A5FE641C28466D1E74
:103D7000EDB20028F6D10121022000F051F870BD0B
:103D8000F8B504464368FF26012005368002B34299
:103D90000AD1A3684501AB4201D0834204D1236814
:103DA0001D684027BD431D6063682025B34210D1C4
:103DB000A36883420DD000920B460022802120464A
:103DC00000F04AF8002803D0606D284360650320A6
:103DD000F8BD00920B4600220121F0E738B50446F9
:103DE0004068FF2305332025984204D100920B46FA
:103DF0000022802107E05120005D05280DD10092AE
:103E00000B4600220121204600F026F8002804D0AD
:103E1000606D28436065032038BD002038BD000078
:103E200010B5012807D002280FD10A4800290FD069
:103E30000122022107E0012305209B02000700293F
:103E400004D001221946FDF72FFE10BD0022F9E72C
:103E50000022EEE700040050F8B51D4617460E4656
:103E6000044609E0681C07D0FDF724FE0699401AB5
:103E7000A8420BD2002D09D02068816830468843C3
:103E80002ED00020B842EDD10020F8BD2068416856
:103E9000E022914341606068C11FFD390CD10121CE
:103EA000A068C903884202D04911884204D1206821
:103EB00001684022914301600120A16A40038142D0
:103EC00007D121680A6882430A6021680A680243B0
:103ED0000A60012040346074002020740320F8BD83
:103EE0000120CFE77047000010B50521002209032B
:103EF0000448FEF7D5FA002801D0FDF73FF900206D
:103F000010BD00001801002010B5FDF765FE0E4C35
:103F10000E482168491C21600268002A02D002680C
:103F2000521E0260052000074B2908D0642905D3E2
:103F300001221021FDF7B8FD0020206010BD0022F5
:103F40001021FDF7B1FD10BD14000020100000206D
:103F500010B598B034216846FCF783F914210DA8F8
:103F6000FCF77FF9182112A8FCF77BF91F480168BC
:103F70000324E402A143C21489180160FDF78AFEFC
:103F80001B480169A143016114200090FF2001300A
:103F90000290012006900520002440030890079419
:103FA00009946846FEF758F8002801D0FDF7E6F8B6
:103FB0000F200D900E940F941094002111940DA8D1
:103FC000FDF732FF002801D0FDF7D8F82420129029
:103FD000012000041390159412A8FDF77DFE00281F
:103FE00001D0FDF7CBF818B010BD00000070004004
:103FF0004010024010480168821511430160C168F9
:104000000E4A1140C16001680D4A1140016081688B
:1040100049084900816001680122920491430160CE
:10402000C168FD2212049143C1600021016105496C
:10403000C003886070470000001002400C40FF88F9
:10404000F6FFF6FE00ED00E010B5818CC90707D041
:1040500001684A6801235B049A43836A1A434A60F1
:10406000818C890707D501684A6801231B049A439C
:10407000C36A1A434A60818C490707D501684A68B8
:1040800001239B049A43036B1A434A60818C0907FE
:1040900007D501684A680123DB039A43436B1A433F
:1040A0004A60818CC90607D50268916801231B0309
:1040B0009943836B19439160818C890607D5016808
:1040C0008A6801235B039A43C36B1A438A60818C1D
:1040D000490612D503685A6801210905046C8A4310
:1040E00022435A60026C8A4207D102685168032356
:1040F0005B059943436C19435160818C090607D5D0
:1041000001684A680123DB04806C9A4302434A60D9
:1041100010BD0000F8B500260446C667FDF7CAFCCE
:10412000054620680068124F000709D501212B467B
:10413000002249052046009700F01EF900280DD105
:104140002068006840070BD501212B460022890515
:104150002046009700F010F9002801D00320F8BD98
:1041600020206067A067603426740020F8BD00003E
:10417000FFFFFF01F8B504462669A268E7693243EC
:104180006669102000253E432368324370491E684B
:10419000704F3E4016431E60226853680326360364
:1041A000B343E668334353602368A2698B4201D06E
:1041B000266A32439E680B273F02BE4316439E6029
:1041C000654E2368654AB3420AD1D2680C26324054
:1041D00026D0042A28D0082A24D00C2A10D10EE098
:1041E0008B420DD1D66803229202164018D00122CC
:1041F0009202B61A18D0B61A14D0964200D10820EE
:10420000564A0126403A564FF6038B4236D10028D3
:104210000CD002280DD0042812D008281FD11CE091
:104220000020EDE70220EBE70420E9E7FDF7B8FE08
:1042300008E01068C00601D5384605E0494803E0AB
:10424000FDF7CEFE002873D06268510051188142FC
:1042500005D81103814202D303E03046F4E701257B
:1042600066E0010E06025008002330185941FBF7A2
:1042700069FF03210902411A3B4A55E0E169B14255
:1042800032D1030000F0D1F809070A0D0625060611
:10429000062B0600E3E7FDF783FE1CE0FDF790FE2A
:1042A00019E010686168C00602D548082F4A01E08D
:1042B0002F4A48088018FBF71BFF80B201462D4AA1
:1042C00010399142CBD8511C01400007400F0843E0
:1042D0002CE0FDF785FE616840004A08EAE7616866
:1042E000012248081204E5E7030000F09EF80907E0
:1042F0000A0D06260606062C0600B0E7FDF750FE5E
:104300001DE0FDF75DFE1AE010686168C00602D589
:104310004808C01902E013484A081018FBF7E8FEE5
:1043200080B20146134A1039914298D82168C8607A
:104330000020206660662846F8BDFDF751FE6168E2
:104340004A088018EAE7616848088019E6E7000033
:1043500000480040F369FFEF004400404010024075
:1043600000093D000024F400FFFC0F0000127A0059
:104370000048E801EFFF0000FFB581B017460E4688
:1043800004460A9D09E0681C07D0FDF793FB0499D9
:10439000401AA8420CD8002D0AD02068C1693046C6
:1043A000884318D00020B842EDD0002005B0F0BD01
:1043B00020680168FF22A132914301602068816872
:1043C00049084900816020206067A06700206034B0
:1043D00020740320EAE70120E5E700000FB410B5E0
:1043E00003A9044B044A029800F092F910BC08BCDF
:1043F00004B018477D5B0008400000202021020C1B
:1044000001D010211046020A01D0104608390209D5
:1044100001D01046091F820801D01046891E4208AB
:1044200001D0881E7047081A704730B47446641E65
:104430002578641CAB4200D21D46635D5B00E31827
:1044400030BC18474900CA020243100000D00420C3
:104450004A0D01D001221043044A490D914201D175
:1044600002210843012800D105207047FF07000002
:10447000F8B504464F1EC8000838211815461E46D8
:10448000086849683A4606239A4310D02A463346BC
:10449000FCF732F83A46D200083AA3181A687F1E91
:1044A0005B68FBF777FF06223B469343EED1022F72
:1044B00023D0042F11D0062F2FD12A463346FCF7E4
:1044C0001BF8E36AA26AFBF765FF2A463346FCF74E
:1044D00013F8636A226AFBF75DFF2A463346FCF74E
:1044E0000BF8E369A269FBF755FF2A463346FCF750
:1044F00003F863692269FBF74DFF2A463346FBF751
:10450000FBFFE368A268FBF745FF2A463346FBF74B
:10451000F3FF63682268FBF73DFFF8BD002210B58A
:10452000134610460149FCF74FF810BD0000F03F5C
:1045300010B5FBF72FFF10BD002210B51346104633
:104540001146FCF741F810BD10B50721024A0020C2
:104550000907FCF761FA10BD01030000034A10B51A
:1045600000201107FCF758FA10BD000001FDFFFF05
:1045700002E008C8121F08C1002AFAD1704770472C
:10458000002001E001C1121F002AFBD1704700008A
:10459000014908607047000044000020F0B51FB4D6
:1045A00086B00998089A030D0021024314D051489F
:1045B000514A1818504305141198012810981AD020
:1045C000281A401C00264D4F4D4900960191049039
:1045D000002812DA444211E01198012449A301286D
:1045E00001D11098C1430698119A84600360C2609B
:1045F00041600BB0F0BD4042E4E7044621050020D5
:104600003F4A001C51410391029012E0E00707D09D
:1046100032463B4601990098FBF76EFF01910090EE
:1046200032463B4610461946FBF766FF06460F46E4
:104630006410002CEAD10498039B0028029A09997F
:10464000089806DAFBF758FF019B009AFBF754FF26
:1046500005E0FBF7B9FF019B009AFBF7B5FF0446A5
:104660000E460022284BFCF721FA03D80020C04355
:10467000014607E00022254B20463146FBF78AFE23
:10468000FCF7F4F9102409E0002C0ADB0A220023CD
:10469000FBF758FD079B30321A55641E02460A4349
:1046A000F2D11122641C079B121B1C19119B012BB8
:1046B00003D0012308430ED10AE0084304D011209F
:1046C00010900020119077E71098151A6D1E0BE0DE
:1046D0001098824202DD00236D1C03E0824201DA61
:1046E00000236D1E002BEED0069811998260C160E8
:1046F00030C07EE701FCFFFF104D000000001440B9
:104700000000F03F300000000000F0430000E03FF8
:10471000FFB597B00646002518E2252877D100247A
:104720002746FD49049400E00443761C32780120BA
:10473000203A90400842F7D130782A280ED0022241
:10474000307801463039092916D804990A2359438B
:10475000303940181443761C0490F1E7189802C8C9
:1047600004911890002904DA0120400304434842D0
:10477000049002200443761C30782E2814D10420A3
:1047800004437078761C2A2809D11898761C80C8B2
:10479000189009E00A214F43303FC719761C307842
:1047A000014630390929F5D930786C2810D006DC5B
:1047B0004C281AD068280ED06A2817D104E0742833
:1047C00013D07A2812D110E00120400504430CE0F8
:1047D0000121090501E0032109050C43717881429B
:1047E00003D1012000052418761C761C3078119026
:1047F00066280BD013DC58287DD009DC00287BD03C
:104800004528F6D04628F4D047281AD1A5E118E06B
:10481000632835D0642870D0652812D19DE17028B6
:104820006CD008DC6728F1D069287BD06E280DD0C9
:104830006F2806D1BAE073282ED0752871D0782859
:1048400059D01A9A199990476D1C7EE16002400F69
:10485000022809D003280DD00428189801680DD02B
:104860000D60001D189070E11898EA1701680D603E
:104870004A60F6E7189801680D80F2E70D70F0E7DE
:1048800018986A4601781172001D18900020507225
:1048900002A80090012005E0189802C81890002096
:1048A0000091C04361070DD5002101E00199491C29
:1048B0000191B94212DA8142F8DB009A515C002979
:1048C000F4D10BE0002101E00199491C01918142E2
:1048D000FADB019A0099895C0029F5D101990498C5
:1048E0001A9B471A21463846199A00F097FA0199FF
:1048F000401945180BE04FE02CE113E04EE0009822
:1049000000990078491C00911A9A199990470198CA
:10491000401E0190401CF2D1214638461A9B199A3C
:1049200010E137E00A200021009001916002410F60
:10493000022907D0189A01CA1892C217944603296F
:1049400008D00AE01898C01DC108C90005C918910F
:10495000944607E000B2C2179446042902D140B23F
:10496000C1178C4600226146944506DA0A460021AA
:10497000404291418C462D2102E0210504D52B2196
:104980006A461173012103E0E10701D02021F7E716
:10499000029155E00A200AE0102008E01020009063
:1049A0000021042004430191082703E0082000218E
:1049B000019100906002410F022907D0189A01CAA4
:1049C000189200229446032908D008E01898C01DC8
:1049D000C108C90005C91891944603E080B20429B2
:1049E00000D1C0B200210291210729D51199702967
:1049F00006D0009A1021019B4A401A4305D00EE0D0
:104A000040216A461173012108E06146014306D046
:104A100030216A4611731199517302210291009A53
:104A20000821019B4A401A430AD16146014301D142
:104A3000610705D530216A46117301217F1E02915D
:104A40001199582904D035A10E910DA90D910DE0B1
:104A500037A1F9E76146019B009AFBF773FB0E9BB8
:104A60008C469B5C0D9A521E0D9213706146014359
:104A7000F0D10D9805A9081A20300190600703D5E0
:104A800001200004844300E001270198874201DDF2
:104A9000381A00E000200199009041180298091886
:104AA0000498401A0490E00306D421461A9B199AF0
:104AB000049800F0B3F94519002706E003A81A9AF4
:104AC000C05D199990476D1C7F1C02988742F5DBE9
:104AD000E0030CD521461A9B199A049800F09EF920
:104AE000451904E01A9A3020199990476D1C0099D5
:104AF000481E00900029F5DC08E00D980D9900781B
:104B0000491C0D911A9A199990476D1C0199481EDC
:104B100001900029F1DC63E10928010030313233D2
:104B200034353637383961626364656600000000E9
:104B300030313233343536373839414243444546D3
:104B40000000000000F05AF94519761C3078002862
:104B500000D0E2E528461BB0F0BD600700D4062770
:104B60001898C01DC108C90048680A680831C30FF9
:104B7000DB071891190001D09CA108E0210501D59F
:104B80009BA104E0E10701D09AA100E09AA14300B3
:104B900011985B08109165280CD006DC452809D0D7
:104BA00046281DD0472841D141E0662818D0672803
:104BB0003CD13CE00021112F01DB112000E0781CEA
:104BC0000191009008A911A8FFF7E8FC139905913D
:104BD0000021119A15927F1C12980197009150E0C4
:104BE0000120C00703900120019008A9009711A897
:104BF000FFF7D4FC139A149905920022119B00929E
:104C000012981593059A0192002901D0104602E0EE
:104C1000791C40180190381A01D5019804E04042EF
:104C2000401E0090781C0190C01B029043E0012FB1
:104C300000DA01270021112F01DD112000E03846A4
:104C40000191009008A911A8FFF7A8FC13990591FC
:104C5000119A0021129815920091019721070CD406
:104C60000599B94201DB019900E00191012904DDB8
:104C7000159A491E515C302906D0B84201DA011D4F
:104C800005DA0121029115E00199491EEDE700289E
:104C900005DC0099411800910199091A03E0019A75
:104CA000411C914200DD01910099401A401C029084
:104CB0000120C0070390200706D402990198814281
:104CC00002DB0020C043029000206946C87707AF8E
:104CD000012103980337C907884224D0022011908C
:104CE0002B201290039800280CDA404203902D20CC
:104CF000129007E00A210398FBF7FAF930317F1E82
:104D0000039039701199481E11900029F2DC039824
:104D10000028EFD1791E12980870307820210840C1
:104D20004530BF1E387006A8C01BC01D03901098E8
:104D30000078002800D00120019941180298C0177E
:104D40000918039809180498401A401E0490E003BB
:104D500006D421461A9B199A049800F05FF8451969
:104D600010980078002803D01A9A199990476D1C62
:104D7000E00324D521461A9B199A049800F04EF8B6
:104D800045191CE00098002807DB00990598884227
:104D900003DD1598405C199901E0199930201A9AA1
:104DA000904700986D1C401C00900298401E029095
:104DB000002804D11A9A2E20199990476D1C019948
:104DC000481E01900029DDDC05E038781A9A7F1C26
:104DD000199990476D1C0399481E03900029F4DC33
:104DE00021461A9B199A0498ACE600002D00000099
:104DF0002B0000002000000000000000F8B5044671
:104E000000251E461746880404D405E039462020B4
:104E1000B0476D1C641EF9D52846F8BDFFB50446A1
:104E2000002581B01E46C80301D5302700E02027A9
:104E3000880404D505E038460399B0476D1C641E0C
:104E4000F9D5284605B0F0BD10B504480021017021
:104E5000417040210248FBF704FA10BD20000020F9
:104E600079000020F0B593B00F4606464021684611
:104E7000FBF7F7F900252C4605E0715D2DA0FFF743
:104E8000ADFA6D1CEDB2BD42F7D32BA0FFF7A6FA29
:104E9000707831780002084340BA1290B0781190CF
:104EA000304675790A30FBF7E7F900BA000A717BE2
:104EB000000208431090F81FC1B2701DFCF752F8B1
:104EC0001E491298884201D00220044311982028DC
:104ED00001D0042004431A48FBF7CEF9014610988C
:104EE000814201D008200443681F022801D32020FA
:104EF0000443294613A0FFF771FA0120052D02D0C3
:104F0000062D03D005E0112F02D102E0102F00D0B2
:104F10000443002C06D0214610A0FFF75FFA0120C1
:104F200013B0F0BD052D03D0062DF9D12846F7E7C3
:104F3000B07BF5E7257820000D0A0000AA55000097
:104F40005C000020496E737472756374696F6E5FE4
:104F5000636F64653A25640D0A0000006572723A59
:104F600025640D0A0000000010B590B004464021F1
:104F70006846FBF776F9552069460870AA20487004
:104F8000802088700020C8700920087102204871B4
:104F9000A07A8871E07AC871207B0872607B4872C1
:104FA000A0798872E079C872207A0873607A4873B1
:104FB00001A809210130FBF7D5FF020A69468A736F
:104FC000C87310220020FEF769FE10B010BD00006B
:104FD00010B592B00446402101A8FBF742F92046E3
:104FE0000E30FBF749F900BA010A607C090201435F
:104FF0001191E07CA27C0002104340BA6A46108006
:10500000274A891E914203D226493238884202D368
:10501000012012B010BD042211A92220FCF794F83F
:10502000022269462620FCF78FF81F491198FBF7EA
:105030002DF9694608881C4912398875000AC87517
:105040001A48FCF7C1FD552069460871AA2048712D
:10505000A0208871E078401CC871092008720220E5
:105060004872A07A8872E07AC872207B0873607BED
:105070004873A0798873E079C873207A0874607ADD
:10508000487402A809210130FBF76CFF020A694647
:105090008A74C874102201A90020FEF7FFFDB8E74A
:1050A000BF210000571300006A00002048000020C4
:1050B00070B59EB0044613AD0026402102A8FBF750
:1050C000D0F820460E30FBF7D7F800BA000A617C12
:1050D0000002084337491290884204D3364900221F
:1050E000081AB24102DA01201EB070BD55206A468E
:1050F0001072AA205072A0209072E0780921401C02
:10510000D0720920107301205073A07A9073E07A56
:10511000D073207B1074607B5074A0799074E07918
:10512000D074207A1075607A507503A80130FBF7AF
:1051300019FF010A6A469175D075102202A9002054
:10514000FEF7ACFD1DA01299FFF748F92946129809
:10515000FEF79EFB22A01899FFF740F928A01799A7
:10516000FFF73CF927A01699FFF738F926A0159903
:10517000FFF734F924A01499FFF730F923A013990D
:10518000FFF72CF913981499C0B201901598C9B281
:10519000C3B216980091C2B21798C1B2189880B2E3
:1051A000FEF720FB12A8FEF745FA1A48FCF70CFDA3
:1051B0009AE7000000D36C387F057A965B646576C9
:1051C0005F54696D65536572766963655D74696D79
:1051D000657374616D703A307825780D0A000000AF
:1051E0005B6465765F54696D655365727669636566
:1051F0005D746D5F796561723A25642D0000000071
:1052000025642D002564200025643A0025640D0ADC
:105210000000000048000020F0B5E1B00446402145
:1052200002A8FBF71EF8FF2109311FA8FBF719F8A8
:1052300000201590552168460172AA214172A021D3
:105240008172E178491CC172092101730421417303
:10525000A17A8173E17AC173217B0174617B41740E
:10526000A1798174E179C174217A0175617A4175FE
:1052700009210D30FBF776FE0146020A6846827569
:10528000C175102202A90020FEF708FDFC48FCF7BA
:105290009BFCFC48FAF7F0FF01007DD0481E420954
:1052A000521C92B21392C206D20EC008401C149235
:1052B00080B213460090F4A0139AFFF78FF80120F4
:1052C00016900AA8179016985DE20246FF21093150
:1052D0001FA8FBF79FFDEA48FCF776FC1399169888
:1052E00088427DD000201290552168460172AA2183
:1052F0004172802181720021C1723221017301212A
:105300004173A17A8173E17AC173217B0174617B5E
:105310004174A1798174E179C174217A0175617A4E
:105320004175159981751298002680011A901A9975
:10533000F00009181FA80F18B9787A7808021043EE
:1053400040BAFBF7B9F90022DE4BFBF7D5F8002293
:10535000DD4BFBF739F90022DC4BFBF71BF8FBF7C1
:10536000F7F9B100721802A95518E873F878287493
:10537000397969747979A974B979E974FF2800D108
:10538000E873D3A0FFF72AF8E97CA87C019100908C
:105390006B7C2A7CE97B00E095E0CEA0FFF71EF84D
:1053A000761CB6B2072EC2D903A832210130FBF712
:1053B000D9FD05460146CEA0FFF710F8290A08A836
:1053C000C17710A80570CE4D0F20FCF7F2F920220E
:1053D00002A90020FEF762FC0F20FCF7EAF900E0CA
:1053E00072E0192200201799FEF758FC0F20FCF7F5
:1053F000E0F9A348FCF7E8FBC24F0022C2490120B4
:10540000FEF74CFC9E48FCF7DFFB287800280CD008
:10541000BEA0FEF7E3FF6978BB48FFF723FD060057
:105420000BD0012E1BD0062E20D00220FCF7C1F994
:10543000002F48D07F1EBFB2DFE70146B6A0FEF7BF
:10544000CDFF1598401CC0B21590FFF7FDFC1298D7
:10545000401C80B21290042800D245E78FE101463B
:10546000B1A0FEF7BBFFFFF7EFFCADE7B24F31464F
:10547000B2A0FEF7B3FF6978A348FFF775FDFFF709
:10548000E3FC3C461AE000229F490120FEF706FC9F
:105490007B48FCF799FB287800280AD069789A485D
:1054A000FFF7E0FC0646FFF7CFFC012EDFD0002E11
:1054B000BFD00220FCF77DF9002CBAD02046641E34
:1054C000A4B20028DFD198E1002012901498C008FF
:1054D0001890401C1E904DE1552168460172AA218A
:1054E0004172802181720021C17232210173012138
:1054F0004173A17A8173E17AC173217B0174617B6D
:105500004174A1798174E179C174217A0175617A5C
:105510004175159981755A48FCF756FB129800267B
:1055200080011D90F10041181FA80F18B8787978F4
:105530000002084340BAFBF7BFF80022614BFAF7BC
:10554000DBFF0022604BFBF73FF800225F4BFAF7CE
:1055500021FFFBF7FDF80146B000321802A815182C
:10556000E973F8782874397969747979A974B97903
:10557000E974FF2800D1E87355A0FEF72FFFE97CFE
:10558000A87C009001916B7C2A7CE97B51A0FEF7FE
:1055900025FF761CB6B2072E01D81D98C2E702AED1
:1055A0003221701DFBF7DEFC0546014650A0FEF7D8
:1055B00015FF280A08A9C87710A90D700025715D8C
:1055C00062A0FEF70BFF6D1CADB2392DF7D340A0E2
:1055D000FEF704FF4A4D0F20FCF7EBF8202202A94A
:1055E0000020FEF75BFB0F20FCF7E3F819220020F8
:1055F0001799FEF753FB0F20FCF7DBF82048FCF768
:10560000E3FA404F002240490120FEF747FB1C48C7
:10561000FCF7DAFA287800280CD03CA0FEF7DEFE72
:1056200069783948FFF71EFC06000BD0012E23D005
:10563000062E22D00220FCF7BCF8002F1ED07F1EC1
:10564000BFB2DFE7014634A0FEF7C8FE1598189AEE
:10565000401CC0B215903EA0521C1299FEF7BEFE2F
:105660001299189888427FD1254841782648FFF73B
:105670007BFC002061B0F0BD8AE090E0BDE073E00B
:105680004800002058000020646174615F636F75FA
:105690006E743A25642C706167655F636F756E7414
:1056A0003A25642C696E5F706167655F6E756D3A4F
:1056B00025642C73656E645F6E756D3A25640D0A02
:1056C000000000000000F83F0000594000003E408C
:1056D0000D0A000030782578203078257820307841
:1056E0002578203078257820307825780D0A00003C
:1056F000636865636B73756D3A307825780D0A00C1
:1057000020000020B70B0000790000207278207282
:1057100065706C790D0A000072782061636B2D2D25
:105720002D25640D0A0000007278206E61636B2DD8
:105730002D2D25640D0A0000881300007278206367
:10574000616E2D2D2D25640D0A00000025782000A6
:105750006A3D25642C696E5F706167655F6E756D6B
:105760002F382B313D256400FFF76EFB1298401C4B
:1057700080B212901E991298814200D9ACE6169818
:10578000401C80B216901399884200D89DE571E7BD
:1057900001461B48FEF722FEFFF756FB1BE7194F99
:1057A000174831461430FEF719FE69781648FFF79E
:1057B000DBFBFFF749FB3C461AE0002212490120BF
:1057C000FEF76CFA1148FCF7FFF9287800280AD098
:1057D00069780D48FFF746FB0646FFF735FB012EBB
:1057E000DED0002E09D00220FBF7E3FF002C04D00E
:1057F0002046641EA4B20028DFD101203AE7000051
:105800002857000888130000790000204800002075
:10581000F0B5C3B0FF21093101A8FAF722FD00203D
:1058200000906846FDF706FF012000F0B5F9054637
:105830002EA00099FEF7D2FD374C2320207027467A
:105840007D70280AB870E11C0098FAF71FFD072147
:105850002046FBF787FBE0713048FAF70DFD2F4932
:10586000401CFAF713FD2EA0FEF7B8FD04222B49C9
:105870001020FBF769FC2948FAF7FEFC0146401EA0
:105880004209C506521C96B2ED0E2B4632462C48F4
:10589000FEF7A4FDFF213246093101A8FBF7BAFA51
:1058A000EA0001A920788854B8787B7800060014B3
:1058B0001843030A55186B70A870E01CFAF7DCFC5B
:1058C000010EE970010C2971010A6971A871E07972
:1058D000E8717D200001864205D2FF213246093160
:1058E00001A8FBF713FB43B0F0BD00006465765FD1
:1058F000646174615F73616D706C655F616E645F3C
:1059000073746F726167652D74696D657374616D11
:10591000703A25640D0A000018000020580000208D
:1059200057726974652073616D705F636F756E7413
:1059300020746F20656570726F6D210D0A00000084
:10594000446C0008F0B593B0044640216846FAF76D
:1059500088FC0020119011A8FDF76CFE474EF07DE9
:10596000B17D000208431090002000F015F90546B3
:10597000707B317B07020F43F07AB17A06020E4347
:105980003F48FCF721F90F20FBF713FF552168462C
:105990000170AA214170A0218170E178491CC17079
:1059A0000921017103214171A17A8171E17AC171EB
:1059B000217B0172617B4172A1798172E179C172AF
:1059C000217A0173617A41730921401DFBF7CAFAFC
:1059D0000146020A68468273C1731022694600209C
:1059E000FEF75CF92648FCF7EFF855216846017090
:1059F000AA214170802181700021C170152101719F
:105A000003214171A17A8171E17AC171217B017217
:105A1000617B4172A1798172E179C172217A01734E
:105A2000617A417311996C460A0E82730A0CC27333
:105A30000A0A027441741098010A68468174109829
:105A4000E074280A20756575380AA075E775300A74
:105A5000207666761521601DFBF784FA020AC3B230
:105A6000A2760146E37607A0FEF7B8FC1C22694641
:105A70000020FEF713F913B0F0BD0000580000201D
:105A800048000020636865636B73756D3A30782554
:105A9000782C53495F61636B5B32365D3A30782511
:105AA000782C53495F61636B5B32375D3A30782500
:105AB000780D0A0001B582B00021684601710548E1
:105AC0000090012301AA02A90348FDF760F9684686
:105AD00000790EBDFFFF00003C01002010B51AA0A8
