:020000040800F2
:10000000B8050020D50000082D330008873000080F
:1000100000000000000000000000000000000000E0
:10002000000000000000000000000000193A000875
:10003000000000000000000075330008853A000849
:10004000E7000008E7000008F5340008E7000008B2
:10005000E7000008E7000008E7000008E7000008E4
:1000600000000000E7000008E7000008E7000008C3
:10007000E7000008E700000800000000E7000008B3
:100080000000000000000000000000000000000070
:10009000E700000800000000E7000008E700000893
:1000A00000000000E7000008000000000000000061
:1000B000E7000008E7000008000000000000000062
:1000C0000348854600F0A4FC00480047AD4C0008FA
:1000D000B80500200448804704480047FEE7FEE7D3
:1000E000FEE7FEE7FEE7FEE7653B0008C10000080B
:1000F00030B50B46014600202022012409E00D46C0
:10010000D5409D4205D31D469540491B2546954047
:1001100040191546521E002DF1DC30BD70B500248B
:100120002546002801DA01244042002901DA012590
:100130004942FFF7DDFFAC4200D04042002C00D026
:10014000494270BDF0B51FB40646002082B0054696
:100150004024019100901BE0019922460F46304651
:1001600000F0FAFA049A059B801A994110D31046C0
:100170001946224600F0E0FA361A8F4101972246CE
:1001800001200021009F00F0D7FA38184D4100905F
:100190002046641E0028DFDC019B00982946324679
:1001A00007B0F0BD38B50446C0681821401E48436A
:1001B000A16840183C214843616840183C214843ED
:1001C0002168451860690C2148432169401869215C
:1001D000C900401A3021FFF7A1FF114A50434219CC
:1001E000084600921A2902DB0E49511800910C2191
:1001F000FFF794FF0C4A5043009A801800900B4878
:1002000006E0491E425C074B5A43009BD2180092FD
:100210000029F6DC2146684600F0C2FA009838BD95
:10022000801F8607805101008033E101E05A0008F9
:10023000D2B201E00270401C491EFBD2704700227E
:10024000F6E710B513460A4604461946FFF7F0FFD5
:10025000204610BD0321001D401E037812021A43E0
:10026000491EF9D510467047034603220870000A5C
:10027000491C521EFAD518467047024670B54A40CE
:10028000D30FDB0740002DD04A002AD0010E140EF8
:10029000000212020919400A520A8418E5010446B4
:1002A0005443000A120A2E045043A4194219200C88
:1002B000C543AA18120C0125AD03521C5219120491
:1002C0007F39240400D0521C104301D44000491E41
:1002D000C2B20C06C0092018401C4008802A02D077
:1002E00003E0002070BD40084000002900DA002033
:1002F000184370BD70B502464A40D50F40004A0011
:10030000ED0740085208002814D0002A12D0C40D6E
:10031000D30D41020120C0055202490A520AE41AD3
:10032000091812187D34914201D3641C00E0490081
:10033000002C01DA002070BD0023914201D3891AFC
:100340000343400849000028F7D100290AD0914210
:1003500002D10121C90705E0914201D2012101E04A
:100360000121C943E005C018401900F053FA70BDDF
:10037000F0B507460846584087B0C00F04904800C3
:100380000E46590040084908BC1A884105D2384633
:1003900031461E4617460B46024658004008104399
:1003A0004CD0300D039040055900400D490D05908B
:1003B000401A0290402872DA18030121000B090547
:1003C0000843019004980092002805D001995242F8
:1003D0000020884100920190029840210A1A019958
:1003E000009800F0A9F905460C466B4607CB00F0D3
:1003F000C4F9C0197141039A0E0D0023D717564056
:100400001A467A40164344D0049A002A2DD0029A04
:10041000012A039A15DC1205C01A914101263605FE
:10042000001C7141D20F059ED207009301920296E3
:100430002A46234600F03CFA07B0F0BD3846314664
:10044000FAE71605224A0F46B218C01AB741012131
:100450000905001C4F4100187F41114618187941C9
:10046000E20F10436D19644113E0E2076D08154374
:100470006408C2071443039A01261205C01A914169
:100480003605001C7141CE07400830434908C018AA
:1004900051412A46234600F0FEF9CDE7FFE70498D4
:1004A00001224000C117121A00238B4104983146E3
:1004B000C417381AA141EEE730B40124E4076340C1
:1004C00030BC55E730B40124E407614030BC4FE74D
:1004D0000000E0FFF0B51FB488B00B990998002424
:1004E00048400999C00F490049080991C0070B9974
:1004F0000090490049080B9109990898A6460843BD
:100500001CD00B990A98084318D009980124400080
:10051000420D4800410D099824050003000B2043BB
:1005200009900B980003000B20430B9050181C49B6
:100530004018002201901446104605E000200146B4
:100540000DB0F0BD032801DA034600E003239C460A
:10055000C11A0AAE0AE05F0008ADED5B4F00F75B21
:100560007D430027AA187C41491C5B1E6145F2DDD2
:10057000410004AB5A522104120C0A43240C401CC3
:100580000828DFDB019802900099704601910090E5
:10059000059B049A0799069800F08AF9D0E70000B5
:1005A0000DFCFFFFF0B50C465C4085B0E40FE4079E
:1005B00003944C00002664085900944649080246FA
:1005C0000296224321D062460A431ED06200570D94
:1005D0004A000E032303550D012402462C4924052D
:1005E000781B1B0B360B40182343264361460090B3
:1005F0001C46501AB44103D30098401C009002E0FE
:10060000921800985B41002803DA0020014605B0EB
:10061000F0BD0020012109050746864611E0644629
:100620001D46141BB54106D36546521BB3417446A3
:1006300007430C43A646CD074008490828439218B3
:100640005B4105460D43EAD11046184313D060467E
:10065000194650407140084306D06046101AB34115
:1006600006D20122002306E000220123DB0702E07C
:100670000122D2435310009874460105381C614191
:10068000029C039D0019694100F005F9BFE70000D5
:10069000FD0300000EB505490291002100910A46B4
:1006A0000B46019100F004F903B000BD33040000D3
:1006B000410040020122400AD205090E80187F291C
:1006C00001DA00207047962903DC9622511AC840AF
:1006D0007047963988407047C20FD20740004008E3
:1006E0000BD0C10D0723DB01C91840020905400AE0
:1006F0001143C2084007114370470020014670476C
:10070000CB0FDB07490010B5490802460A4307D062
:100710000A0D07240903E401090B121B002A01DC5E
:10072000002010BDC900440F0C43C100E018D205E1
:10073000801800F06FF810BD10B5202A04DB0146C8
:10074000203A9140002010BD914020239C1A03467E
:10075000E3401943904010BD10B5202A04DB084641
:10076000203AD040002110BD0B46D340D040202479
:10077000A21A91400843194610BD10B5202A06DB85
:10078000CB170846203A1041C1170B4306E00B4631
:100790001341D0402024A21A91400843194610BDAD
:1007A00070B50C4600683C21FFF7A2FC21603C219B
:1007B000FFF79EFC61601821FFF79AFC0546A160D7
:1007C0000721001DFFF794FCA1610F48A90008183C
:1007D0000E49FFF78DFC0246443288086261E061F1
:1007E0003B2802D3910700D0401C0021084B0A4649
:1007F0002161995C814203D8401A521C2261F8E7BA
:10080000401CE060204670BD6C0B0000B505000088
:10081000F85A0008002904DA401C490001D14008B8
:100820004000704770B40024050C05D1102400046A
:1008300002D1002921D01124050E01D10002083473
:10084000050F01D10001241D850F01D18000A41CDA
:10085000002801DB4000641C002908D020252E1B45
:100860000D46F540A14000D001212943084301066F
:100870001B1B000ADB1D02D5002070BC7047DB0586
:10088000181880180029F8DA401C4900F5D170BC0E
:1008900040084000704710B5002B08DA0024401CC7
:1008A000614192185B411A4301D14008400010BDDC
:1008B000F0B51FB482B005460C0003D0084603F023
:1008C00055FB02E003F052FB203002460090214627
:1008D0002846FFF731FF049B059A04460F4618434C
:1008E0001143084314D0184610431BD000984021F0
:1008F0000A1A18460599FFF72FFF05460E46009A7B
:1009000005990498FFF718FF084305D0012004E07B
:100910002046394607B0F0BD0020C11705430E43FD
:100920002C43374300990E986305401A7905E40A71
:1009300000220C43FD0A0A3002D500200146E9E7F7
:100940000105101969410C9C0D9D00196941FFF7C3
:10095000A2FFDFE770B54B005B0803430BD04B00F1
:100960005C0D002633466542B341D417AD1AA3414E
:1009700002DB0020014670BD12053018514170BDE8
:100980000EB5C217C10F5040CA0740180021054BD1
:100990000293019200910A460B46FFF789FF03B0CC
:1009A00000BD0000330400004A0009030123090BC5
:1009B0001B0519430A4B10B5520D9A4202DA00206A
:1009C000014610BD064B34339A4203DC9A1AFFF7F6
:1009D000C3FE10BD034BD218FFF7AEFE10BD0000E2
:1009E000FF030000CDFBFFFF10B5002904DB01244D
:1009F000E40740428C412146002B04DB1C460123C6
:100A0000DB075242A341994200D1904210BD000041
:100A1000064C0125064E05E0E36807CC2B430C3C51
:100A200098471034B442F7D3FFF74EFB045B00083D
:100A3000245B0008FEB500231A461B1A8A4103DB1B
:100A40000020014603B0F0BD4A000D0301212D0B2B
:100A50000905520D0D43D10702D100186D41521EF8
:100A60005110FF31FF310131002704463E46384620
:100A7000009701910246012100200905FFF76CFE55
:100A8000C3197141F818324684468E464A41614680
:100A90002846611A904104D36046241A954176464F
:100AA0001F46241900986D41401C00903428E1DD58
:100AB000F91930467041091BA84103D20022D243E4
:100AC000134601E00022134601980105381C7141CC
:100AD000FFF7E1FEB6E770B5044600688168490794
:100AE00020D5816810264907002905DA8168890721
:100AF00002D481683143816000F0FAFE05460DE0C2
:100B000000F0F6FE401B0A2808D9606D304360658E
:100B1000A06D01210843A065084670BD206880686B
:100B20004007EDD4002070BD38B50446064805499D
:100B30000068FFF7DDFA604300E0401E00900028E7
:100B4000FBD138BD40420F0020000020F8B504461C
:100B5000006881688907890F012925D10168C907C3
:100B600022D08168052211401025012601290FD1CC
:100B7000816802221143816021680320086000F02F
:100B8000B7FE07460CE000F0B3FEC01B0A2807D9E9
:100B9000606D28436065A06D3043A0650120F8BDFD
:100BA00020688068C007EED10020F8BDF8B5044683
:100BB000006881688907890F012902D10168C90786
:100BC00022D18168114A10261140012500290ED139
:100BD0008168294381600120FFF7A6FF00F088FEAD
:100BE00007460CE000F084FEC01B0A2807D9606DA0
:100BF00030436065A06D2843A0650120F8BD2068E2
:100C00000068C043C007EDD10020F8BD1700008088
:100C100070B5FFB0FF2485B0093421466846FFF760
:100C20000EFB214642A8FFF70AFB002042A9085408
:100C3000401C80B2FF28FAD301222646214642A852
:100C400000F04EF90222314642A800F049F9012293
:100C50003146684600F0C8F800246D46295D0FA0B3
:100C600003F074F9641CA4B2202CF7D30DA003F098
:100C70006DF902223146684600F0B6F80024295D7D
:100C800006A003F063F9641CA4B2202CF7D305A0DE
:100C900003F05CF97FB005B070BD000030782578B6
:100CA000200000000D0A0000F8B5002501210846CB
:100CB000009502F04FFE02E00A2000F094FC00F0E4
:100CC00017FE1428F8D30021012002F043FE9F20D4
:100CD00000F0DCF8A52000F0D9F869460870074656
:100CE000A52000F0D3F86946487006460121084661
:100CF00002F030FE00F0AAF869468870044601460A
:100D00002FA003F023F91F2F01D00020F8BDF20619
:100D1000D20EFF26D21E0A21013609272E481300C3
:100D200003F03BF906040C2029353C4B02210170ED
:100D300049021AE0FF21877109313DE00421044690
:100D400001704802A08025A003F000F96846807871
:100D5000C00702D0A57166802FE0FF20A77109307F
:100D600060802AE00821017049028180E107E1D01A
:100D70008571468021E01022027012020AE00121F2
:100D80008571490218E081712121090114E02022B6
:100D9000027012028280E207F5D0F0E74021017074
:100DA000C9018180E10703D001218571890203E037
:100DB0000B2181712121490141800120F8BD0000F2
:100DC000415434354442205374617475733A307819
:100DD00025780D0A00000000180000204154343529
:100DE00044423034310D0A0070B50C4615490646B0
:100DF00088798240488895B2A04200D2044600F02B
:100E000037F800F055F80021012002F0A3FD0B2077
:100E100000F03CF8002000F039F8280A00F036F81D
:100E2000E8B200F033F8002000F030F864232246E6
:100E30003146054801F0F2FD0121084602F08AFD25
:100E400070BD000018000020C400002010B5002173
:100E5000012002F07FFDD72000F018F8002000F0FC
:100E600015F804460121084602F074FD204610BD25
:100E700010B50021012002F06DFDAB2000F006F856
:100E80000121084602F066FD10BD000001B582B0E8
:100E900000216846017164200090012301AA02A983
:100EA000024801F00CFF684600790EBDC400002026
:100EB00010B50021012002F04DFDD720FFF7E6FF1D
:100EC0000020FFF7E3FF04460121084602F042FD3F
:100ED000200603D4012000F086FBEAE710BD0000E5
:100EE00070B5064612480D468079824094B2FFF7ED
:100EF000BFFFFFF7DDFF0021012002F02BFD822064
:100F0000FFF7C4FF0020FFF7C1FF200AFFF7BEFF75
:100F1000E0B2FFF7BBFF64232A463146054801F0E3
:100F200020FE0121084602F015FDFFF7C1FF70BD4C
:100F300018000020C400002010B502F0C1FD02F02E
:100F40003FF902F0D3F902F0A1F802F087F902F0BC
:100F5000A1F902F063FDFFF7A7FE10BD064BC01814
:100F600003E003780B70401C491C1346521E92B2DA
:100F7000002BF6D1704700000000080870B50E463F
:100F80000A491446451800F071FB06E032782946FC
:100F90006D1C0020761C00F03FFB2046641EA4B2AE
:100FA0000028F3D100F02EFB70BD000000000808FF
:100FB0007047000010B5214A00219069C305204800
:100FC00004D54169022319434161911593699B0539
:100FD00005D543690124234343616302194393699F
:100FE0005B0505D54369082423434361E3011943A5
:100FF00093691B0505D543690424234343616302B8
:10100000194393699B0405D5436910242343436125
:101010006302194393699B0304D5446920231C434D
:10102000446119439369DB0305D543694024234395
:101030004361A0020143916110BD00000020024005
:101040009C01002070B5054600F052FC0646184C85
:101050000AE0681C08D0002D04D000F049FC801B79
:10106000A84201D9032070BDA069C007F1D1A069D1
:10107000800701D50220A061A069C00511D4A06934
:1010800080050ED4A06940050BD4A069000508D4E2
:10109000A069800405D4A069800302D4A069C003BC
:1010A00003D5FFF787FF012070BD002070BD000051
:1010B00000200240F8B5054604464035287C00264D
:1010C000012808D001202874206881688907890FC9
:1010D00001290ED101E00220F8BD0168C90708D03E
:1010E000606D202108436065012600202874304689
:1010F000F8BD616DFF220132914302221143616507
:10110000C1688907890F0091C16889088900C16099
:101110002068816892071143816000F0E9FB07466F
:101120000EE000F0E5FBC01B0A2809D9606D022122
:101130008843102108436065002028740120F8BD11
:10114000206880680028ECDB2068C168009A1143A1
:10115000C160606D80088000401C6065C5E70000CC
:101160000248016A82159143016270470000014004
:1011700070B50A4D286AA9150843286200F0B8FB2B
:10118000044606E000F0B4FB001B032801D901204F
:1011900070BD286A4000F5D5002070BD00000140F8
:1011A000F8B506460D464036317C01290DD00121A7
:1011B000317401688A68520709D5416D20221143B4
:1011C0004165002030740120F8BD0220F8BD174BA6
:1011D0006A68D80547109A42154C8A6A2B6812D063
:1011E0005B035B0B1A438A622968490305D5A16832
:1011F0000143A1600A20FFF797FC2868800312D5FD
:10120000A06838430EE05B035B0B9A438A6229684F
:10121000490302D5A1688143A1602868800302D5F3
:10122000A068B843A06000203074F8BD0110000031
:1012300000270140406D70470068006C7047000057
:1012400070B5040006D0606D2646002540360028A3
:1012500002D006E0012070BDA5653574204600F07F
:10126000EDF8606DC00603D421688868400705D595
:10127000606D1021084360653574EBE7606DFF22F7
:101280000132904302221043606588688207920F02
:101290005B48012A02D10A68D2072BD10323626876
:1012A0009B079A4205D05B429A4202D05B009A4269
:1012B00009D10A69920092080A6121680A69636883
:1012C0001A430A610CE00A69920092080A61816877
:1012D0000F229204914381608168626811438160AA
:1012E0002168CA6818239A43CA602168CA68A3683B
:1012F0001A43CA6081680122520691438160816865
:10130000A28E52061143816020688168C90004D40E
:10131000816801221207114381602068C168394A3F
:101320001140C1602069E168022825D000200143F6
:10133000204620300278037B52035B001A4311439E
:10134000226B1143A26992031143E269D203114354
:101350002268D3681943D160616A0A46FF3AC23AEB
:1013600005D0A26A11432268D3681943D16042783C
:101370000121012A02D00BE00420D8E700780028E0
:1013800023D0606D202210436065A06D0843A065E6
:10139000E06B012820681FD00169C90703D00169EB
:1013A00049084900016120684169C908C9004161D3
:1013B00020684169A26B11434161A565606D800899
:1013C0008000401C6065002070BD2068C268012359
:1013D0001B041A43C260DBE70269FF239B009A43A8
:1013E000026120680269236CA66C1A43636C334364
:1013F0001A430261206802690A430261D3E70000D0
:10140000002701401902FEFF10B500680949884213
:101410000FD10948426A41150A434262426A8A432F
:101420004262426B8A43426305200621000700F0B6
:1014300037F910BD002401400010024010B586B0FD
:10144000044614216846FEF7FAFE0E4920688842D9
:1014500016D10D48416B421511434163C16A012207
:101460001143C162C06A6946104005900220009095
:1014700003200190002002900520000700F07AF977
:1014800006B010BD0024014000100240F8B504462B
:101490004069254640350E4608280BD02068C068B4
:1014A000C00709D0606D20210843606500202874C2
:1014B0000120F8BD082700E00C2700F019FA009081
:1014C00011E0701C0FD0002E05D000F011FA009929
:1014D000401AB04207D9606D0421084360650020BE
:1014E00028740320F8BD206800683842E9D0606D98
:1014F00001214902084360652068C16809058A0F17
:101500000C21002A1BD12022125D002A17D102686B
:10151000120714D5826853070122002B08DB4368A9
:101520008B434360606D130298431043606506E08F
:10153000606D202318436065A06D1043A065A0690D
:10154000002801D1206801600020F8BD70B5044674
:10155000216800208968490721D425464035297C27
:1015600001291CD001212974E169012904D02046F8
:10157000FFF71CFB002811D1616D0A4A1140FF22C0
:101580000132114361650021A165297422681C2183
:10159000116021688A6804231A438A6070BD0220A2
:1015A00070BD0000FEF1FFFF70B5054604464035F2
:1015B000287C012807D001262E742046FFF78BFADD
:1015C000002802D00CE0022070BD2046FFF7BEFAD2
:1015D000002805D1616DFF220132914331436165DD
:1015E0000021297470BD70B5044600F081F90546EC
:1015F000601C00D0641C00F07BF9401BA042FAD3B1
:1016000070BD000003484168012211434160002081
:101610007047000000200240F8B5124D0746287CB4
:1016200014460E46012807D0012028740E48FFF703
:1016300009FD002802D00CE00220F8BD00216961FC
:10164000022F09D0012F09D0002F09D00648FFF73B
:10165000F9FC00212974F8BD3460FAE73480F8E71A
:101660003470F6E79C01002050C300000949486827
:10167000C0070DD0EFF3108072B6074ACA60074A60
:10168000CA6080F310884868C00701D00120704705
:101690000020704700200240EFCDAB890504030213
:1016A000F0B5002358E001249C4022460A4052D065
:1016B00006685F000325BD402E43AC460660DD088A
:1016C000AD002D182E6AAE465D07EF0E0F25BD400A
:1016D000AE4375462E6286686546AE4386604568B1
:1016E000A5434560C4686546AC43C4609D081C4C76
:1016F000AD002D19AF689C07260F0F24B440A446F7
:101700003C4005273F07B84201D100270FE0154FA5
:10171000B84201D101270AE0134FB84201D1022794
:1017200005E0124FB84201D1052700E00627B74077
:10173000A74210D1AE686446A643AE600C4C256843
:1017400095432560656895436560A5689543A560E8
:10175000E5689543E5605B1C0A46DA40A3D1F0BD1D
:10176000000001400004005000080050001C005020
:1017700000040140F8B5002301249DE027469F4066
:101780003A4070D04D68022D01D0122D14D1DD08E1
:10179000AD002D1800952D6A5E07AC46F50E0F269C
:1017A000AE46AE406546B543AC460E697546AE40A2
:1017B00065462E43009D2E624D68012D05D0022DF9
:1017C00003D0112D01D0122D16D185680326AC4609
:1017D0005D00AE46AE406546B543AC46CE68754644
:1017E000AE4065462E43866046680D79BE43ED06E1
:1017F000ED0F9D403543456006685F000325BD4001
:10180000AE46AE430D79B446AE07B60FBE40654650
:101810002E430660C6687546AE438D68BD403543AD
:10182000C5604D68ED0046D5264D6E6B26436E6350
:101830009E08254DB6007519AC46AD689E07360F5B
:101840000F27B740BD4305273F07B84201D1002706
:1018500010E01E4FB84201D101270BE01C4FB842E7
:1018600002D1022706E026E01A4FB84201D105272F
:1018700000E00627B7402F436546AF60164D2E683F
:101880004F689643FF0300D516432E606E684F687D
:101890009643BF0300D516436E60AE684F6896430B
:1018A000FF0200D51643AE60EE684F689643BF0254
:1018B00000D51643EE605B1C0A681546DD4000D07B
:1018C0005CE7F8BD00100240000001400004005039
:1018D00000080050001C00500004014042694A40CA
:1018E00042617047002A01D0816170478162704770
:1018F00001480068704700002400002010B500F087
:101900003FFAFEF7C7FE0C4C00222346FEF74AFEC4
:1019100002460B4609A002F019FB00F00BFAFEF795
:10192000B9FE00222346FEF73DFE02460B460BA001
:1019300002F00CFB10BD000080842E4148414C5F3A
:101940005243435F537973436C6F636B46726571A7
:101950003A25664D487A0D0A0000000048414C5F68
:101960005243435F48434C4B467265713A25664D7E
:10197000487A0D0A0000000002480168491C016015
:10198000704700002400002010B5084800240168BA
:10199000402211430160204600F00AF8002801D0DF
:1019A000012401E000F01CF8204610BD0020024098
:1019B00070B5054609487D210024C9000068FEF77E
:1019C00097FB01F075FA002801D0012404E0002201
:1019D0002946501E00F01AF8204670BD2000002055
:1019E0000448416B012211434163816B020411439E
:1019F0008163704700100240C106C90E0120884073
:101A0000014908607047000000E100E010B501F0F6
:101A10008FFC10BD02480168021511430160704738
:101A20000070004002480168421511430160704790
:101A30000070004002480168821511430160704740
:101A4000007000400A4B1A689208920002431A6024
:101A500008480369042213430361012906D040BFEB
:101A600020BF20BF016991430161704730BFF9E792
:101A70000070004000ED00E0F8B5044600784F4DDE
:101A8000800672D54D4E0027403EB06BC00004D496
:101A9000B06BA9050843B063012749480168C9052F
:101AA00011D40168821511430160FFF721FF0090F6
:101AB00005E0FFF71DFF0099401A642837D8404819
:101AC0000068C005F5D532680321090560680A4041
:101AD0000140914208D08103890F032904D1316864
:101AE000890301D50120F8BD2A69032109040A40B0
:101AF00022D0084090421FD0207880061CD528694B
:101B00002A6988430121C9040A432A612A698A4350
:101B10002A612861C0050FD5FFF7EAFE009008E0B2
:101B2000FFF7E6FE0099411A2648814201D90320B9
:101B3000F8BD28698005F3D561688803800F032804
:101B400005D132680005824301400A4332602869AA
:101B5000032261681204114008432861002F04D059
:101B6000B16B012000078143B1632078800705D560
:101B7000E8680C218843A1680843E86020784007A2
:101B800006D5E868032189028843E1680843E860D4
:101B90002078000706D5E8680321090388432169F6
:101BA0000843E8602078000606D5E8680321890428
:101BB000884361690843E8600020F8BD4010024096
:101BC0000070004088130000F8B50E4605007DD077
:101BD00053480068C007C00FB0420AD2504801689D
:101BE00049084900314301600068C007C00FB04296
:101BF00071D128784B4C800705D5E068F0218843E7
:101C0000A9680843E0602878C00752D068680228B5
:101C100017D0032818D02168012818D08905002979
:101C200059DAE168890889000143E160FFF760FE45
:101C300069680746022912D003291CD0012926D041
:101C400033E021688903EAE721688901E7E749076A
:101C5000E5E7FFF74DFEC11B3348814223D8E0681A
:101C60000007800F0228F4D123E0FFF741FEC11BDB
:101C70002D48814217D8E0680007800F0328F4D16F
:101C800017E0FFF735FEC11B274881420BD8E068FB
:101C90000007800F0128F4D10BE0FFF729FEC11BDC
:101CA0002148814201D90320F8BDE0680007800F78
:101CB000F3D11B480168C907C90FB1420DD90168AA
:101CC0004908490031430160006800E003E0C007B3
:101CD000C00FB04201D00120F8BD2878400706D5DA
:101CE000E068072109028843E9680843E060287832
:101CF000000707D5E0680721C90288432969C900A0
:101D00000843E06000F03CF8E168084A0906090F62
:101D1000515CC840064908600020FFF749FEF8BD45
:101D2000002002400010024088130000365A0008CC
:101D300020000020014800687047000020000020BB
:101D4000044805490068C968044A4905490F515CBF
:101D5000C840704720000020001002404F5A000881
:101D6000044805490068C968044A8904490F515C60
:101D7000C840704720000020001002404F5A000861
:101D800010B5184AD1680C20084004280BD0082848
:101D900010D00C2810D050680004410F0120C0035F
:101DA000491C884010BD1068C00601D50E4810BD02
:101DB0000E4810BD0E4810BD88020E4B000F185C77
:101DC0000902D368890F491CDB0301D5084A05E0E5
:101DD0001268D20601D5044A00E0044A5043FEF7D7
:101DE00087F910BD0010024000093D000024F400F6
:101DF00000127A00465A0008FEB505007ED0FE4C5F
:101E0000E7680C20E66807400120000406402878B7
:101E1000C00747D0082F05D00C2F0AD1012000049D
:101E2000864206D1206880033CD568680028E5D04A
:101E300038E0012069680004814203D12168014330
:101E4000216011E0052301221B04920499422168BC
:101E500002D111432160F1E78143216021680140F3
:101E60000091206890432060686800280DD0FFF73B
:101E70003FFD009005E0FFF73BFD0099401A642804
:101E80007ED820688003F6D50CE0FFF731FD009086
:101E900005E0FFF72DFD0099401A6428F0D820686E
:101EA0008003F6D4287880075CD5E868810604D5DD
:101EB000226820210A43226088430923042F0DD081
:101EC0000C2F01D1002E09D000283BD02168994366
:101ED00001432160FFF70CFD064627E02168490712
:101EE00001D500288AD061681F22120291432A6915
:101EF0001202114361602168994300E08EE10143C1
:101F00002160FFF73DFFE16809060A0FBB49895CC4
:101F1000C840BB4908600020FFF74AFD002873D184
:101F200020E0FFF7E5FC801B0228A9D820684007C5
:101F3000F7D560681F21090288432969090208430F
:101F400060600FE02068400840002060FFF7D0FC90
:101F5000064604E0FFF7CCFC801B022890D82068DE
:101F60004007F7D42878C00660D5002F0DD0A869A7
:101F700000284AD02068FF2101310843206000E09A
:101F8000C4E0FFF7B5FC06462CE02068800502D5CA
:101F9000A8690028A6D06068072149038843296AF8
:101FA000084360606068297F0002000A0906084350
:101FB0006060286A410B0120C003491C8840E16829
:101FC00009060A0F8D49895CC8408D4908600020C8
:101FD000FFF7EEFC002817D128E0FFF789FC801BF3
:101FE0000228A2D820688005F7D560680721490338
:101FF0008843296A084360606068297F0002000AFC
:1020000009060843606011E0E1E02168FF2001302B
:1020100081432160FFF76CFC064604E0FFF768FC93
:10202000801B022872D820688005F7D42878754E66
:10203000000724D568690028306910D001210843C1
:102040003061FFF755FC009005E0FFF751FC009967
:10205000401A02285AD830698007F6D50FE04008A8
:1020600040003061FFF744FC009005E0FFF740FCC2
:102070000099401A022849D830698007F6D4287898
:10208000400765D500200290A06BC00006D4A06B6D
:10209000012109070843A063012002905A48016802
:1020A000C90511D40168821511430160FFF720FCB6
:1020B000009005E0FFF71CFC0099401A642825D821
:1020C00051480068C005F5D5FF20AA68013082425A
:1020D00003D131690143316111E001218902002AF4
:1020E00007D005231B029A4203D132690A433261A9
:1020F000EFE7326982433261306988433061A86812
:1021000000280FD0FFF7F4FB009007E05EE0FFF738
:10211000EFFB0099411A3D48814257D8306980054C
:10212000F5D50DE0FFF7E4FB009006E0FFF7E0FBDC
:102130000099411A3548814248D830698005F5D464
:102140000298002804D0A16B012000078143A163FD
:10215000686A002864D00C2F3ED00126360602287B
:10216000206805D0B0432060FFF7C2FB05462FE092
:10217000B0432060FFF7BCFB074604E0FFF7B8FB65
:10218000C01B022822D820688001F7D4E96AA86A17
:10219000E2680843296BFD231B049A43114308435B
:1021A000E060206830432060FFF7A2FB054604E0B2
:1021B000FFF79EFB401B022808D820688001F7D556
:1021C0002EE0FFF795FB401B022801D90320FEBD3E
:1021D00020688001F5D423E00128F8D0E0680121CF
:1021E0000904AA6A0140914218D10F218904EA6AC0
:1021F0000140914212D10BE000100240365A000813
:1022000020000020401002400070004088130000B1
:10221000032189050840296B884201D00120FEBDB9
:102220000020FEBD70470068890050300818006823
:10223000704700688900503008180260704700003D
:10224000F7B5054604462035287882B0012814D019
:1022500001202870022068702168CA204862216825
:10226000532048622068806800264005FF27002828
:1022700012DAFFF73DFB00900AE0022005B0F0BD46
:10228000FFF736FB0099411A7D20C00081421CD81F
:102290002068C0684007F3D4206881680122920258
:1022A000914381602068C16880221140204A8918CA
:1022B000C160FFF71DFB00900DE0FFF719FB0099CF
:1022C000411A7D20C000814205D920684762032061
:1022D00068702E70D2E72068C0684007EDD521688D
:1022E0000398486120688168C908C9008160206836
:1022F0008168049A114381600E4802680121090532
:102300000A43026082680A43826020688168012271
:10231000920311438160206881681211114381602A
:1023200020684762012068702E700020A6E7000038
:102330007FFBFFFF00040140014901200870704746
:102340000100002010B504460068C068400509D5AA
:102350002046FFF7F1FF2068C16880221140054A3E
:102360008918C1600120044900054861012020341A
:10237000607010BD7FFBFFFF000401400149012098
:10238000087070470000002070B50446006881683E
:102390008025C90400290BDAC068C00508D520468D
:1023A000FFF7ECFF2168C8682840FF388238C86012
:1023B0002068816889040BD5C068800508D520464F
:1023C000FFF730FF2068C168054A29408918C160BD
:1023D000012004494004486101202034607070BD30
:1023E0007FFDFFFF0004014010B500680B46406808
:1023F000C021C94301400002000ECC04D870E40E95
:102400005C708C06A40E0904490F9C701970002A98
:102410000AD100F0B0FFD870587800F0ACFF5870C7
:10242000987800F0A8FF9870002010BD30B50B46DA
:102430000168896A5960016809694904490C996011
:10244000006804680F482146014088024D04800E50
:1024500018706D0E49065D70490E99706102490E43
:1024600040242140D970002A0AD100F084FF18705E
:10247000587800F080FF5870987800F07CFF9870D2
:10248000002030BD7F7F7F00F8B5040050D0254686
:1024900020356878002803D12870204600F052F8D3
:1024A000022068702168CA2048622168532048626F
:1024B000204600F0CDFFFF2604270028206802D028
:1024C00046626F7034E081681D4A11408160216866
:1024D00088686268A369104322691A4310438860C0
:1024E0002168E068086120680169228912041143AB
:1024F00001612068C16880229143C1602068C16C7D
:1025000089088900C164E169606901432068C26C7F
:102510001143C1642068806880060BD4204600F017
:10252000C7F9002806D0206846626F700020287026
:102530000120F8BD20684662012068700020F8BDC7
:10254000BFFF8FFF10B50068084988420DD10848C9
:102550000169012292041143016100221146022007
:10256000FFF754FA0220FFF747FA10BD0028004099
:1025700040100240FEB506460446203630780B4631
:1025800001283ED0012030700220707018462030A3
:102590000090206800278068002A34D0400600D4CC
:1025A000DF7019789D7809040D435978DA780902AB
:1025B000120411430D430099D869097809060D43A7
:1025C0000543586999690543586808430090216894
:1025D000CA204862216853204862FF205A6A0130AD
:1025E0008021824245D122689368834393602068AA
:1025F000C2680A40FF3A823AC260FFF779F9019057
:1026000024E00220FEBD400600D4DF70187800F000
:10261000BAFE0504587800F0B6FE0002054398782B
:1026200000F0B1FE0543D878000405430098007817
:1026300000F0A9FE00060543D869C1E7FFF758F985
:102640000199411A7D20C00081422AD82068C068C3
:10265000C007F3D02068C5612168009848642068ED
:102660008168FF2201321143816020688168120174
:1026700030E02068826801235B029A438260206810
:10268000C2680A401D495118C160FFF731F9019035
:102690000EE0FFF72DF90199411A7D20C00081421B
:1026A00006D92168FF204862032070703770FEBD94
:1026B0002068C0688007ECD5206805622168009812
:1026C0008864206881680122520211438160206879
:1026D000816812011143816009480268012149049F
:1026E0000A43026082680A4382602168FF204862D0
:1026F0000120707037700020FEBD00007FFDFFFFDD
:1027000000040140F8B505460446203528780B46FC
:1027100001280FD00120287002206870002A0BD0F9
:10272000D8789E7800040643587809780002490357
:10273000084317E00220F8BD5878C10603D5EF2101
:1027400008400A305870D87800F01DFE060458780A
:1027500000F019FE00020643987800F014FE0643CC
:102760001878400306432168CA2048622168532034
:102770004862204600F06CFE0027002811D1114865
:102780000640206846602068C16880229143C1608D
:102790002068806880060CD4204600F089F8002864
:1027A00007D02168FF204862042068702F70012044
:1027B000F8BD2168FF204862012068702F7000205A
:1027C000F8BD00003FFFFF00F8B50646044620367E
:1027D00030780D46012822D0012030700220707020
:1027E000206800278068002A1BD0400600D4EF70C4
:1027F0002978A878090408436978EA78090212045C
:102800001143084300902168CA2048622168532080
:102810004862204600F01CFE002837D116E0022056
:10282000F8BD400600D4EF70287800F0ACFD03043A
:10283000687800F0A8FD00020343A87800F0A3FD2B
:102840000343E878000403430093DCE7174900984A
:102850000840216808602068816801229204914341
:1028600081602969E868084321688A6810438860A4
:102870002068C16880229143C1602068806880061A
:102880000CD4204600F014F8002807D02168FF205F
:1028900048620420707037700120F8BD2168FF2065
:1028A00048620120707037700020F8BD7F7F7F0084
:1028B00070B504460068C168A0229143C160FFF76B
:1028C00017F87D260546F60006E0FFF711F8401BD5
:1028D000B04201D9032070BD2068C0688006F4D5DD
:1028E000002070BD02480169022211430161704756
:1028F00000E000E070B5040012D002212046403014
:1029000005464174206801684022914301602046D9
:1029100000F044F80021616569742974084670BDAF
:10292000012070BD70B5040007D000262546403553
:10293000A662687C002802D005E0012070BD2E74DC
:10294000204600F03FF802206874206801684022A9
:1029500091430160A168606822690843E1681143FE
:102960000843616901220843A169520211400843EA
:10297000E1690843216A0843A16A084321680860A5
:10298000A0690421000C0840616A0843216848607E
:10299000666501206874002070BD000010B50068F5
:1029A0000649884209D10648416B8214914341632C
:1029B0000520E0210007FEF773FE10BD0030014046
:1029C0000010024010B586B0044614216846FDF799
:1029D00036FC10492068884219D10F48416B821497
:1029E00011434163C16A01221143C162C06A0021DF
:1029F00010400590E02000900220019003200390F9
:102A000002910491052069460007FEF7B3FE06B067
:102A100010BD00000030014000100240FFB5044628
:102A20004068FF21254600260531403581B0174614
:102A3000884202D1A06800280CD0287C012815D03B
:102A400001202874FEF754FF0090687C01280FD005
:102A500002267EE00420687413460498029A0090CF
:102A60001146204600F02BF905B0F0BD0220FBE72F
:102A7000029800286CD0002F6AD0042068740020CF
:102A800060650299A163A787E7872063A086E08637
:102A9000206460640121A068C903884205D12068D0
:102AA0000168012292039143016020680168490690
:102AB00003D40168402211430160E06800281AD065
:102AC00037E020688168C90709D0007BA16B0870D6
:102AD000A06B401CA063E08F401EE0870BE0FEF778
:102AE00007FF0099411A0498814202D3401C02D08A
:102AF00035E0002833D0E08F0028E2D11CE02068C8
:102B00008168C90709D0C068A16B0880A06B801CD0
:102B1000A063E08F401EE0870BE0FEF7E9FE00991E
:102B2000411A0498814202D3401C02D017E00028C9
:102B300015D0E08F0028E2D12046009A049900F0D9
:102B4000BAFE002801D020206065606D002800D00A
:102B500001260120687400202874304684E703268B
:102B6000F7E7FFB5054604464035287C002781B0CD
:102B70001646012809D001202874FEF7B9FE0090FE
:102B8000687C012804D0022793E0022005B0F0BD44
:102B90000298002870D0002E6ED0032068740020A8
:102BA000606502992163A686E686A063A087E08718
:102BB000606420640121A068C903884205D12068AF
:102BC00001680122920311430160206801684906EF
:102BD00003D401684022114301600121E068C90269
:102BE0008842606826D1002801D0012E1ED1206BBA
:102BF00021680088C86006E020688168890709D5D7
:102C0000216B0988C160206B801C2063E08E401E10
:102C1000E0860BE0FEF76CFE0099411A04988142B1
:102C200002D3401C02D03AE0002838D0E08E0028C1
:102C3000E2D127E0002801D0012E20D1206B2168AD
:102C40000078087306E020688168890709D5216B40
:102C500009780173206B401C2063E08E401EE086E3
:102C60000DE0FEF745FE01460098091A04988142DE
:102C700003D3401C03D012E01AE000280FD0E08EEE
:102C80000028E0D12046009A049900F042FE002876
:102C900001D020206065A068002802D005E003274D
:102CA00007E02068C16880680090606D002800D04F
:102CB00001270120687400202874384666E7FFB5B4
:102CC000044683B001200190002026464036009043
:102CD000307C0C9F1D4601280FD001203074FEF778
:102CE00007FE0290707C616801280DD0CA1FFD3A72
:102CF00008D1A168002905D102E0022007B0F0BD8B
:102D0000042801D00220C3E00498002828D00598A8
:102D1000002825D0002D23D0707C042801D0052068
:102D20007074002060650599A163E587A587049903
:102D30002163E586A58620646064206801684906F1
:102D400003D401684022114301600121E068C902F7
:102D50008842606848D1002804D0012D02D03CE0B0
:102D6000012095E0206B21680088C860206B801CE2
:102D70002063E08E401EE0862FE02068816889078E
:102D800010D5E18E00290DD0019901290AD1216BBE
:102D90000988C160206B801C2063E08E401EE086A5
:102DA0000020019020688168C9070DD0E18F0029BB
:102DB0000AD0C068A16B0880A06B801CA063E08F64
:102DC000401EE08701200190FEF792FD0146029827
:102DD000081AB84201D3781C59D1E08E0028CCD112
:102DE000E08F0028C9D146E0002801D0012D3CD158
:102DF000206B216800780873206B401C2063E08EF4
:102E0000401EE08631E020688168890710D5E18E98
:102E100000290DD0019901290AD1216B097801738C
:102E2000206B401C2063E08E401EE0860020019055
:102E300020688168C9070DD0E18F00290AD0C068D9
:102E4000A16B0870A06B401CA063E08F401EE08760
:102E500001200190FEF74CFD0299401AB84202D3BE
:102E6000781C02D013E0002F11D0E08E0028CAD1C8
:102E7000E08F0028C7D139462046029A00F049FD6C
:102E8000002807D0012000902020606509E0032081
:102E9000009006E0A068002803D12068C16880681F
:102EA00001900120707400203074009826E7000023
:102EB000094910B5401E884201D9012010BD074CB8
:102EC00060610321081F00F033FA0020A061072091
:102ED0002061002010BD0000FFFFFF0000E000E0C7
:102EE00002480169022291430161704700E000E05D
:102EF00010B5040003D0606F002802D007E0012065
:102F000010BD002170200155204600F027F8242034
:102F1000606720680168490849000160204600F0A8
:102F2000E1FE0128ECD0606A002802D0204600F0C3
:102F300043FE206841680922D20291434160206823
:102F400081682A229143816020680168012211432F
:102F50000160204600F096FE10BD000010B586B05E
:102F6000044614216846FDF76AF911492068884231
:102F70001BD11048816B0122920411438163C16A05
:102F800001221143C162C06A6946104005900C20BD
:102F90000090022001900020029003200390062060
:102FA000049005200007FEF7E5FB06B010BD000009
:102FB0000048004000100240FFB50446406F83B057
:102FC00017460D4620285CD1002D0AD0002F08D0CE
:102FD000A168C001814207D12069002804D1E80717
:102FE00002D0012007B0F0BD204660300290007C86
:102FF000012846D00298012101740020E0672120B9
:103000006067FEF775FC264640360190378277826E
:103010000120A1680003814202D12069002802D06A
:103020002F46002511E000270FE0002280212046D6
:1030300000F05AFF002815D1002F15D021683878EC
:1030400088627F1C708A401E7082708A019B0028F3
:1030500006980090E9D100224021204600F044FF6C
:10306000002808D00320BDE728882168C005C00DCE
:103070008862AD1CE6E72020606702990020087492
:10308000B0E70220AEE7FEE7704700001CB5002164
:103090001A480091184A01910260C163120542600A
:1030A000816003228263012202610246C1602032F4
:1030B0001170FF235170C233436281621173016347
:1030C0008161042241634261C161FEF7B9F80028C1
:1030D00001D0FDF76DFF00210848FDF7EBFF084820
:1030E00000908013019069460448FEF759F80028C3
:1030F00001D0FDF75DFF1CBD00240140440000200D
:1031000002000004F0B52B4C87B0E16A01200143B6
:10311000E162E16A01400591E16A02263143E16220
:10312000E16A31400591E16A04273943E162E16ACD
:1031300001903940059181020025009105200295FA
:1031400069460007FEF716FB2D20000100901120B4
:1031500001900520694602950007FEF70BFB05204C
:10316000012210210007FEF7BDFB012205205102BC
:103170000007FEF7B7FB10480090032001900520E0
:10318000694602950007FEF7F5FAC9200090032072
:103190000190694602950948FEF7ECFAE06A40089A
:1031A0004000E062E06AB043E062E06AB843E06297
:1031B00007B0F0BD001002402F8100000004005055
:1031C000F0B587B014216846FDF739F82148C26A86
:1031D00004210A43C262C26A0A400592C16A0125FB
:1031E0002943C162C16A29400591C26A02210A438A
:1031F000C262C06A05260840612136070590002298
:1032000009013046FEF76EFB134F00220B213846B2
:10321000FEF768FB412000010024009002946946FB
:10322000019503943046FEF7A5FA6802009011203C
:1032300001900294694603943046FEF79BFA83207E
:10324000009002946946019503943846FEF792FA7D
:1032500007B0F0BD001002400004005010B50C484B
:103260000A4901604B21C901416000218160C160B0
:103270000161816101620C22416242614167FFF795
:1032800037FE002801D0FDF793FE10BD0048004036
:103290001C0100201CB511491148002412C07F21D7
:1032A00001608460C4600461FF21446141600838AA
:1032B000FFF7EAF8002801D0FDF77AFE012108485F
:1032C000FEF7B1FF0749884207D00122009400238E
:1032D00011460548019400F017F91CBD0028004074
:1032E000A0000020F2320000E407000010B50E48F4
:1032F0000C490160FF210531416000218160C160FE
:1033000001614161C1610122016252024162826137
:1033100081620721C162FFF705FB002801D0FDF79C
:1033200047FE10BD00300140C4000020704700007F
:103330008307FF22DB0E9A408907090E9940002877
:103340000BDA0007000F0838830808489B0018189C
:10335000C36993430B43C3617047830804489B00D0
:103360001B181868904308431860704700ED00E090
:1033700000E400E0704701090A2200075143000FF2
:103380004018C0B270470022014602E00A39C9B2B3
:10339000521C0A29FAD21007000E08437047000099
:1033A00070B588B0002202A91348FFF73FF8002249
:1033B00007A91148FFF718F86C46A17A607A0191C5
:1033C0000090E07F7D263601237AA27F617F8019FD
:1033D00000F028F80546E07FA37F8119627F07A0EF
:1033E00000F0B4FD0095A37A627A217A07A000F07C
:1033F000ADFD08B070BD0000A000002064617465E0
:103400003A25642D25642D256420000025643A2585
:10341000643A25642074696D657374616D703A2532
:10342000640D0A0070B58CB0084E119C8019009490
:10343000109D491E083B059001950293039204914B
:103440006846FCF7AFFE0CB070BD000094F8FFFFBB
:1034500070B504460068C168490613D40021C94309
:10346000C160FEF745FA7D260546F60006E0FEF748
:103470003FFA401BB04201D9032070BD2068C068EC
:103480004006F4D5002070BDF8B517460C46064638
:10349000012901D0022C04D1461E0C460C34B6B2D0
:1034A000E4B264213046FCF723FE054664206843FD
:1034B000361A0D20641C60430521FCF719FEE9173C
:1034C000890F491989106A00891AF217920F921907
:1034D0009210921989184018C019401E00E0C01DB2
:1034E0000028FCDB0721FCF719FE002900D1072189
:1034F000C8B2F8BD10B50348FEF746FF0148FEF715
:1035000021FF10BDA0000020FFB587B00F46044684
:1035100014216846FCF793FE0025059539462046A0
:10352000099AFFF7B1FF064664212046FCF7E0FD4B
:103530000846FFF728FF04463846FFF724FF0890A7
:103540000998FFF720FF09900A98FFF71CFF07462C
:103550001098FFF718FF10901198FFF714FF6A46B4
:1035600017701099517090700395012269460F48A9
:103570000495FFF729F9002801D0FDF719FD6846E9
:1035800006750899417509998175C475012205A9C7
:103590000648FFF7B7F8002801D0FDF709FD044AF7
:1035A00001210248FEF745FE0BB0F0BDA00000204F
:1035B000F232000008B500210091342269460A70F9
:1035C00048700221684600F05EF908BDFEB500248F
:1035D000009401940294099E089D13276C4627705D
:1035E0006070A170E27023716571A6710A98E07134
:1035F0000821684600F047F90821684600F0A6F85F
:10360000FEBD0000FEB500202B4E07E0401C85B239
:103610007019214600F037F9281980B2345C002C6B
:10362000F4D10021254800F0E1F8092000214002F2
:1036300000F0DCF821480121C01C00F0D7F81F4839
:103640002A21801C00F0D2F81C480021001D00F047
:10365000CDF81A480021C01D00F0C8F81748012114
:10366000083000F0C3F815480021093000F0BEF81A
:10367000124800210A3000F0B9F8104800210B3040
:1036800000F0B4F80D4820210C3000F0AFF80B48E2
:1036900000210D3000F0AAF8084800210E3000F09B
:1036A000A5F800200090019060236122014602905D
:1036B000FFF78CFFFEBD0000EC580008061200006A
:1036C00008B500200090332168460170012100F008
:1036D000DAF80321684600F039F8684640780007B8
:1036E000000F08BD1CB500F04DF80C4800F018F8AC
:1036F000FFF788FF7F2000F071F80620FFF75AFFE0
:10370000FFF7DEFF0628FBD10020032101910346CD
:1037100002460090014600F07BF81CBD80C3C90141
:103720001CB5002200920223694601920B7001230E
:103730004B708A70020ECA70020C0A71020A4A713A
:1037400088710721684600F09EF81CBD70B50D46D3
:10375000044600F07AF80021022000F0FBF8442033
:1037600001F02AF904E0FF2001F026F92070641C22
:1037700028466D1EEDB20028F5D10121022000F08F
:10378000E9F870BD10B5094C012211462046FEF73C
:10379000A9F80120FDF727FF002201212046FEF7AE
:1037A000A1F80121022000F0D5F810BD000400505E
:1037B00008B5002000901521684601700221417073
:1037C00000F061F808BD08B500200090152168469A
:1037D00001700221417000F056F808BD10B5014695
:1037E000014800F003F810BD012200001CB50022C2
:1037F0000092019211236A461370030A5370012349
:103800009370D07011710521684600F03CF81CBD22
:10381000FEB5074600201D4614460E460090019056
:10382000FFF7C6FFFFF7CFFF3221684601704770F0
:103830008670210AC17004714571089981710999D6
:10384000C171082100F01FF8FEBD70B500247D266F
:10385000F6000021022000F07DF8442001F0ACF8D1
:10386000FF2001F0A9F805460121022000F072F8BE
:103870002046641CA4B2B04202D1FFF733FF70BDF2
:10388000FF2DE6D170BD70B50D460446FFF7DDFF94
:103890000021022000F05EF803E0207801F08CF8AF
:1038A000641C28466D1EEDB20028F6D101210220CD
:1038B00000F050F870BDF8B504464368FF260120BB
:1038C00005368002B3420AD1A3684501AB4201D05C
:1038D000834204D123681D684027BD431D6063688F
:1038E0002025B34210D1A36883420DD000920B462D
:1038F00000228021204600F049F8002803D0606DA6
:10390000284360650320F8BD00920B460022012188
:10391000F0E738B504464068FF2305332025984278
:1039200004D100920B460022802107E05120005D67
:1039300005280DD100920B4600220121204600F0FF
:1039400025F8002804D0606D28436065032038BD49
:10395000002038BD10B5012807D002280FD10A4831
:1039600000290FD00122022107E0012305209B023C
:103970000007002904D001221946FDF7B3FF10BD4E
:103980000022F9E70022EEE700040050F8B51D46DA
:1039900017460E46044609E0681C07D0FDF7A8FF4D
:1039A0000699401AA8420BD2002D09D020688168E0
:1039B000304688432ED00020B842EDD10020F8BD1B
:1039C00020684168E022914341606068C11FFD3971
:1039D0000CD10121A068C903884202D04911884254
:1039E00004D1206801684022914301600120A16A4E
:1039F0004003814207D121680A6882430A60216836
:103A00000A6802430A600120403460740020207478
:103A10000320F8BD0120CFE77047000000B58BB050
:103A200021206946087035204870302088700020B9
:103A30000190C870114905910F2109060390049067
:103A400006910790012008A9087000020990012240
:103A500069460B48FEF78EFD002801D0FDF7A8FA55
:103A60000521002209030648FEF7EAFB002801D0E1
:103A7000FDF79EFA00200BB000BD000000808080A2
:103A8000A000002070B5FDF777FF0B4C0B482168B4
:103A9000491C21600268521E026002680025002A4B
:103AA00000D10560C82905D9052010210007FDF7C0
:103AB00015FF256070BD00000800002004000020F4
:103AC00010B598B034216846FCF7B9FB14210DA855
:103AD000FCF7B5FB182112A8FCF7B1FB1F480168E1
:103AE0000324E402A143C21489180160FDF7A2FF78
:103AF0001B480169A143016114200090FF2001309F
:103B000002900120069005200024400308900794AD
:103B100009946846FEF770F9002801D0FDF748FACD
:103B20000F200D900E940F941094002111940DA865
:103B3000FEF74AF8002801D0FDF73AFA2420129047
:103B4000012000041390159412A8FDF795FF00289A
:103B500001D0FDF72DFA18B010BD00000070004034
:103B60004010024010480168821511430160C1688D
:103B70000E4A1140C16001680D4A11400160816820
:103B80004908490081600168012292049143016063
:103B9000C168FD2212049143C16000210161054901
:103BA000C003886070470000001002400C40FF888E
:103BB000F6FFF6FE00ED00E010B5818CC90707D0D6
:103BC00001684A6801235B049A43836A1A434A6086
:103BD000818C890707D501684A6801231B049A4331
:103BE000C36A1A434A60818C490707D501684A684D
:103BF00001239B049A43036B1A434A60818C090793
:103C000007D501684A680123DB039A43436B1A43D3
:103C10004A60818CC90607D50268916801231B039D
:103C20009943836B19439160818C890607D501689C
:103C30008A6801235B039A43C36B1A438A60818CB1
:103C4000490612D503685A6801210905046C8A43A4
:103C500022435A60026C8A4207D1026851680323EA
:103C60005B059943436C19435160818C090607D564
:103C700001684A680123DB04806C9A4302434A606E
:103C800010BD0000F8B500260446C667FDF730FEFB
:103C9000054620680068124F000709D501212B4610
:103CA000002249052046009700F01EF900280DD19A
:103CB0002068006840070BD501212B4600228905AA
:103CC0002046009700F010F9002801D00320F8BD2D
:103CD00020206067A067603426740020F8BD0000D3
:103CE000FFFFFF01F8B504462669A268E769324381
:103CF0006669102000253E432368324370491E68E0
:103D0000704F3E4016431E602268536803263603F8
:103D1000B343E668334353602368A2698B4201D002
:103D2000266A32439E680B273F02BE4316439E60BD
:103D3000654E2368654AB3420AD1D2680C263240E8
:103D400026D0042A28D0082A24D00C2A10D10EE02C
:103D50008B420DD1D66803229202164018D0012260
:103D60009202B61A18D0B61A14D0964200D1082082
:103D7000564A0126403A564FF6038B4236D1002868
:103D80000CD002280DD0042812D008281FD11CE026
:103D90000020EDE70220EBE70420E9E7FDF7D0FF84
:103DA00008E01068C00601D5384605E0494803E040
:103DB000FDF7E6FF002873D0626851005118814278
:103DC00005D81103814202D303E03046F4E7012510
:103DD00066E0010E06025008002330185941FCF736
:103DE000B1F903210902411A3B4A55E0E169B142A8
:103DF00032D1030000F0D1F809070A0D06250606A6
:103E0000062B0600E3E7FDF79BFF1CE0FDF7A8FF8C
:103E100019E010686168C00602D548082F4A01E021
:103E20002F4A48088018FCF763F980B201462D4AF2
:103E300010399142CBD8511C01400007400F084374
:103E40002CE0FDF79DFF616840004A08EAE76168E1
:103E5000012248081204E5E7030000F09EF8090774
:103E60000A0D06260606062C0600B0E7FDF768FFD9
:103E70001DE0FDF775FF1AE010686168C00602D505
:103E80004808C01902E013484A081018FCF730F936
:103E900080B20146134A1039914298D82168C8600F
:103EA0000020206660662846F8BDFDF769FF61685E
:103EB0004A088018EAE7616848088019E6E70000C8
:103EC00000480040F369FFEF00440040401002400A
:103ED00000093D000024F400FFFC0F0000127A00EE
:103EE0000048E801EFFF0000FFB581B017460E461D
:103EF00004460A9D09E0681C07D0FDF7F9FC049907
:103F0000401AA8420CD8002D0AD02068C16930465A
:103F1000884318D00020B842EDD0002005B0F0BD95
:103F200020680168FF22A132914301602068816806
:103F300049084900816020206067A0670020603444
:103F400020740320EAE70120E5E700000FB410B574
:103F500003A9044B044A029800F092F910BC08BC73
:103F600004B018477D4A0008280000202021020CD8
:103F700001D010211046020A01D01046083902096A
:103F800001D01046091F820801D01046891E420840
:103F900001D0881E7047081A704730B47446641EFA
:103FA0002578641CAB4200D21D46635D5B00E318BC
:103FB00030BC18474900CA020243100000D0042058
:103FC0004A0D01D001221043044A490D914201D10A
:103FD00002210843012800D105207047FF07000097
:103FE000F8B504464F1EC8000838211815461E466D
:103FF000086849683A4606239A4310D02A46334651
:10400000FCF768FA3A46D200083AA3181A687F1EED
:104010005B68FCF7ADF906223B469343EED1022FD5
:1040200023D0042F11D0062F2FD12A463346FCF778
:1040300051FAE36AA26AFCF79BF92A463346FCF779
:1040400049FA636A226AFCF793F92A463346FCF779
:1040500041FAE369A269FCF78BF92A463346FCF77B
:1040600039FA63692269FCF783F92A463346FCF77B
:1040700031FAE368A268FCF77BF92A463346FCF77D
:1040800029FA63682268FCF773F9F8BD002210B5BD
:10409000134610460149FCF785FA10BD0000F03FB9
:1040A00010B5FCF765F910BD002210B51346104697
:1040B0001146FCF777FA10BD10B50721024A00201F
:1040C0000907FCF747FC10BD01030000034A10B5C7
:1040D00000201107FCF73EFC10BD000001FDFFFFB2
:1040E00002E008C8121F08C1002AFAD170477047C1
:1040F000002001E001C1121F002AFBD1704700001F
:1041000001490860704700002C000020F0B51FB482
:1041100086B00998089A030D0021024314D0514833
:10412000514A1818504305141198012810981AD0B4
:10413000281A401C00264D4F4D49009601910490CD
:10414000002812DA444211E01198012449A3012801
:1041500001D11098C1430698119A84600360C2602F
:1041600041600BB0F0BD4042E4E704462105002069
:104170003F4A001C51410391029012E0E00707D032
:1041800032463B4601990098FCF7A4F90191009052
:1041900032463B4610461946FCF79CF906460F4648
:1041A0006410002CEAD10498039B0028029A099914
:1041B000089806DAFCF78EF9019B009AFCF78AF959
:1041C00005E0FCF7EFF9019B009AFCF7EBF90446D8
:1041D0000E460022284BFCF707FC03D80020C04302
:1041E000014607E00022254B20463146FCF7C0F887
:1041F000FCF7DAFB102409E0002C0ADB0A2200237A
:10420000FBF7A0FF079B30321A55641E02460A4393
:10421000F2D11122641C079B121B1C19119B012B4C
:1042200003D0012308430ED10AE0084304D0112033
:1042300010900020119077E71098151A6D1E0BE072
:104240001098824202DD00236D1C03E0824201DAF5
:1042500000236D1E002BEED0069811998260C1607C
:1042600030C07EE701FCFFFF104D0000000014404D
:104270000000F03F300000000000F0430000E03F8D
:10428000FFB597B00646002518E2252877D100240F
:104290002746FD49049400E00443761C327801204F
:1042A000203A90400842F7D130782A280ED00222D6
:1042B000307801463039092916D804990A23594320
:1042C000303940181443761C0490F1E7189802C85E
:1042D00004911890002904DA012040030443484265
:1042E000049002200443761C30782E2814D1042038
:1042F00004437078761C2A2809D11898761C80C847
:10430000189009E00A214F43303FC719761C3078D6
:10431000014630390929F5D930786C2810D006DCEF
:104320004C281AD068280ED06A2817D104E07428C7
:1043300013D07A2812D110E00120400504430CE08C
:104340000121090501E0032109050C43717881422F
:1043500003D1012000052418761C761C30781190BA
:1043600066280BD013DC58287DD009DC00287BD0D0
:104370004528F6D04628F4D047281AD1A5E118E000
:10438000632835D0642870D0652812D19DE170284B
:104390006CD008DC6728F1D069287BD06E280DD05E
:1043A0006F2806D1BAE073282ED0752871D07828EE
:1043B00059D01A9A199990476D1C7EE16002400FFE
:1043C000022809D003280DD00428189801680DD0C0
:1043D0000D60001D189070E11898EA1701680D60D3
:1043E0004A60F6E7189801680D80F2E70D70F0E773
:1043F00018986A4601781172001D189000205072BA
:1044000002A80090012005E0189802C8189000202A
:104410000091C04361070DD5002101E00199491CBD
:104420000191B94212DA8142F8DB009A515C00290D
:10443000F4D10BE0002101E00199491C0191814276
:10444000FADB019A0099895C0029F5D10199049859
:104450001A9B471A21463846199A00F097FA019993
:10446000401945180BE04FE02CE113E04EE00098B6
:1044700000990078491C00911A9A1999904701985F
:10448000401E0190401CF2D1214638461A9B199AD1
:1044900010E137E00A200021009001916002410FF5
:1044A000022907D0189A01CA1892C2179446032904
:1044B00008D00AE01898C01DC108C90005C91891A4
:1044C000944607E000B2C2179446042902D140B2D4
:1044D000C1178C4600226146944506DA0A4600213F
:1044E000404291418C462D2102E0210504D52B212B
:1044F0006A461173012103E0E10701D02021F7E7AB
:10450000029155E00A200AE0102008E010200090F7
:104510000021042004430191082703E00820002122
:10452000019100906002410F022907D0189A01CA38
:10453000189200229446032908D008E01898C01D5C
:10454000C108C90005C91891944603E080B2042946
:1045500000D1C0B200210291210729D511997029FB
:1045600006D0009A1021019B4A401A4305D00EE064
:1045700040216A461173012108E06146014306D0DB
:1045800030216A4611731199517302210291009AE8
:104590000821019B4A401A430AD16146014301D1D7
:1045A000610705D530216A46117301217F1E0291F2
:1045B0001199582904D035A10E910DA90D910DE046
:1045C00037A1F9E76146019B009AFBF7BBFD0E9B03
:1045D0008C469B5C0D9A521E0D92137061460143EE
:1045E000F0D10D9805A9081A20300190600703D575
:1045F00001200004844300E001270198874201DD87
:10460000381A00E00020019900904118029809181A
:104610000498401A0490E00306D421461A9B199A84
:10462000049800F0B3F94519002706E003A81A9A88
:10463000C05D199990476D1C7F1C02988742F5DB7D
:10464000E0030CD521461A9B199A049800F09EF9B4
:10465000451904E01A9A3020199990476D1C009969
:10466000481E00900029F5DC08E00D980D990078AF
:10467000491C0D911A9A199990476D1C0199481E71
:1046800001900029F1DC63E1092801003031323367
:10469000343536373839616263646566000000007E
:1046A0003031323334353637383941424344454668
:1046B0000000000000F05AF94519761C30780028F7
:1046C00000D0E2E528461BB0F0BD600700D4062705
:1046D0001898C01DC108C90048680A680831C30F8E
:1046E000DB071891190001D09CA108E0210501D534
:1046F0009BA104E0E10701D09AA100E09AA1430048
:1047000011985B08109165280CD006DC452809D06B
:1047100046281DD0472841D141E0662818D0672897
:104720003CD13CE00021112F01DB112000E0781C7E
:104730000191009008A911A8FFF7E8FC13990591D1
:104740000021119A15927F1C12980197009150E058
:104750000120C00703900120019008A9009711A82B
:10476000FFF7D4FC139A149905920022119B009232
:1047700012981593059A0192002901D0104602E083
:10478000791C40180190381A01D5019804E0404284
:10479000401E0090781C0190C01B029043E0012F46
:1047A00000DA01270021112F01DD112000E0384639
:1047B0000191009008A911A8FFF7A8FC1399059191
:1047C000119A0021129815920091019721070CD49B
:1047D0000599B94201DB019900E00191012904DD4D
:1047E000159A491E515C302906D0B84201DA011DE4
:1047F00005DA0121029115E00199491EEDE7002833
:1048000005DC0099411800910199091A03E0019A09
:10481000411C914200DD01910099401A401C029018
:104820000120C0070390200706D402990198814215
:1048300002DB0020C043029000206946C87707AF22
:10484000012103980337C907884224D00220119020
:104850002B201290039800280CDA404203902D2060
:10486000129007E00A210398FBF742FC30317F1ECB
:10487000039039701199481E11900029F2DC0398B9
:104880000028EFD1791E1298087030782021084056
:104890004530BF1E387006A8C01BC01D039010987D
:1048A0000078002800D00120019941180298C01713
:1048B0000918039809180498401A401E0490E00350
:1048C00006D421461A9B199A049800F05FF84519FE
:1048D00010980078002803D01A9A199990476D1CF7
:1048E000E00324D521461A9B199A049800F04EF84B
:1048F00045191CE00098002807DB009905988842BC
:1049000003DD1598405C199901E0199930201A9A35
:10491000904700986D1C401C00900298401E029029
:10492000002804D11A9A2E20199990476D1C0199DC
:10493000481E01900029DDDC05E038781A9A7F1CBA
:10494000199990476D1C0399481E03900029F4DCC7
:1049500021461A9B199A0498ACE600002D0000002D
:104960002B0000002000000000000000F8B5044605
:1049700000251E461746880404D405E03946202049
:10498000B0476D1C641EF9D52846F8BDFFB5044636
:10499000002581B01E46C80301D5302700E020273E
:1049A000880404D505E038460399B0476D1C641EA1
:1049B000F9D5284605B0F0BD01B582B000216846A2
:1049C000017164200090012301AA02A90248FEF7A8
:1049D00076F9684600790EBDC400002010B51AA013
:1049E000FFF7B4FA1D4CA06B21040843A063FDF748
:1049F00019F8FDF70FF8FEF773FA1948FDF77AFF7B
:104A00001848FCF701FD1748FCF7CEFD1648FEF7E5
:104A1000A5FAFEF777FBE0680121C9038843E0604F
:104A200001210846FDF70EF8FCF7AEFFFDF75AFF2F
:104A30000A20FCF7D8FD0B48FCF700FDFCF77CFAD8
:104A40000AA0FFF783FA10BD656E74657220737457
:104A50006F70206D6F6465210D0A00000010024028
:104A6000C4000020440000201C0100206370752059
:104A700077616B65207570210D0A000013B5044B3A
:104A8000012269460348FEF797FA00981CBD000012
:104A9000FFFF00001C010020FEB500242746012274
:104AA000802128480094FCF71DFF0520FCF79BFDA2
:104AB00000F0C2F805460E463846FBF70DFE2A46C2
:104AC0003346FBF755FCFBF71BFE641CE4B20746BC
:104AD0000A2CEDD31C49FBF70DFC0024FBF7FCFD71
:104AE000054601912846019900F03EF806460F461A
:104AF0000098FBF7F1FD32463B46FBF739FCFBF72C
:104B0000FFFD641CE4B200900A2CEBD30E49FBF7C6
:104B1000F1FB0746002280210A48FCF7E3FE3846F5
:104B2000FBF7DAFD019B00902A46019107A0FFF7F1
:104B30000DFA0C493846FBF7A0FBFBF7B9FD00B2B4
:104B4000FEBD000000040050000020417664645F58
:104B5000763A2566562C74656D705F543A2566A1C9
:104B6000E60D0A000000C842FEB50D4628490026A1
:104B7000096804468E622849264808602448FCF7E4
:104B80000FFB2348FCF7E2FC0A212148FCF77EFCDE
:104B90001F48FCF74FFB800503D51D48FCF74CFB75
:104BA00006461B48FCF700FD3046FBF773FD224626
:104BB0002B46FBF78FFC0022184BFBF7F3FC064655
:104BC0000F4622462B46FBF77DFC22462B46FBF781
:104BD00081FC0191009032463B4620462946FBF776
:104BE00079FC00220E4BFBF775FC019B009AFBF74A
:104BF000D9FC0C4A0C4B00F057F90C4A0C4BFBF754
:104C000069FC0A4A0B4B5242FBF756FC03B0F0BD5D
:104C100044000020020000041000002000FEAF400D
:104C200000005940F7065F984C15BCBFCDCCCCCCEA
:104C3000CCFC70403343674010B50024FCF798FA71
:104C40001548FCF7B1FC1449002009688862144932
:104C5000124808601048FCF7A3FA0F48FCF776FCEE
:104C60000A210D48FCF712FC0B48FCF7E3FA80051B
:104C700003D50948FCF7E0FA0446FCF771FA064848
:104C8000FCF792FC2046FBF705FD02460B46054863
:104C90000549FBF787FC10BD4400002000000244DA
:104CA00010000020E17A14AE4794B34008B5FCF739
:104CB0006BFEFCF741F947A0FFF748F908214AA02D
:104CC000FFF744F9FCF71AFE4D4C0120207000203C
:104CD00060703220A0700020E070211D0320FBF7DF
:104CE000C3FA214608310E464648FBF7BDFA0C22AE
:104CF00021460020FCF742F97D200001FCF773FCFF
:104D0000002525706570A570E570211D2846FBF70C
:104D1000ABFA31460020FBF7A7FA0C22214600200F
:104D2000FCF71CF93046FBF795FA0646201DFBF709
:104D300091FA0096E178A3780A021A436178237801
:104D400009021943034630A0FFF700F93DA0FFF721
:104D5000FDF80126760205273C4C3F072078002805
:104D600007D03BA0FFF7F2F8FEF71AFBFFF794FE1F
:104D700025706078002827D03DA0FFF7E7F8FEF700
:104D80000FFBFBF745FF44A0FFF7E0F80022314698
:104D90003846FCF7A7FD0520FCF725FCFEF7A2FC32
:104DA0006420606001E0FEF76FF960680028FAD1C6
:104DB000012231463846FCF795FD0520FCF713FC2F
:104DC00065702078002801D1FFF708FE0520FCF768
:104DD0000AFCC3E7486172647761726520696E6995
:104DE00074204F4B210D0A00466C61736873746F19
:104DF000726167652053697A653A25640D0A00007F
:104E0000300000205634120069643A307825782C3E
:104E100073763A307825782C64617461616D6F75B2
:104E20006E743A307825782C73746172745F776F82
:104E3000726B5F74696D657374616D703A3078255B
:104E4000780D0A0053746172740D0A00000000208E
:104E500048414C5F5254435F416C61726D414576ED
:104E6000656E7443616C6C6261636B0D0A000000D7
:104E700048414C5F52544345785F57616B655570AC
:104E800054696D65724576656E7443616C6C6261E0
:104E9000636B0D0A0000000053495F504F574552A5
:104EA0005F4F4E0D0A000000F0B51FB496B0844667
:104EB0000C460246199D189803904900680063004B
:104EC000490840080193002A01D0012600E000268D
:104ED0009E19FE4BF6185B109E422BD36E00039F6B
:104EE0000296002F00D00127F719F84EF84BBE1993
:104EF0009E421FD3039E0346F64F334309D03B46E1
:104F00009C4201D1002A04D0019B002A05D0012631
:104F100004E0002039461BB0F0BD00269E19EE4B80
:104F20009E4207D8039F029E002F00D00127F6194A
:104F30009E4207D92B4660462146189AFFF7B0F8E3
:104F40001BB0F0BD0023002C29DAE44EB04226DA73
:104F5000E34EB04201DB022321E0DE4EB0421EDB15
:104F6000E04E070DBE19142E09DD3427BF1B039E2A
:104F7000FE400196BE40039FBE420BD00FE0039F50
:104F8000002F0CD11427BF1B0646FE400196BE40E1
:104F9000864204D1019BDE07F60F02239B1B0E46BF
:104FA000164318D1002D16DA002C03D0022B01D0A5
:104FB000012B06D00220FFF7A3F8FFF767F81BB01C
:104FC000F0BD0220FFF79CF8FFF760F80122D2073E
:104FD00051401BB0F0BD039E002E61D1BF4EB042C8
:104FE00020D1C148844201D1002A08D0B948814269
:104FF00009DB002D10DB189829461BB0F0BD0020FE
:10500000B4491BB0F0BD002D06DA01222946D207B3
:10501000189851401BB0F0BDB449794408684968FC
:105020001BB0F0BDAB4FB84225D1002D1FDA0029CF
:1050300004D0B14212D1002A09D018E0002A72D15E
:10504000A649E20F0020D20711431BB0F0BD00209B
:10505000E20F0146D20711431BB0F0BDB14206DAA0
:10506000234600203946FBF79DFA1BB0F0BD1046E1
:1050700021461BB0F0BDB14212DA0126B607B54297
:1050800003D1234610461946FEE3994EB54207D197
:10509000261E05DB1046314600F004FC1BB0F0BDB7
:1050A00067007F081646002A40D100290AD08B4AA3
:1050B000914229D1002C0EDD002D1CDB0020114671
:1050C0001BB0F0BD022B16D0002C14D0012B12D136
:1050D000002C14DB0FE0002C28DA002D09DB012B5B
:1050E00003D000207D491BB0F0BD002081491BB0DA
:1050F000F0BD012B03D0002001461BB0F0BD002005
:105100000121C9071BB0F0BD724A91420ED1002C9B
:1051100001DA002B17D0022B06D00020C043FBF78A
:105120002FFC1BB0F0BD90E20120F8E7E217521C03
:1051300094461A4307D000220892664C62465B1ED2
:105140001A4307D009E00120FEF7DAFFFEF7ACFFB3
:105150001BB0F0BD0022644C0892674A90427DDD8E
:10516000664B674A98421FDD914202DC002D05DB49
:105170004DE05848814217DB002D48DD0220FEF744
:10518000BFFFFEF799FF05460E460022534B21460E
:105190000898FBF79FF9084671004908C00FC0073F
:1051A000014328461BB0F0BD914215DA002D2EDADE
:1051B0000220FEF7A5FFFEF77FFF05460E46002200
:1051C000464B21460898FBF785F972005208C80F34
:1051D000C0070243114617E03E4B994223DD002DE4
:1051E00015DD0220FEF78CFFFEF766FF05460E4632
:1051F00000223A4B21460898FBF76CF908467100EB
:105200004908C00FC007014328461BB0F0BD02206B
:10521000FEF776FFFEF75AFF49004908E20FD20772
:1052200011431BB0F0BD002230463946FBF744F96C
:10523000012205460E46D243FBF78CFB314A324B26
:10524000FBF740F92A463346FBF744F90022284B86
:10525000FBF738F907462A46334600E064E003913D
:1052600010461946FBF736F93A46039BFBF732F92D
:105270000746032209915207244B28463146FBF783
:1052800029F907910C90224A204B38460999FBF7DF
:1052900021F9074601911F4A1F4B28463146FBF76B
:1052A00019F93A46019BFBF707F907460B460246F8
:1052B000099107990C98FBF75BF800250E462846E4
:1052C000079B0C9AFBF7F8F83A4627E0FFFF1F0010
:1052D000FFFF0F000000F03F0000E0FF0000F07F44
:1052E0000000404301FCFFFF0000F0BFD20A0000B5
:1052F0000000E03F0000F0FF0000E0410000F0434C
:10530000FFFFEF3F555555555555D53F4715F73FCD
:10531000FE822B6544DF5DF80BAE543E099BFBF724
:10532000D1F802460B4652E1012500202D05A94285
:1053300007DA352230463946FBF70CFB06463420A7
:10534000C0430A151218FE48101803900803FD49BF
:10535000000B01430F46FC49884201DC002003E0BA
:10536000FA49884202DA0120119005E000201190EC
:105370000398401C7F1B039011980597C200F448C6
:105380000F927844801843680268394630460D937E
:105390000292FBF791F807910C9030460D9B029A10
:1053A0000599FAF7E5FF02460B460020E549FBF7B1
:1053B000F9F809910490079B0C9AFBF78BF812906F
:1053C00000201090E3480D46784400680E900121BB
:1053D00078104907084311990D9B89044018012151
:1053E000C90447183946029A0E98FBF765F8324609
:1053F000059BFBF767F802460B4629461098FBF71A
:1054000069F8064602913B4629460E9A1098FBF72A
:1054100061F8079B0C9AFBF755F83246029BFBF7A5
:105420004BF8099B049AFBF755F80591129A0A90DC
:105430002B4610461946FBF74DF806460246C6486D
:105440000F460B4606217844FEF7CAFD32463B461E
:105450000091049010461946FBF73CF8009B049A13
:10546000FBF738F806460F462B461946129A109855
:10547000FAF77EFF059B0A9AFBF72CF832463B466B
:10548000FAF776FF109A079104902B4610461946BA
:10549000FBF720F8B14E0022334609910290FAF74B
:1054A00067FF079B049AFAF763FF0020074602464E
:1054B00033460091FBF700F8099B029AFAF7FCFFCC
:1054C000079B049AFAF7FEFF06460D913A462946D5
:1054D000009B1098FAF7FEFF07910C902B46304680
:1054E000129A0D99FAF7F6FF05460E463A46009BCA
:1054F00005990A98FAF7EEFF33462A46FAF738FF7D
:1055000002460B460746099107990C98FAF730FFB7
:1055100000250E462846079B0C9AFAF7CDFF3A461F
:10552000099BFAF7CFFF07460722099152078C4BD8
:1055300031462846FAF7CEFF07910090894A884BFA
:1055400038460999FAF7C6FF07460191864A874B04
:1055500031462846FAF7BEFF3A46019BFAF708FFA4
:10556000834B7B440F9A9B181A685B68FAF700FF1D
:10557000029009910398FBF703FA05910490099BA7
:10558000029A07990098FAF7F3FE7A4B7B440F9A38
:105590009B181A685B6817460393FAF7E9FE059BA8
:1055A000049AFAF7E5FE0E462846059B049AFAF798
:1055B00083FF3A46039BFAF77FFF079B009AFAF7AF
:1055C0007BFF099B029AFAF77DFF02460B46199969
:1055D00000200C900F461898FAF77CFF0291049077
:1055E0003B460C9A19991898FAF766FF2A463346F3
:1055F000FAF770FF029B049AFAF7BAFE09910E902F
:105600002A46334639460C98FAF764FF06460F4699
:10561000099B0E9AFAF7ACFE574A0D46914220DBE1
:105620005242AA18024310D132463B46FAF744FFD1
:1056300004900391514A524B09990E98FAF798FE3B
:10564000039B049AFBF7D0F91ED20220FEF758FD07
:10565000FEF732FD49004908E20FD20711431BB0A3
:10566000F0BD6A00474B52089A420DD3464AAA1829
:10567000024300D0CBE532463B46FAF71DFF099BBB
:105680000E9AFBF7B1F9F5D96800002340082C49C0
:105690000393020D3D4B5218984223DD0120000573
:1056A000521CD04042195000400D401838497944EE
:1056B000096813468C463749C1408B4312030121C8
:1056C000120B090551181422101AC1400391002D24
:1056D00001DA48420390624630463946FAF7ECFE5A
:1056E00006460F4632463B4609990E98FAF740FEA9
:1056F00000252A46284B28460591FAF7EBFE07912C
:105700000C90264A264B28460599FAF7E3FE0091AD
:10571000029032463B4628460599FAF7CDFE099B92
:105720000E9AFAF7CFFE1F4A1F4BFAF7D3FE009BE3
:10573000029AFAF71DFE07460B460246099135E02C
:1057400001FCFFFF0000F03F8E9803007AB60B00CB
:10575000D2060000240700003E06000000000840BA
:1057600009C7EE3FFD033ADCF5015B14E02F3EBEB6
:1057700012050000D804000000009040FE822B6556
:105780004715973C00CC904000346F3F0000E03F4D
:105790003E040000FFFF0F00432EE63F396CA80CCB
:1057A000615C20BEEF39FAFE422EE63F07990C9865
:1057B000FAF7DEFD05460E46079B0C9AFAF77CFECB
:1057C0003A46099BFAF77EFE09912A4633460E9027
:1057D00010461946FAF77EFE074602462F480B464A
:1057E000059105217844FEF7FBFB3A46059BFAF745
:1057F00071FE2A463346FAF765FE074601912846B0
:105800003146099B0E9AFAF765FE099B0E9AFAF744
:10581000AFFD012304910C9000229B0738460199AB
:10582000FAF74AFE05910E903A4628463146019B0A
:10583000FAF750FE059B0E9AFAF7B4FE049B0C9AF9
:10584000FAF73AFE2A463346FAF736FE0022144BA0
:10585000FAF738FE064603980D460005411909156A
:10586000002912DC30462946039AFBF773F8FEF74D
:10587000A1FB042801D1FEF729FC30462946039AF2
:10588000FBF768F8064601E004E029180B463246AB
:1058900021460898FAF71EFE1BB0F0BDD0020000AA
:1058A0000000F03FF8B506460C46FBF7C3F8051EAE
:1058B0000F4600D00120014349000B484908411A16
:1058C000C90F0DD0002E01D0012100E000210C43B2
:1058D00061004908401AC00F02D10120FEF710FCF8
:1058E00028463946F8BD00000000F07F070201009D
:1058F00001C9C3800813000000000000000511006A
:1059000001005205110001034008110104000700C5
:1059100000000811020400000000000D1110090031
:105920000494000F1D00000000091111050001B4CE
:105930002B00000511120100840511120106020757
:1059400011120308000000071112030E070480075C
:1059500011120312000000071112031600000007C5
:105960001112031A000000071112031E000000109C
:1059700011200C000280070003E8002DC6C00005BE
:10598000051120010C760C112008180180080380F5
:105990000030200D1120092207530045E8002302A2
:1059A000C20B1120072C043680034D748005112092
:1059B0000135E20D1120093811FFFF0002A000009F
:1059C0002B0C112008428402D68302AA0180051103
:1059D00020014C00051120014E4005112001510A03
:1059E0001011210C00FFBA0F51CFA9C9FC1B1E0FCB
:1059F000011011210C0CFCFD15FF000FFFBA0F5117
:105A0000CFA91011210C18C9FC1B1E0F01FCFD159C
:105A1000FF000F0811220400087F003D0B1123072F
:105A2000002C0E0B040C73030C11400800370D55AD
:105A3000551B4F20FE000000000000000000010286
:105A4000030406070809030406080C101820300098
:105A50000000000102030400000000000000F03F0D
:105A6000000000000000F83F0000000000000000FF
:105A70000000004003B8E23F00000000000000000A
:105A800006D0CF43EBFD4C3E033333333333E33F98
:105A9000FFAB6FDBB66DDB3F4D268F515555D53FC4
:105AA00001411DA96074D13F65DBC9934A86CD3F92
:105AB000EF4E454A287ECA3F3E5555555555C53F80
:105AC00093BDBE166CC166BF2CDE25AF6A56113F72
:105AD000F16BD2C541BDBBBED0A4BE726937663E74
