:020000040800F2
:10000000E0040020D5000008C5140008C51200084F
:1000100000000000000000000000000000000000E0
:100020000000000000000000000000005F15000854
:1000300000000000000000000D1500086115000818
:10004000E7000008E7000008E7000008E7000008F4
:10005000E7000008E7000008E7000008E7000008E4
:1000600000000000E7000008E7000008E7000008C3
:10007000E7000008E700000800000000E7000008B3
:100080000000000000000000000000000000000070
:10009000E700000800000000E7000008E700000893
:1000A00000000000E7000008000000000000000061
:1000B000E7000008E7000008000000000000000062
:1000C0000348854600F03CF8004800476B160008DE
:1000D000E00400200448804704480047FEE7FEE7AC
:1000E000FEE7FEE7FEE7FEE7F9150008C10000089D
:1000F00030B50B46014600202022012409E00D46C0
:10010000D5409D4205D31D469540491B2546954047
:1001100040191546521E002DF1DC30BDD2B201E06F
:100120000270401C491EFBD270470022F6E710B552
:1001300013460A4604461946FFF7F0FF204610BD55
:10014000064C0125064E05E0E36807CC2B430C3C2A
:1001500098471034B442F7D3FFF7B6FFA016000853
:10016000C016000838B50446064805490068FFF780
:10017000BFFF604300E0401E00900028FBD138BD67
:1001800040420F0000000020F8B506460D464036FC
:10019000317C01290DD00121317401688A68520730
:1001A00009D5416D202211434165002030740120A2
:1001B000F8BD0220F8BD174B6A68D80547109A426F
:1001C000154C8A6A2B6812D05B035B0B1A438A6258
:1001D0002968490305D5A1680143A1600A20FFF7FA
:1001E000C1FF2868800312D5A06838430EE05B0386
:1001F0005B0B9A438A622968490302D5A16881434F
:10020000A1602868800302D5A068B843A0600020E0
:100210003074F8BD011000000027014070B50400E3
:1002200006D0606D264600254036002802D006E044
:10023000012070BDA5653574204600F0D3F8606DCF
:10024000C00603D421688868400705D5606D102179
:10025000084360653574EBE7606DFF22013290431F
:1002600002221043606588688207920F5B48012A6A
:1002700002D10A68D2072BD1032362689B079A42F6
:1002800005D05B429A4202D05B009A4209D10A69CA
:10029000920092080A6121680A6963681A430A6138
:1002A0000CE00A69920092080A6181680F229204A8
:1002B0009143816081686268114381602168CA68E6
:1002C00018239A43CA602168CA68A3681A43CA609F
:1002D000816801225206914381608168A28E520694
:1002E0001143816020688168C90004D481680122BB
:1002F0001207114381602068C168394A1140C1600A
:100300002069E168022825D00020014320462030E2
:100310000278037B52035B001A431143226B1143A3
:10032000A26992031143E269D20311432268D368A0
:100330001943D160616A0A46FF3AC23A05D0A26AFF
:1003400011432268D3681943D16042780121012A00
:1003500002D00BE00420D8E70078002823D0606D9D
:10036000202210436065A06D0843A065E06B012862
:1003700020681FD00169C90703D0016949084900F5
:10038000016120684169C908C9004161206841696B
:10039000A26B11434161A565606D80088000401C1F
:1003A0006065002070BD2068C26801231B041A43E9
:1003B000C260DBE70269FF239B009A430261206869
:1003C0000269236CA66C1A43636C33431A430261BF
:1003D000206802690A430261D3E700000027014058
:1003E0001902FEFF10B586B0044614216846FFF7D7
:1003F0009CFE0E492068884216D10D48416B42157B
:1004000011434163C16A01221143C162C06A694656
:10041000104005900E2000900320019000200290D3
:100420000520000700F006F806B010BD00240140CA
:1004300000100240F8B5002301249DE027469F40AC
:100440003A4070D04D68022D01D0122D14D1DD0834
:10045000AD002D1800952D6A5E07AC46F50E0F26EF
:10046000AE46AE406546B543AC460E697546AE40F5
:1004700065462E43009D2E624D68012D05D0022D4C
:1004800003D0112D01D0122D16D185680326AC465C
:100490005D00AE46AE406546B543AC46CE68754697
:1004A000AE4065462E43866046680D79BE43ED0634
:1004B000ED0F9D403543456006685F000325BD4054
:1004C000AE46AE430D79B446AE07B60FBE406546A4
:1004D0002E430660C6687546AE438D68BD40354301
:1004E000C5604D68ED0046D5264D6E6B26436E63A4
:1004F0009E08254DB6007519AC46AD689E07360FAF
:100500000F27B740BD4305273F07B84201D1002759
:1005100010E01E4FB84201D101270BE01C4FB8423A
:1005200002D1022706E026E01A4FB84201D1052782
:1005300000E00627B7402F436546AF60164D2E6892
:100540004F689643FF0300D516432E606E684F68D0
:100550009643BF0300D516436E60AE684F6896435E
:10056000FF0200D51643AE60EE684F689643BF02A7
:1005700000D51643EE605B1C0A681546DD4000D0CE
:100580005CE7F8BD0010024000000140000400508C
:1005900000080050001C005000040140002A01D057
:1005A00081617047816270470148006870470000B0
:1005B0000400002002480168491C016070470000E7
:1005C0000400002010B508480024016840221143AF
:1005D0000160204600F00AF8002801D0012401E063
:1005E00000F01CF8204610BD0020024070B5054602
:1005F00009487D210024C9000068FFF779FD00F05B
:1006000049FE002801D0012404E000222946501EA2
:1006100000F010F8204670BD000000200448416B37
:10062000012211434163816B0204114381637047CE
:100630000010024010B500F047FF10BD02480168ED
:10064000821511430160704700700040F8B5044600
:1006500000784F4D800672D54D4E0027403EB06B5E
:10066000C00004D4B06BA9050843B0630127494812
:100670000168C90511D40168821511430160FFF7B3
:1006800093FF009005E0FFF78FFF0099401A642860
:1006900037D840480068C005F5D532680321090500
:1006A00060680A400140914208D08103890F032904
:1006B00004D13168890301D50120F8BD2A690321DD
:1006C00009040A4022D0084090421FD020788006BA
:1006D0001CD528692A6988430121C9040A432A6173
:1006E0002A698A432A612861C0050FD5FFF75CFF9C
:1006F000009008E0FFF758FF0099411A2648814210
:1007000001D90320F8BD28698005F3D56168880305
:10071000800F032805D132680005824301400A4357
:10072000326028690322616812041140084328617D
:10073000002F04D0B16B012000078143B163207802
:10074000800705D5E8680C218843A1680843E86064
:100750002078400706D5E868032189028843E168CC
:100760000843E8602078000706D5E86803210903FC
:10077000884321690843E8602078000606D5E868C8
:1007800003218904884361690843E8600020F8BDBB
:10079000401002400070004088130000F8B50E467B
:1007A00005007DD053480068C007C00FB0420AD290
:1007B0005048016849084900314301600068C0079A
:1007C000C00FB04271D128784B4C800705D5E06846
:1007D000F0218843A9680843E0602878C00752D018
:1007E0006868022817D0032818D02168012818D07B
:1007F0008905002959DAE168890889000143E16027
:10080000FFF7D2FE69680746022912D003291CD0DF
:10081000012926D033E021688903EAE721688901AC
:10082000E7E74907E5E7FFF7BFFEC11B3348814211
:1008300023D8E0680007800F0228F4D123E0FFF7F7
:10084000B3FEC11B2D48814217D8E0680007800F16
:100850000328F4D117E0FFF7A7FEC11B2748814208
:100860000BD8E0680007800F0128F4D10BE0FFF7F8
:100870009BFEC11B2148814201D90320F8BDE068DD
:100880000007800FF3D11B480168C907C90FB142A7
:100890000DD901684908490031430160006800E052
:1008A00003E0C007C00FB04201D00120F8BD287896
:1008B000400706D5E068072109028843E968084334
:1008C000E0602878000707D5E0680721C90288435F
:1008D0002969C9000843E06000F016F8E168084A99
:1008E0000906090F515CC840064908600020FFF75F
:1008F0007DFEF8BD00200240001002408813000079
:10090000841600080000002010B5184AD1680C2099
:10091000084004280BD0082810D00C2810D05068AC
:100920000004410F0120C003491C884010BD10681D
:10093000C00601D50E4810BD0E4810BD0E4810BDB2
:1009400088020E4B000F185C0902D368890F491CFE
:10095000DB0301D5084A05E01268D20601D5044A36
:1009600000E0044A5043FFF7C3FB10BD00100240F3
:1009700000093D000024F40000127A0094160008DB
:10098000FEB505007ED0FE4CE7680C20E668074007
:100990000120000406402878C00747D0082F05D062
:1009A0000C2F0AD101200004864206D12068800362
:1009B0003CD568680028E5D038E00120696800046B
:1009C000814203D121680143216011E00523012206
:1009D0001B0492049942216802D111432160F1E77E
:1009E000814321602168014000912068904320608C
:1009F000686800280DD0FFF7D7FD009005E0FFF7ED
:100A0000D3FD0099401A64287ED820688003F6D56B
:100A10000CE0FFF7C9FD009005E0FFF7C5FD009968
:100A2000401A6428F0D820688003F6D4287880071C
:100A30005CD5E868810604D5226820210A4322603B
:100A400088430923042F0DD00C2F01D1002E09D08B
:100A500000283BD02168994301432160FFF7A4FDA2
:100A6000064627E02168490701D500288AD0616839
:100A70001F22120291432A69120211436160216808
:100A8000994300E08EE101432160FFF73DFFE168FB
:100A900009060A0FBB49895CC840BB4908600020B1
:100AA000FFF7A4FD002873D120E0FFF77DFD801B38
:100AB0000228A9D820684007F7D560681F210902DD
:100AC000884329690902084360600FE020684008F4
:100AD00040002060FFF768FD064604E0FFF764FD74
:100AE000801B022890D820684007F7D42878C006D9
:100AF00060D5002F0DD0A86900284AD02068FF21BA
:100B000001310843206000E0C4E0FFF74DFD0646D8
:100B10002CE02068800502D5A8690028A6D060686E
:100B2000072149038843296A084360606068297F78
:100B30000002000A090608436060286A410B012090
:100B4000C003491C8840E16809060A0F8D49895C89
:100B5000C8408D4908600020FFF748FD002817D1E4
:100B600028E0FFF721FD801B0228A2D8206880051D
:100B7000F7D56068072149038843296A0843606004
:100B80006068297F0002000A09060843606011E0DE
:100B9000E1E02168FF20013081432160FFF704FD7F
:100BA000064604E0FFF700FD801B022872D820688B
:100BB0008005F7D42878754E000724D56869002889
:100BC000306910D0012108433061FFF7EDFC00903F
:100BD00005E0FFF7E9FC0099401A02285AD830696D
:100BE0008007F6D50FE0400840003061FFF7DCFCDD
:100BF000009005E0FFF7D8FC0099401A022849D878
:100C000030698007F6D42878400765D50020029027
:100C1000A06BC00006D4A06B012109070843A063A4
:100C2000012002905A480168C90511D40168821553
:100C300011430160FFF7B8FC009005E0FFF7B4FC3A
:100C40000099401A642825D851480068C005F5D598
:100C5000FF20AA680130824203D13169014331612A
:100C600011E001218902002A07D005231B029A42C4
:100C700003D132690A433261EFE73269824332615C
:100C8000306988433061A86800280FD0FFF78CFCDA
:100C9000009007E05EE0FFF787FC0099411A3D48AD
:100CA000814257D830698005F5D50DE0FFF77CFC0F
:100CB000009006E0FFF778FC0099411A3548814220
:100CC00048D830698005F5D40298002804D0A16B7B
:100CD000012000078143A163686A002864D00C2FBB
:100CE0003ED0012636060228206805D0B043206099
:100CF000FFF75AFC05462FE0B0432060FFF754FC95
:100D0000074604E0FFF750FCC01B022822D82068E9
:100D10008001F7D4E96AA86AE2680843296BFD23D9
:100D20001B049A4311430843E0602068304320606D
:100D3000FFF73AFC054604E0FFF736FC401B0228AB
:100D400008D820688001F7D52EE0FFF72DFC401B66
:100D5000022801D90320FEBD20688001F5D423E0DC
:100D60000128F8D0E06801210904AA6A01409142F3
:100D700018D10F218904EA6A0140914212D10BE097
:100D800000100240841600080000002040100240BD
:100D90000070004088130000032189050840296B7A
:100DA000884201D00120FEBD0020FEBDF8B5040040
:100DB00050D0254620356878002803D12870204679
:100DC00000F052F8022068702168CA204862216849
:100DD00053204862204600F0A6FBFF260427002887
:100DE000206802D046626F7034E081681D4A11406D
:100DF0008160216888686268A369104322691A4388
:100E0000104388602168E0680861206801692289D0
:100E10001204114301612068C16880229143C160BE
:100E20002068C16C89088900C164E1696069014377
:100E30002068C26C1143C1642068806880060BD4AE
:100E4000204600F0A5F9002806D0206846626F70A1
:100E5000002028700120F8BD2068466201206870DB
:100E60000020F8BDBFFF8FFF00680549884205D10B
:100E70000448016901229204114301617047000096
:100E80000028004040100240FEB5064604462036C9
:100E900030780B4601284CD0012030700220707051
:100EA000184620300090206800278068002A42D031
:100EB000400600D4DF7019789D7809040D435978F5
:100EC000DA780902120411430D430099D8690978B0
:100ED00009060D4305435869996905435868084355
:100EE00000902168CA204862216853204862586AED
:100EF000C11F2068F9390DD0816801225202914347
:100F0000816020688168120191438160FFF74CFB8A
:100F1000019050E08268FF2101318A43826020689D
:100F200081680122120391438160FFF73DFB01902C
:100F300024E00220FEBD400600D4DF70187800F0E7
:100F4000E6FA0504587800F0E2FA000205439878C2
:100F500000F0DDFA0543D8780004054300980078D6
:100F600000F0D5FA00060543D869B3E7FFF71CFB8C
:100F70000199411A7D20C000814215D82068C068BF
:100F8000C007F3D02068C5612168009848642068D4
:100F90008168FF2201321BE0FFF706FB0199411A2D
:100FA0007D20C000814206D92168FF2048620320CD
:100FB00070703770FEBD2068C0688007ECD520686F
:100FC00005622168009888642068816801225202C5
:100FD000114381602168FF204862012070703770E2
:100FE0000020FEBDF8B505460446203528780B469E
:100FF00001280FD00120287002206870002A0BD031
:10100000D8789E780004064358780978000249038E
:10101000084317E00220F8BD5878C10603D5EF2138
:1010200008400A305870D87800F071FA06045878F1
:1010300000F06DFA00020643987800F068FA064363
:101040001878400306432168CA204862216853206B
:101050004862204600F067FA0027002811D11148A5
:101060000640206846602068C16880229143C160C4
:101070002068806880060CD4204600F089F800289B
:1010800007D02168FF204862042068702F7001207B
:10109000F8BD2168FF204862012068702F70002091
:1010A000F8BD00003FFFFF00F8B5064604462036B5
:1010B00030780D46012822D0012030700220707057
:1010C000206800278068002A1BD0400600D4EF70FB
:1010D0002978A878090408436978EA780902120493
:1010E0001143084300902168CA20486221685320B8
:1010F0004862204600F017FA002837D116E0022097
:10110000F8BD400600D4EF70287800F000FA030420
:10111000687800F0FCF900020343A87800F0F7F9C2
:101120000343E878000403430093DCE71749009881
:101130000840216808602068816801229204914378
:1011400081602969E868084321688A6810438860DB
:101150002068C16880229143C16020688068800651
:101160000CD4204600F014F8002807D02168FF2096
:1011700048620420707037700120F8BD2168FF209C
:1011800048620120707037700020F8BD7F7F7F00BB
:1011900070B504460068C168A0229143C160FFF7A2
:1011A00003FA7D260546F60006E0FFF7FDF9401B31
:1011B000B04201D9032070BD2068C0688006F4D514
:1011C000002070BD70B5040007D0002625464035CC
:1011D000A662687C002802D005E0012070BD2E7454
:1011E000204600F02BF80220687420680168402235
:1011F00091430160A168606822690843E168114376
:101200000843616901220843A16952021140084361
:10121000E1690843216A0843A16A0843216808601C
:10122000A0690421000C0840616A084321684860F5
:10123000666501206874002070BD000010B586B09E
:10124000044614216846FEF770FF10492068884262
:1012500019D10F48416B821411434163C16A0122C5
:101260001143C162C06A002110400590E020009047
:101270000220019003200390029104910520694609
:101280000007FFF7D7F806B010BD0000003001409E
:1012900000100240094910B5401E884201D90120C2
:1012A00010BD074C60610321081F00F00DF90020FC
:1012B000A06107202061002010BD0000FFFFFF009B
:1012C00000E000E0FEE700001CB500211A48009194
:1012D000184A01910260C163120581604260816316
:1012E000012202610246C16020321170FF23517059
:1012F000C2334362816211730163816104224163DD
:101300004261C161FEF78AFF0C4800908013019092
:1013100069460948FEF738FF0948009069460648C3
:10132000FEF732FF0748009069460348FEF72CFF9E
:101330001CBD000000240140080000200200000441
:10134000040000080800000CF0B587B014216846BE
:10135000FEF7EBFE2548C16A04252943C162C16A34
:1013600029400591C16A01242143C162C16A21401B
:101370000591C16A02263143C162C06AFF2730402D
:10138000059012370520002239460007FFF706F9BD
:1013900000224A211648FFF701F90097002705208F
:1013A00001940297694600070397FFF743F8114835
:1013B00001906946029700940D48FFF73BF84A20D8
:1013C000694691C169460A480397FFF733F803203D
:1013D00040026946C1C10320039005206946049577
:1013E0000007FFF727F807B0F0BD0000001002402B
:1013F000000400500000111030B591B0142168466F
:10140000FEF793FE0024282106A80594FEF78DFE22
:101410001C491D4812C07F2101608460C4600461C2
:10142000FF21446141600838FFF7C0FC6846047042
:101430004470847003940122694613480494FFF7B2
:1014400033FE01256846057545758575C4752A46C0
:1014500005A90D48FFF7C6FD6846047644768476F4
:10146000079409940A940B940C9408A80D9405769B
:1014700028020F90012206A90348FFF705FD11B0CD
:1014800030BD0000002800406400002010B50C486A
:101490000A490160FF210531416000218160C1607E
:1014A00001614161C16101220162520241628261B6
:1014B00081620721C162FFF785FE10BD0030014047
:1014C00088000020704700008307FF22DB0E9A404F
:1014D0008907090E994000280BDA0007000F083829
:1014E000830808489B001818C36993430B43C361E2
:1014F0007047830804489B001B18186890430843F2
:101500001860704700ED00E000E400E07047002242
:10151000014602E00A39C9B2521C0A29FAD2100760
:10152000000E0843704770B504460068C16849065C
:1015300013D40021C943C160FFF736F87D26054664
:10154000F60006E0FFF730F8401BB04201D9032057
:1015500070BD2068C0684006F4D5002070BD70479B
:1015600010B5FFF727F810BD10B598B034216846C4
:10157000FEF7DBFD14210DA8FEF7D7FD182112A8F8
:10158000FEF7D3FD1A4801680324E402A143C21404
:1015900089180160FFF752F816480169A1430161FB
:1015A00006200090FF2001300290012003901020BF
:1015B00004900220099040040B90000100240C903C
:1015C0000A946846FFF7DCF90F200D9003200E9077
:1015D0000F941094012111940DA8FFF7DFF820203B
:1015E0001290C002139012A8FFF730F818B010BD87
:1015F00000700040401002401048016882151143FD
:101600000160C1680E4A1140C16001680D4A114075
:1016100001608168490849008160016801229204E3
:1016200091430160C168FD2212049143C160002111
:1016300001610549C0038860704700000010024046
:101640000C40FF88F6FFF6FE00ED00E002E008C85F
:10165000121F08C1002AFAD170477047002001E02C
:1016600001C1121F002AFBD17047FEF7ABFFFFF745
:101670007BFFFFF769FEFFF727FEFFF7BDFEFFF7D1
:1016800005FFFEE700000000000000000102030467
:1016900006070809030406080C1018203000000093
:1016A000C016000800000020080000004C160008CA
:1016B000C816000808000020D80400005C160008C6
:0816C000000020000000000002
:04000005080000C12E
:00000001FF
